{
  "contractName": "BorderFactory",
  "abi": [
    {
      "constant": true,
      "inputs": [
        {
          "name": "",
          "type": "uint256"
        }
      ],
      "name": "borders",
      "outputs": [
        {
          "name": "",
          "type": "address"
        }
      ],
      "payable": false,
      "stateMutability": "view",
      "type": "function"
    },
    {
      "constant": true,
      "inputs": [],
      "name": "usdAddress",
      "outputs": [
        {
          "name": "",
          "type": "address"
        }
      ],
      "payable": false,
      "stateMutability": "view",
      "type": "function"
    },
    {
      "constant": true,
      "inputs": [
        {
          "name": "",
          "type": "address"
        }
      ],
      "name": "isBorder",
      "outputs": [
        {
          "name": "",
          "type": "bool"
        }
      ],
      "payable": false,
      "stateMutability": "view",
      "type": "function"
    },
    {
      "inputs": [
        {
          "name": "_usdAddress",
          "type": "address"
        }
      ],
      "payable": false,
      "stateMutability": "nonpayable",
      "type": "constructor"
    },
    {
      "anonymous": false,
      "inputs": [
        {
          "indexed": true,
          "name": "_address",
          "type": "address"
        },
        {
          "indexed": false,
          "name": "_name",
          "type": "string"
        }
      ],
      "name": "CreateBorder",
      "type": "event"
    },
    {
      "constant": true,
      "inputs": [
        {
          "name": "_borderAddress",
          "type": "address"
        }
      ],
      "name": "inBorderFactory",
      "outputs": [
        {
          "name": "",
          "type": "bool"
        }
      ],
      "payable": false,
      "stateMutability": "view",
      "type": "function"
    },
    {
      "constant": true,
      "inputs": [],
      "name": "listBorders",
      "outputs": [
        {
          "name": "",
          "type": "address[]"
        }
      ],
      "payable": false,
      "stateMutability": "view",
      "type": "function"
    },
    {
      "constant": true,
      "inputs": [],
      "name": "lastBorderCreated",
      "outputs": [
        {
          "name": "",
          "type": "address"
        }
      ],
      "payable": false,
      "stateMutability": "view",
      "type": "function"
    },
    {
      "constant": false,
      "inputs": [
        {
          "name": "_name",
          "type": "string"
        },
        {
          "name": "_tokenName",
          "type": "string"
        },
        {
          "name": "_tokenSymbol",
          "type": "string"
        }
      ],
      "name": "createBorder",
      "outputs": [
        {
          "name": "",
          "type": "address"
        }
      ],
      "payable": false,
      "stateMutability": "nonpayable",
      "type": "function"
    }
  ],
  "bytecode": "0x608060405234801561001057600080fd5b5060405160208061415e8339810180604052602081101561003057600080fd5b810190808051906020019092919050505080600260006101000a81548173ffffffffffffffffffffffffffffffffffffffff021916908373ffffffffffffffffffffffffffffffffffffffff160217905550506140cc806100926000396000f3fe60806040523480156200001157600080fd5b5060043610620000885760003560e01c80636ca9295511620000635780636ca9295514620003925780639e1a861314620003f5578063c462fc0f1462000441578063d1fbb606146200048d5762000088565b80630de27c9e146200008d57806338ca276d14620000fe57806355d16f681462000333575b600080fd5b620000bc60048036036020811015620000a557600080fd5b8101908080359060200190929190505050620004ec565b604051808273ffffffffffffffffffffffffffffffffffffffff1673ffffffffffffffffffffffffffffffffffffffff16815260200191505060405180910390f35b620002f1600480360360608110156200011657600080fd5b81019080803590602001906401000000008111156200013457600080fd5b8201836020820111156200014757600080fd5b803590602001918460018302840111640100000000831117156200016a57600080fd5b91908080601f016020809104026020016040519081016040528093929190818152602001838380828437600081840152601f19601f82011690508083019250505050505050919291929080359060200190640100000000811115620001ce57600080fd5b820183602082011115620001e157600080fd5b803590602001918460018302840111640100000000831117156200020457600080fd5b91908080601f016020809104026020016040519081016040528093929190818152602001838380828437600081840152601f19601f820116905080830192505050505050509192919290803590602001906401000000008111156200026857600080fd5b8201836020820111156200027b57600080fd5b803590602001918460018302840111640100000000831117156200029e57600080fd5b91908080601f016020809104026020016040519081016040528093929190818152602001838380828437600081840152601f19601f82011690508083019250505050505050919291929050505062000529565b604051808273ffffffffffffffffffffffffffffffffffffffff1673ffffffffffffffffffffffffffffffffffffffff16815260200191505060405180910390f35b62000378600480360360208110156200034b57600080fd5b81019080803573ffffffffffffffffffffffffffffffffffffffff169060200190929190505050620008b5565b604051808215151515815260200191505060405180910390f35b6200039c6200090b565b6040518080602001828103825283818151815260200191508051906020019060200280838360005b83811015620003e1578082015181840152602081019050620003c4565b505050509050019250505060405180910390f35b620003ff6200099b565b604051808273ffffffffffffffffffffffffffffffffffffffff1673ffffffffffffffffffffffffffffffffffffffff16815260200191505060405180910390f35b6200044b620009c1565b604051808273ffffffffffffffffffffffffffffffffffffffff1673ffffffffffffffffffffffffffffffffffffffff16815260200191505060405180910390f35b620004d260048036036020811015620004a557600080fd5b81019080803573ffffffffffffffffffffffffffffffffffffffff16906020019092919050505062000a08565b604051808215151515815260200191505060405180910390f35b60008181548110620004fa57fe5b906000526020600020016000915054906101000a900473ffffffffffffffffffffffffffffffffffffffff1681565b600080848484600260009054906101000a900473ffffffffffffffffffffffffffffffffffffffff1633604051620005619062000a28565b808060200180602001806020018673ffffffffffffffffffffffffffffffffffffffff1673ffffffffffffffffffffffffffffffffffffffff1681526020018573ffffffffffffffffffffffffffffffffffffffff1673ffffffffffffffffffffffffffffffffffffffff168152602001848103845289818151815260200191508051906020019080838360005b838110156200060c578082015181840152602081019050620005ef565b50505050905090810190601f1680156200063a5780820380516001836020036101000a031916815260200191505b50848103835288818151815260200191508051906020019080838360005b838110156200067557808201518184015260208101905062000658565b50505050905090810190601f168015620006a35780820380516001836020036101000a031916815260200191505b50848103825287818151815260200191508051906020019080838360005b83811015620006de578082015181840152602081019050620006c1565b50505050905090810190601f1680156200070c5780820380516001836020036101000a031916815260200191505b5098505050505050505050604051809103906000f08015801562000734573d6000803e3d6000fd5b50905060008190806001815401808255809150509060018203906000526020600020016000909192909190916101000a81548173ffffffffffffffffffffffffffffffffffffffff021916908373ffffffffffffffffffffffffffffffffffffffff1602179055505060018060008373ffffffffffffffffffffffffffffffffffffffff1673ffffffffffffffffffffffffffffffffffffffff16815260200190815260200160002060006101000a81548160ff0219169083151502179055508073ffffffffffffffffffffffffffffffffffffffff167f6938a362cbd72f4666281fe2fbe5bae882264ef3cf8c1f9052d00b3d70661e63866040518080602001828103825283818151815260200191508051906020019080838360005b838110156200086f57808201518184015260208101905062000852565b50505050905090810190601f1680156200089d5780820380516001836020036101000a031916815260200191505b509250505060405180910390a2809150509392505050565b6000600160008373ffffffffffffffffffffffffffffffffffffffff1673ffffffffffffffffffffffffffffffffffffffff16815260200190815260200160002060009054906101000a900460ff169050919050565b606060008054806020026020016040519081016040528092919081815260200182805480156200099157602002820191906000526020600020905b8160009054906101000a900473ffffffffffffffffffffffffffffffffffffffff1673ffffffffffffffffffffffffffffffffffffffff168152602001906001019080831162000946575b5050505050905090565b600260009054906101000a900473ffffffffffffffffffffffffffffffffffffffff1681565b60008060016000805490500381548110620009d857fe5b9060005260206000200160009054906101000a900473ffffffffffffffffffffffffffffffffffffffff16905090565b60016020528060005260406000206000915054906101000a900460ff1681565b61366a8062000a378339019056fe60806040526127106004553480156200001757600080fd5b506040516200366a3803806200366a833981018060405260a08110156200003d57600080fd5b8101908080516401000000008111156200005657600080fd5b828101905060208101848111156200006d57600080fd5b81518560018202830111640100000000821117156200008b57600080fd5b50509291906020018051640100000000811115620000a857600080fd5b82810190506020810184811115620000bf57600080fd5b8151856001820283011164010000000082111715620000dd57600080fd5b50509291906020018051640100000000811115620000fa57600080fd5b828101905060208101848111156200011157600080fd5b81518560018202830111640100000000821117156200012f57600080fd5b5050929190602001805190602001909291908051906020019092919050505080600160006101000a81548173ffffffffffffffffffffffffffffffffffffffff021916908373ffffffffffffffffffffffffffffffffffffffff1602179055508460009080519060200190620001a792919062000445565b508383600160009054906101000a900473ffffffffffffffffffffffffffffffffffffffff16604051620001db90620004cc565b8080602001806020018473ffffffffffffffffffffffffffffffffffffffff1673ffffffffffffffffffffffffffffffffffffffff168152602001838103835286818151815260200191508051906020019080838360005b838110156200025057808201518184015260208101905062000233565b50505050905090810190601f1680156200027e5780820380516001836020036101000a031916815260200191505b50838103825285818151815260200191508051906020019080838360005b83811015620002b95780820151818401526020810190506200029c565b50505050905090810190601f168015620002e75780820380516001836020036101000a031916815260200191505b5095505050505050604051809103906000f0801580156200030c573d6000803e3d6000fd5b50600260006101000a81548173ffffffffffffffffffffffffffffffffffffffff021916908373ffffffffffffffffffffffffffffffffffffffff16021790555081600360006101000a81548173ffffffffffffffffffffffffffffffffffffffff021916908373ffffffffffffffffffffffffffffffffffffffff16021790555060068190806001815401808255809150509060018203906000526020600020016000909192909190916101000a81548173ffffffffffffffffffffffffffffffffffffffff021916908373ffffffffffffffffffffffffffffffffffffffff16021790555050600454600560008373ffffffffffffffffffffffffffffffffffffffff1673ffffffffffffffffffffffffffffffffffffffff16815260200190815260200160002081905550505050505062000502565b828054600181600116156101000203166002900490600052602060002090601f016020900481019282601f106200048857805160ff1916838001178555620004b9565b82800160010185558215620004b9579182015b82811115620004b85782518255916020019190600101906200049b565b5b509050620004c89190620004da565b5090565b61189c8062001dce83390190565b620004ff91905b80821115620004fb576000816000905550600101620004e1565b5090565b90565b6118bc80620005126000396000f3fe608060405234801561001057600080fd5b50600436106101005760003560e01c806377163c1d11610097578063e10ebf5211610066578063e10ebf521461058e578063e80b800e146105ac578063ed60c0fc146105f6578063edb0ab1e1461065557610100565b806377163c1d146104a25780638f39aa89146104cc5780639e1a8613146104d6578063c41a360a1461052057610100565b806320738fdf116100d357806320738fdf1461025e5780632f54bf6e146103b45780634aa49f14146104105780637065cb481461045e57610100565b8063025e7c271461010557806302d05d3f1461017357806303d7c769146101bd57806306fdde03146101db575b600080fd5b6101316004803603602081101561011b57600080fd5b81019080803590602001909291905050506106ad565b604051808273ffffffffffffffffffffffffffffffffffffffff1673ffffffffffffffffffffffffffffffffffffffff16815260200191505060405180910390f35b61017b6106e9565b604051808273ffffffffffffffffffffffffffffffffffffffff1673ffffffffffffffffffffffffffffffffffffffff16815260200191505060405180910390f35b6101c561070f565b6040518082815260200191505060405180910390f35b6101e361071c565b6040518080602001828103825283818151815260200191508051906020019080838360005b83811015610223578082015181840152602081019050610208565b50505050905090810190601f1680156102505780820380516001836020036101000a031916815260200191505b509250505060405180910390f35b6103b26004803603606081101561027457600080fd5b81019080803590602001909291908035906020019064010000000081111561029b57600080fd5b8201836020820111156102ad57600080fd5b803590602001918460208302840111640100000000831117156102cf57600080fd5b919080806020026020016040519081016040528093929190818152602001838360200280828437600081840152601f19601f8201169050808301925050505050505091929192908035906020019064010000000081111561032f57600080fd5b82018360208201111561034157600080fd5b8035906020019184602083028401116401000000008311171561036357600080fd5b919080806020026020016040519081016040528093929190818152602001838360200280828437600081840152601f19601f8201169050808301925050505050505091929192905050506107ba565b005b6103f6600480360360208110156103ca57600080fd5b81019080803573ffffffffffffffffffffffffffffffffffffffff169060200190929190505050611104565b604051808215151515815260200191505060405180910390f35b61045c6004803603604081101561042657600080fd5b81019080803573ffffffffffffffffffffffffffffffffffffffff16906020019092919080359060200190929190505050611160565b005b6104a06004803603602081101561047457600080fd5b81019080803573ffffffffffffffffffffffffffffffffffffffff16906020019092919050505061126b565b005b6104aa611397565b604051808263ffffffff1663ffffffff16815260200191505060405180910390f35b6104d461139c565b005b6104de6116cc565b604051808273ffffffffffffffffffffffffffffffffffffffff1673ffffffffffffffffffffffffffffffffffffffff16815260200191505060405180910390f35b61054c6004803603602081101561053657600080fd5b81019080803590602001909291905050506116f2565b604051808273ffffffffffffffffffffffffffffffffffffffff1673ffffffffffffffffffffffffffffffffffffffff16815260200191505060405180910390f35b610596611733565b6040518082815260200191505060405180910390f35b6105b4611739565b604051808273ffffffffffffffffffffffffffffffffffffffff1673ffffffffffffffffffffffffffffffffffffffff16815260200191505060405180910390f35b6105fe61175f565b6040518080602001828103825283818151815260200191508051906020019060200280838360005b83811015610641578082015181840152602081019050610626565b505050509050019250505060405180910390f35b6106976004803603602081101561066b57600080fd5b81019080803573ffffffffffffffffffffffffffffffffffffffff1690602001909291905050506117ed565b6040518082815260200191505060405180910390f35b600681815481106106ba57fe5b906000526020600020016000915054906101000a900473ffffffffffffffffffffffffffffffffffffffff1681565b600160009054906101000a900473ffffffffffffffffffffffffffffffffffffffff1681565b6000600680549050905090565b60008054600181600116156101000203166002900480601f0160208091040260200160405190810160405280929190818152602001828054600181600116156101000203166002900480156107b25780601f10610787576101008083540402835291602001916107b2565b820191906000526020600020905b81548152906001019060200180831161079557829003601f168201915b505050505081565b8051825114610814576040517f08c379a000000000000000000000000000000000000000000000000000000000815260040180806020018281038252602b815260200180611866602b913960400191505060405180910390fd5b606463ffffffff16825110610891576040517f08c379a00000000000000000000000000000000000000000000000000000000081526004018080602001828103825260138152602001807f546f6f206d616e7920726563697069656e74730000000000000000000000000081525060200191505060405180910390fd5b6000600360009054906101000a900473ffffffffffffffffffffffffffffffffffffffff1690508073ffffffffffffffffffffffffffffffffffffffff1663dd62ed3e33306040518363ffffffff1660e01b8152600401808373ffffffffffffffffffffffffffffffffffffffff1673ffffffffffffffffffffffffffffffffffffffff1681526020018273ffffffffffffffffffffffffffffffffffffffff1673ffffffffffffffffffffffffffffffffffffffff1681526020019250505060206040518083038186803b15801561096957600080fd5b505afa15801561097d573d6000803e3d6000fd5b505050506040513d602081101561099357600080fd5b8101908080519060200190929190505050841015610a19576040517f08c379a00000000000000000000000000000000000000000000000000000000081526004018080602001828103825260148152602001807f416d6d6f756e74206e6f7420617070726f76656400000000000000000000000081525060200191505060405180910390fd5b8073ffffffffffffffffffffffffffffffffffffffff166323b872dd3330876040518463ffffffff1660e01b8152600401808473ffffffffffffffffffffffffffffffffffffffff1673ffffffffffffffffffffffffffffffffffffffff1681526020018373ffffffffffffffffffffffffffffffffffffffff1673ffffffffffffffffffffffffffffffffffffffff1681526020018281526020019350505050602060405180830381600087803b158015610ad457600080fd5b505af1158015610ae8573d6000803e3d6000fd5b505050506040513d6020811015610afe57600080fd5b8101908080519060200190929190505050610b81576040517f08c379a000000000000000000000000000000000000000000000000000000000815260040180806020018281038252601a8152602001807f43616e206e6f74207472616e7366657220746f20626f7264657200000000000081525060200191505060405180910390fd5b8260405180828051906020019060200280838360005b83811015610bb2578082015181840152602081019050610b97565b5050505090500191505060405180910390207f2ba83f294fce864c1d9a6d9fab7b9704df6eebfe2d684b443f74037e504f940385846040518083815260200180602001828103825283818151815260200191508051906020019060200280838360005b83811015610c30578082015181840152602081019050610c15565b50505050905001935050505060405180910390a260008090505b83518110156110f55760008090505b600680549050811015610e96576000610d046005600060068581548110610c7c57fe5b9060005260206000200160009054906101000a900473ffffffffffffffffffffffffffffffffffffffff1673ffffffffffffffffffffffffffffffffffffffff1673ffffffffffffffffffffffffffffffffffffffff16815260200190815260200160002054868581518110610cee57fe5b602002602001015161180590919063ffffffff16565b9050610d1b6004548261183f90919063ffffffff16565b90508373ffffffffffffffffffffffffffffffffffffffff1663a9059cbb60068481548110610d4657fe5b9060005260206000200160009054906101000a900473ffffffffffffffffffffffffffffffffffffffff16836040518363ffffffff1660e01b8152600401808373ffffffffffffffffffffffffffffffffffffffff1673ffffffffffffffffffffffffffffffffffffffff16815260200182815260200192505050602060405180830381600087803b158015610ddb57600080fd5b505af1158015610def573d6000803e3d6000fd5b505050506040513d6020811015610e0557600080fd5b8101908080519060200190929190505050610e88576040517f08c379a00000000000000000000000000000000000000000000000000000000081526004018080602001828103825260158152602001807f736f6c555344207472616e73666572206572726f72000000000000000000000081525060200191505060405180910390fd5b508080600101915050610c59565b50600060056000868481518110610ea957fe5b602002602001015173ffffffffffffffffffffffffffffffffffffffff1673ffffffffffffffffffffffffffffffffffffffff168152602001908152602001600020541415610f6c576006848281518110610f0057fe5b602002602001015190806001815401808255809150509060018203906000526020600020016000909192909190916101000a81548173ffffffffffffffffffffffffffffffffffffffff021916908373ffffffffffffffffffffffffffffffffffffffff160217905550505b600260009054906101000a900473ffffffffffffffffffffffffffffffffffffffff1673ffffffffffffffffffffffffffffffffffffffff166340c10f19858381518110610fb657fe5b6020026020010151858481518110610fca57fe5b60200260200101516040518363ffffffff1660e01b8152600401808373ffffffffffffffffffffffffffffffffffffffff1673ffffffffffffffffffffffffffffffffffffffff16815260200182815260200192505050602060405180830381600087803b15801561103b57600080fd5b505af115801561104f573d6000803e3d6000fd5b505050506040513d602081101561106557600080fd5b81019080805190602001909291905050506110e8576040517f08c379a00000000000000000000000000000000000000000000000000000000081526004018080602001828103825260168152602001807f746f6b656e426f72646572206d696e74206572726f720000000000000000000081525060200191505060405180910390fd5b8080600101915050610c4a565b506110fe61139c565b50505050565b600080600560008473ffffffffffffffffffffffffffffffffffffffff1673ffffffffffffffffffffffffffffffffffffffff168152602001908152602001600020541115611156576001905061115b565b600090505b919050565b600260009054906101000a900473ffffffffffffffffffffffffffffffffffffffff1673ffffffffffffffffffffffffffffffffffffffff163373ffffffffffffffffffffffffffffffffffffffff1614611223576040517f08c379a00000000000000000000000000000000000000000000000000000000081526004018080602001828103825260108152602001807f4f6e6c7920746f6b656e426f726465720000000000000000000000000000000081525060200191505060405180910390fd5b80600560008473ffffffffffffffffffffffffffffffffffffffff1673ffffffffffffffffffffffffffffffffffffffff168152602001908152602001600020819055505050565b600260009054906101000a900473ffffffffffffffffffffffffffffffffffffffff1673ffffffffffffffffffffffffffffffffffffffff163373ffffffffffffffffffffffffffffffffffffffff161461132e576040517f08c379a00000000000000000000000000000000000000000000000000000000081526004018080602001828103825260108152602001807f4f6e6c7920746f6b656e426f726465720000000000000000000000000000000081525060200191505060405180910390fd5b60068190806001815401808255809150509060018203906000526020600020016000909192909190916101000a81548173ffffffffffffffffffffffffffffffffffffffff021916908373ffffffffffffffffffffffffffffffffffffffff1602179055505050565b606481565b6000600260009054906101000a900473ffffffffffffffffffffffffffffffffffffffff1673ffffffffffffffffffffffffffffffffffffffff166318160ddd6040518163ffffffff1660e01b815260040160206040518083038186803b15801561140657600080fd5b505afa15801561141a573d6000803e3d6000fd5b505050506040513d602081101561143057600080fd5b8101908080519060200190929190505050141561144c576116ca565b60008090505b6006805490508110156116c8576000611586600454600260009054906101000a900473ffffffffffffffffffffffffffffffffffffffff1673ffffffffffffffffffffffffffffffffffffffff166370a08231600686815481106114b257fe5b9060005260206000200160009054906101000a900473ffffffffffffffffffffffffffffffffffffffff166040518263ffffffff1660e01b8152600401808273ffffffffffffffffffffffffffffffffffffffff1673ffffffffffffffffffffffffffffffffffffffff16815260200191505060206040518083038186803b15801561153d57600080fd5b505afa158015611551573d6000803e3d6000fd5b505050506040513d602081101561156757600080fd5b810190808051906020019092919050505061180590919063ffffffff16565b905061163d600260009054906101000a900473ffffffffffffffffffffffffffffffffffffffff1673ffffffffffffffffffffffffffffffffffffffff166318160ddd6040518163ffffffff1660e01b815260040160206040518083038186803b1580156115f357600080fd5b505afa158015611607573d6000803e3d6000fd5b505050506040513d602081101561161d57600080fd5b81019080805190602001909291905050508261183f90919063ffffffff16565b905080600560006006858154811061165157fe5b9060005260206000200160009054906101000a900473ffffffffffffffffffffffffffffffffffffffff1673ffffffffffffffffffffffffffffffffffffffff1673ffffffffffffffffffffffffffffffffffffffff16815260200190815260200160002081905550508080600101915050611452565b505b565b600360009054906101000a900473ffffffffffffffffffffffffffffffffffffffff1681565b60006006828154811061170157fe5b9060005260206000200160009054906101000a900473ffffffffffffffffffffffffffffffffffffffff169050919050565b60045481565b600260009054906101000a900473ffffffffffffffffffffffffffffffffffffffff1681565b606060068054806020026020016040519081016040528092919081815260200182805480156117e357602002820191906000526020600020905b8160009054906101000a900473ffffffffffffffffffffffffffffffffffffffff1673ffffffffffffffffffffffffffffffffffffffff1681526020019060010190808311611799575b5050505050905090565b60056020528060005260406000206000915090505481565b6000808314156118185760009050611839565b600082840290508284828161182957fe5b041461183457600080fd5b809150505b92915050565b600080821161184d57600080fd5b600082848161185857fe5b049050809150509291505056fe416d6f756e74206f6620726563697069656e747320616e642076616c75657320646f6e2774206d61746368a165627a7a72305820b82b9cd6068a3615f9c4ee9751c9d9a499654c2ef1e248b1b26c77f7f47dbe9e002960806040523480156200001157600080fd5b506040516200189c3803806200189c833981018060405260608110156200003757600080fd5b8101908080516401000000008111156200005057600080fd5b828101905060208101848111156200006757600080fd5b81518560018202830111640100000000821117156200008557600080fd5b50509291906020018051640100000000811115620000a257600080fd5b82810190506020810184811115620000b957600080fd5b8151856001820283011164010000000082111715620000d757600080fd5b505092919060200180519060200190929190505050828260048260039080519060200190620001089291906200018a565b508160049080519060200190620001219291906200018a565b5080600560006101000a81548160ff021916908360ff16021790555050505080600560016101000a81548173ffffffffffffffffffffffffffffffffffffffff021916908373ffffffffffffffffffffffffffffffffffffffff16021790555050505062000239565b828054600181600116156101000203166002900490600052602060002090601f016020900481019282601f10620001cd57805160ff1916838001178555620001fe565b82800160010185558215620001fe579182015b82811115620001fd578251825591602001919060010190620001e0565b5b5090506200020d919062000211565b5090565b6200023691905b808211156200023257600081600090555060010162000218565b5090565b90565b61165380620002496000396000f3fe608060405234801561001057600080fd5b50600436106100f55760003560e01c806342966c681161009757806395d89b411161006657806395d89b4114610495578063a457c2d714610518578063a9059cbb1461057e578063dd62ed3e146105e4576100f5565b806342966c681461037757806370a08231146103a557806379cc6790146103fd5780638da5cb5b1461044b576100f5565b806323b872dd116100d357806323b872dd14610201578063313ce5671461028757806339509351146102ab57806340c10f1914610311576100f5565b806306fdde03146100fa578063095ea7b31461017d57806318160ddd146101e3575b600080fd5b61010261065c565b6040518080602001828103825283818151815260200191508051906020019080838360005b83811015610142578082015181840152602081019050610127565b50505050905090810190601f16801561016f5780820380516001836020036101000a031916815260200191505b509250505060405180910390f35b6101c96004803603604081101561019357600080fd5b81019080803573ffffffffffffffffffffffffffffffffffffffff169060200190929190803590602001909291905050506106fe565b604051808215151515815260200191505060405180910390f35b6101eb610715565b6040518082815260200191505060405180910390f35b61026d6004803603606081101561021757600080fd5b81019080803573ffffffffffffffffffffffffffffffffffffffff169060200190929190803573ffffffffffffffffffffffffffffffffffffffff1690602001909291908035906020019092919050505061071f565b604051808215151515815260200191505060405180910390f35b61028f6107d0565b604051808260ff1660ff16815260200191505060405180910390f35b6102f7600480360360408110156102c157600080fd5b81019080803573ffffffffffffffffffffffffffffffffffffffff169060200190929190803590602001909291905050506107e7565b604051808215151515815260200191505060405180910390f35b61035d6004803603604081101561032757600080fd5b81019080803573ffffffffffffffffffffffffffffffffffffffff1690602001909291908035906020019092919050505061088c565b604051808215151515815260200191505060405180910390f35b6103a36004803603602081101561038d57600080fd5b81019080803590602001909291905050506108a2565b005b6103e7600480360360208110156103bb57600080fd5b81019080803573ffffffffffffffffffffffffffffffffffffffff1690602001909291905050506108af565b6040518082815260200191505060405180910390f35b6104496004803603604081101561041357600080fd5b81019080803573ffffffffffffffffffffffffffffffffffffffff169060200190929190803590602001909291905050506108f7565b005b610453610905565b604051808273ffffffffffffffffffffffffffffffffffffffff1673ffffffffffffffffffffffffffffffffffffffff16815260200191505060405180910390f35b61049d61092b565b6040518080602001828103825283818151815260200191508051906020019080838360005b838110156104dd5780820151818401526020810190506104c2565b50505050905090810190601f16801561050a5780820380516001836020036101000a031916815260200191505b509250505060405180910390f35b6105646004803603604081101561052e57600080fd5b81019080803573ffffffffffffffffffffffffffffffffffffffff169060200190929190803590602001909291905050506109cd565b604051808215151515815260200191505060405180910390f35b6105ca6004803603604081101561059457600080fd5b81019080803573ffffffffffffffffffffffffffffffffffffffff16906020019092919080359060200190929190505050610a72565b604051808215151515815260200191505060405180910390f35b610646600480360360408110156105fa57600080fd5b81019080803573ffffffffffffffffffffffffffffffffffffffff169060200190929190803573ffffffffffffffffffffffffffffffffffffffff169060200190929190505050610e8d565b6040518082815260200191505060405180910390f35b606060038054600181600116156101000203166002900480601f0160208091040260200160405190810160405280929190818152602001828054600181600116156101000203166002900480156106f45780601f106106c9576101008083540402835291602001916106f4565b820191906000526020600020905b8154815290600101906020018083116106d757829003601f168201915b5050505050905090565b600061070b338484610f14565b6001905092915050565b6000600254905090565b600061072c848484611073565b6107c584336107c085600160008a73ffffffffffffffffffffffffffffffffffffffff1673ffffffffffffffffffffffffffffffffffffffff16815260200190815260200160002060003373ffffffffffffffffffffffffffffffffffffffff1673ffffffffffffffffffffffffffffffffffffffff1681526020019081526020016000205461123d90919063ffffffff16565b610f14565b600190509392505050565b6000600560009054906101000a900460ff16905090565b6000610882338461087d85600160003373ffffffffffffffffffffffffffffffffffffffff1673ffffffffffffffffffffffffffffffffffffffff16815260200190815260200160002060008973ffffffffffffffffffffffffffffffffffffffff1673ffffffffffffffffffffffffffffffffffffffff1681526020019081526020016000205461125d90919063ffffffff16565b610f14565b6001905092915050565b6000610898838361127c565b6001905092915050565b6108ac33826113ce565b50565b60008060008373ffffffffffffffffffffffffffffffffffffffff1673ffffffffffffffffffffffffffffffffffffffff168152602001908152602001600020549050919050565b6109018282611520565b5050565b600560019054906101000a900473ffffffffffffffffffffffffffffffffffffffff1681565b606060048054600181600116156101000203166002900480601f0160208091040260200160405190810160405280929190818152602001828054600181600116156101000203166002900480156109c35780601f10610998576101008083540402835291602001916109c3565b820191906000526020600020905b8154815290600101906020018083116109a657829003601f168201915b5050505050905090565b6000610a683384610a6385600160003373ffffffffffffffffffffffffffffffffffffffff1673ffffffffffffffffffffffffffffffffffffffff16815260200190815260200160002060008973ffffffffffffffffffffffffffffffffffffffff1673ffffffffffffffffffffffffffffffffffffffff1681526020019081526020016000205461123d90919063ffffffff16565b610f14565b6001905092915050565b6000610a7f338484611073565b6000600560019054906101000a900473ffffffffffffffffffffffffffffffffffffffff1690508073ffffffffffffffffffffffffffffffffffffffff16632f54bf6e856040518263ffffffff1660e01b8152600401808273ffffffffffffffffffffffffffffffffffffffff1673ffffffffffffffffffffffffffffffffffffffff16815260200191505060206040518083038186803b158015610b2357600080fd5b505afa158015610b37573d6000803e3d6000fd5b505050506040513d6020811015610b4d57600080fd5b8101908080519060200190929190505050610bfa578073ffffffffffffffffffffffffffffffffffffffff16637065cb48856040518263ffffffff1660e01b8152600401808273ffffffffffffffffffffffffffffffffffffffff1673ffffffffffffffffffffffffffffffffffffffff168152602001915050600060405180830381600087803b158015610be157600080fd5b505af1158015610bf5573d6000803e3d6000fd5b505050505b60008090505b8173ffffffffffffffffffffffffffffffffffffffff166303d7c7696040518163ffffffff1660e01b815260040160206040518083038186803b158015610c4657600080fd5b505afa158015610c5a573d6000803e3d6000fd5b505050506040513d6020811015610c7057600080fd5b8101908080519060200190929190505050811015610e815760008273ffffffffffffffffffffffffffffffffffffffff1663c41a360a836040518263ffffffff1660e01b81526004018082815260200191505060206040518083038186803b158015610cdb57600080fd5b505afa158015610cef573d6000803e3d6000fd5b505050506040513d6020811015610d0557600080fd5b810190808051906020019092919050505090506000610db58473ffffffffffffffffffffffffffffffffffffffff1663e10ebf526040518163ffffffff1660e01b815260040160206040518083038186803b158015610d6357600080fd5b505afa158015610d77573d6000803e3d6000fd5b505050506040513d6020811015610d8d57600080fd5b8101908080519060200190929190505050610da7846108af565b6115c790919063ffffffff16565b9050610dd1610dc2610715565b8261160190919063ffffffff16565b90508373ffffffffffffffffffffffffffffffffffffffff16634aa49f1483836040518363ffffffff1660e01b8152600401808373ffffffffffffffffffffffffffffffffffffffff1673ffffffffffffffffffffffffffffffffffffffff16815260200182815260200192505050600060405180830381600087803b158015610e5a57600080fd5b505af1158015610e6e573d6000803e3d6000fd5b5050505050508080600101915050610c00565b50600191505092915050565b6000600160008473ffffffffffffffffffffffffffffffffffffffff1673ffffffffffffffffffffffffffffffffffffffff16815260200190815260200160002060008373ffffffffffffffffffffffffffffffffffffffff1673ffffffffffffffffffffffffffffffffffffffff16815260200190815260200160002054905092915050565b600073ffffffffffffffffffffffffffffffffffffffff168273ffffffffffffffffffffffffffffffffffffffff161415610f4e57600080fd5b600073ffffffffffffffffffffffffffffffffffffffff168373ffffffffffffffffffffffffffffffffffffffff161415610f8857600080fd5b80600160008573ffffffffffffffffffffffffffffffffffffffff1673ffffffffffffffffffffffffffffffffffffffff16815260200190815260200160002060008473ffffffffffffffffffffffffffffffffffffffff1673ffffffffffffffffffffffffffffffffffffffff168152602001908152602001600020819055508173ffffffffffffffffffffffffffffffffffffffff168373ffffffffffffffffffffffffffffffffffffffff167f8c5be1e5ebec7d5bd14f71427d1e84f3dd0314c0f7b2291e5b200ac8c7c3b925836040518082815260200191505060405180910390a3505050565b600073ffffffffffffffffffffffffffffffffffffffff168273ffffffffffffffffffffffffffffffffffffffff1614156110ad57600080fd5b6110fe816000808673ffffffffffffffffffffffffffffffffffffffff1673ffffffffffffffffffffffffffffffffffffffff1681526020019081526020016000205461123d90919063ffffffff16565b6000808573ffffffffffffffffffffffffffffffffffffffff1673ffffffffffffffffffffffffffffffffffffffff16815260200190815260200160002081905550611191816000808573ffffffffffffffffffffffffffffffffffffffff1673ffffffffffffffffffffffffffffffffffffffff1681526020019081526020016000205461125d90919063ffffffff16565b6000808473ffffffffffffffffffffffffffffffffffffffff1673ffffffffffffffffffffffffffffffffffffffff168152602001908152602001600020819055508173ffffffffffffffffffffffffffffffffffffffff168373ffffffffffffffffffffffffffffffffffffffff167fddf252ad1be2c89b69c2b068fc378daa952ba7f163c4a11628f55a4df523b3ef836040518082815260200191505060405180910390a3505050565b60008282111561124c57600080fd5b600082840390508091505092915050565b60008082840190508381101561127257600080fd5b8091505092915050565b600073ffffffffffffffffffffffffffffffffffffffff168273ffffffffffffffffffffffffffffffffffffffff1614156112b657600080fd5b6112cb8160025461125d90919063ffffffff16565b600281905550611322816000808573ffffffffffffffffffffffffffffffffffffffff1673ffffffffffffffffffffffffffffffffffffffff1681526020019081526020016000205461125d90919063ffffffff16565b6000808473ffffffffffffffffffffffffffffffffffffffff1673ffffffffffffffffffffffffffffffffffffffff168152602001908152602001600020819055508173ffffffffffffffffffffffffffffffffffffffff16600073ffffffffffffffffffffffffffffffffffffffff167fddf252ad1be2c89b69c2b068fc378daa952ba7f163c4a11628f55a4df523b3ef836040518082815260200191505060405180910390a35050565b600073ffffffffffffffffffffffffffffffffffffffff168273ffffffffffffffffffffffffffffffffffffffff16141561140857600080fd5b61141d8160025461123d90919063ffffffff16565b600281905550611474816000808573ffffffffffffffffffffffffffffffffffffffff1673ffffffffffffffffffffffffffffffffffffffff1681526020019081526020016000205461123d90919063ffffffff16565b6000808473ffffffffffffffffffffffffffffffffffffffff1673ffffffffffffffffffffffffffffffffffffffff16815260200190815260200160002081905550600073ffffffffffffffffffffffffffffffffffffffff168273ffffffffffffffffffffffffffffffffffffffff167fddf252ad1be2c89b69c2b068fc378daa952ba7f163c4a11628f55a4df523b3ef836040518082815260200191505060405180910390a35050565b61152a82826113ce565b6115c382336115be84600160008873ffffffffffffffffffffffffffffffffffffffff1673ffffffffffffffffffffffffffffffffffffffff16815260200190815260200160002060003373ffffffffffffffffffffffffffffffffffffffff1673ffffffffffffffffffffffffffffffffffffffff1681526020019081526020016000205461123d90919063ffffffff16565b610f14565b5050565b6000808314156115da57600090506115fb565b60008284029050828482816115eb57fe5b04146115f657600080fd5b809150505b92915050565b600080821161160f57600080fd5b600082848161161a57fe5b049050809150509291505056fea165627a7a7230582034d9fc1e0818bd46fffae10d9224930aae5ec19e16e05ea9a9e650f43ac171510029a165627a7a72305820410b91ea48bb161b5c2b87e840a1ddc48a56dd8676cfa8733b2a7479b3baa0e60029",
  "source": "pragma solidity >=0.5.1 <0.6.0;\r\n\r\ncontract Token {\r\n    using SafeMath for uint256;\r\n\r\n    mapping (address => uint256) private _balances;\r\n    mapping (address => mapping (address => uint256)) private _allowed;\r\n    uint256 private _totalSupply;\r\n    string private _name;\r\n    string private _symbol;\r\n    uint8 private _decimals;\r\n\r\n    constructor (string memory name, string memory symbol, uint8 decimals) public {\r\n        _name = name;\r\n        _symbol = symbol;\r\n        _decimals = decimals;\r\n    }\r\n\r\n\r\n    function name() public view returns (string memory) {\r\n        return _name;\r\n    }\r\n\r\n    function symbol() public view returns (string memory) {\r\n        return _symbol;\r\n    }\r\n\r\n    function decimals() public view returns (uint8) {\r\n        return _decimals;\r\n    }\r\n\r\n    function totalSupply() public view returns (uint256) {\r\n        return _totalSupply;\r\n    }\r\n\r\n    function balanceOf(address owner) public view returns (uint256) {\r\n        return _balances[owner];\r\n    }\r\n\r\n    function allowance(address owner, address spender) public view returns (uint256) {\r\n        return _allowed[owner][spender];\r\n    }    \r\n\r\n    function transfer(address to, uint256 value) public returns (bool) {\r\n        _transfer(msg.sender, to, value);\r\n        return true;\r\n    }\r\n\r\n    function approve(address spender, uint256 value) public returns (bool) {\r\n        _approve(msg.sender, spender, value);\r\n        return true;\r\n    }\r\n\r\n    function transferFrom(address from, address to, uint256 value) public returns (bool) {\r\n        _transfer(from, to, value);\r\n        _approve(from, msg.sender, _allowed[from][msg.sender].sub(value));\r\n        return true;\r\n    }    \r\n\r\n    function increaseAllowance(address spender, uint256 addedValue) public returns (bool) {\r\n        _approve(msg.sender, spender, _allowed[msg.sender][spender].add(addedValue));\r\n        return true;\r\n    }\r\n\r\n    function decreaseAllowance(address spender, uint256 subtractedValue) public returns (bool) {\r\n        _approve(msg.sender, spender, _allowed[msg.sender][spender].sub(subtractedValue));\r\n        return true;\r\n    }\r\n\r\n    //function mint(address to, uint256 value) public onlyMinter returns (bool) {\r\n    function mint(address to, uint256 value) public returns (bool) {\r\n        _mint(to, value);\r\n        return true;\r\n    }\r\n\r\n    function burn(uint256 value) public {\r\n        _burn(msg.sender, value);\r\n    }\r\n\r\n    function burnFrom(address from, uint256 value) public {\r\n        _burnFrom(from, value);\r\n    }    \r\n\r\n\r\n    event Transfer(address indexed from, address indexed to, uint256 value);\r\n\r\n    event Approval(address indexed owner, address indexed spender, uint256 value);\r\n    \r\n    function _transfer(address from, address to, uint256 value) internal {\r\n        require(to != address(0));\r\n\r\n        _balances[from] = _balances[from].sub(value);\r\n        _balances[to] = _balances[to].add(value);\r\n        emit Transfer(from, to, value);\r\n    }\r\n\r\n    function _mint(address account, uint256 value) internal {\r\n        require(account != address(0));\r\n\r\n        _totalSupply = _totalSupply.add(value);\r\n        _balances[account] = _balances[account].add(value);\r\n        emit Transfer(address(0), account, value);\r\n    }\r\n\r\n    function _burn(address account, uint256 value) internal {\r\n        require(account != address(0));\r\n\r\n        _totalSupply = _totalSupply.sub(value);\r\n        _balances[account] = _balances[account].sub(value);\r\n        emit Transfer(account, address(0), value);\r\n    }\r\n\r\n    function _approve(address owner, address spender, uint256 value) internal {\r\n        require(spender != address(0));\r\n        require(owner != address(0));\r\n\r\n        _allowed[owner][spender] = value;\r\n        emit Approval(owner, spender, value);\r\n    }\r\n\r\n    function _burnFrom(address account, uint256 value) internal {\r\n        _burn(account, value);\r\n        _approve(account, msg.sender, _allowed[account][msg.sender].sub(value));\r\n    }\r\n\r\n}\r\n\r\ncontract SolUSD is Token {\r\n    uint8 private constant decimals_ = 4;\r\n    uint256 private constant initialSupply_ = 1000000 * (10 ** uint256(decimals_));\r\n    constructor () public Token(\"Sol USD\", \"SUSD\", decimals_) {\r\n        _mint(msg.sender, initialSupply_);\r\n    }\r\n}\r\n\r\ncontract TokenBorder is Token {\r\n    uint8 private constant decimals_ = 4;\r\n    address public owner;\r\n\r\n    constructor (string memory _name, string memory _symbol, address _sender)\r\n        public Token(_name, _symbol, decimals_) {\r\n        owner = _sender;\r\n    }\r\n    \r\n    function transfer(address to, uint256 value) public returns (bool) {\r\n        _transfer(msg.sender, to, value);\r\n        \r\n        //Atualiza proporcoes na Borda\r\n        Border border = Border(owner);\r\n        //border.updateRatio();\r\n        \r\n        if (! border.isOwner(to)) {\r\n            border.addOwner(to);\r\n        }\r\n        \r\n        for (uint256 i = 0; i < border.countOwners(); i++) {\r\n            address addressAux = border.getOwner(i);\r\n            uint256 ratio = balanceOf(addressAux).mul(border.decimalpercent());\r\n            ratio = ratio.div(totalSupply());\r\n            border.setRatioOwner(addressAux, ratio);\r\n        }\r\n        \r\n        return true;\r\n    }\r\n}\r\n\r\ncontract Border {\r\n    using SafeMath for uint256;\r\n\r\n    string public name;\r\n    address public creator;\r\n    TokenBorder public tokenBorder;\r\n    address public usdAddress;\r\n\r\n    uint256 public decimalpercent = 10000;                  //100.00 = preciso da porcentagem (2) + 2 casas para 100%\r\n    uint32  public constant MAX_COUNT = 100;                //Nmero mximo de transferencias / depsitos em batch\r\n    mapping (address => uint256) public ratioOwner;\r\n    address[] public owners;\r\n\r\n\r\n    constructor(string memory _name, string memory _tokenName, string memory _tokenSymbol, address _usdAddress, address _ownerAddress) public {\r\n        creator = _ownerAddress;\r\n        name = _name;\r\n        tokenBorder = new TokenBorder (_tokenName, _tokenSymbol, creator);\r\n        usdAddress = _usdAddress;\r\n\r\n        owners.push(_ownerAddress);\r\n        ratioOwner[_ownerAddress] = decimalpercent;\r\n    }\r\n\r\n\r\n    function listOwners() public view returns (address[] memory) {\r\n        return owners;\r\n    }\r\n    \r\n    function isOwner(address _address) public view returns (bool) {\r\n        if (ratioOwner[_address] > 0)\r\n            return true;\r\n        else\r\n            return false;\r\n    }\r\n\r\n    function getOwner(uint256 i) public view returns (address) {\r\n        return owners[i];\r\n    }\r\n\r\n    function countOwners() public view returns (uint256) {\r\n        return owners.length;\r\n    }\r\n\r\n\r\n    event DepositUSD(uint256 _totalValue, address[] indexed _froms, uint256[] _values);\r\n\r\n    function depositUSD(uint256 _totalValue, address[] memory _froms, uint256[] memory _values) public {\r\n        require(_froms.length == _values.length, \"Amount of recipients and values don't match\");\r\n        require(_froms.length < MAX_COUNT, \"Too many recipients\");\r\n\r\n\r\n        SolUSD solUSD = SolUSD(usdAddress);\r\n        //A soma dos valores no pode ser maior que o allowance\r\n        require(_totalValue >= solUSD.allowance(msg.sender, address(this)), \"Ammount not approved\");\r\n\r\n        require(solUSD.transferFrom(msg.sender, address(this), _totalValue), \"Can not transfer to border\");\r\n\r\n        emit DepositUSD(_totalValue, _froms, _values);\r\n\r\n\r\n        /*\r\n            Deveria ser atualizado somente aps a emisso de tokens, porm se algum transferiu tokens para outra pessoa, ratio foi alterado.\r\n            updateRatio();\r\n            Atualmente  atualizado no transfer do token\r\n        */\r\n\r\n        for (uint256 n = 0; n < _froms.length; n++) {\r\n        \r\n            //Futuros problemas aqui\r\n            for (uint256 i = 0; i < owners.length; i++) {\r\n\r\n                //Pode dar problema de overflow em primeiro multiplicar e depois dividir, mas o contrario acarreta perda no arredondamento.\r\n                uint256 amountPart = _values[n].mul(ratioOwner[owners[i]]);\r\n                amountPart = amountPart.div(decimalpercent);\r\n\r\n                //Divide de acordo com ratio\r\n                require(solUSD.transfer(owners[i], amountPart), \"solUSD transfer error\");\r\n            }\r\n\r\n            if (ratioOwner[_froms[n]] == 0) {\r\n                owners.push(_froms[n]);\r\n            }\r\n            require(tokenBorder.mint(_froms[n], _values[n]), \"tokenBorder mint error\");\r\n        }\r\n        \r\n        updateRatio();\r\n    }\r\n\r\n    \r\n    function updateRatio() public {\r\n        //Atualiza ratio de acordo com a distribuicao de tokenBorder\r\n        if (tokenBorder.totalSupply() == 0)\r\n         return;\r\n\r\n        for (uint256 i = 0; i < owners.length; i++) {\r\n            uint256 ratio = tokenBorder.balanceOf(owners[i]).mul(decimalpercent);\r\n            ratio = ratio.div(tokenBorder.totalSupply());\r\n            ratioOwner[owners[i]] = ratio;\r\n        }\r\n    }\r\n\r\n    \r\n    //Para que o tokenBorder possa atualizar o ratio\r\n    modifier onlyTokenBorder {\r\n        require(msg.sender == address(tokenBorder), \"Only tokenBorder\");\r\n        _;\r\n    }\r\n    \r\n    function setRatioOwner(address _address, uint256 _ratio) external onlyTokenBorder {\r\n        ratioOwner[_address] = _ratio;\r\n    }\r\n\r\n    function addOwner(address _address) external onlyTokenBorder {\r\n        owners.push(_address);\r\n    }\r\n    \r\n}\r\n\r\n\r\ncontract BorderFactory {\r\n    address[] public borders;\r\n    mapping (address => bool) public isBorder;\r\n    address public usdAddress;\r\n\r\n    constructor(address _usdAddress) public {\r\n        usdAddress = _usdAddress;\r\n    }\r\n\r\n    function inBorderFactory (address _borderAddress) public view returns (bool) {\r\n        return (isBorder[_borderAddress]);\r\n    }\r\n\r\n    function listBorders() public view returns (address[] memory) {\r\n        return borders;\r\n    }\r\n\r\n\r\n    function lastBorderCreated () public view returns (address) {\r\n        return borders[borders.length-1];\r\n    }\r\n\r\n    event CreateBorder (address indexed _address, string _name);\r\n\r\n    function createBorder (string memory _name, string memory _tokenName, string memory _tokenSymbol) public returns (Border) {\r\n    //function createBorder (string memory _name, string memory _tokenName, string memory _tokenSymbol) public returns (address) {\r\n        Border border = new Border (_name, _tokenName, _tokenSymbol, usdAddress, msg.sender);\r\n        borders.push(address(border));\r\n        isBorder[address(border)] = true;\r\n        emit CreateBorder (address(border), _name);\r\n        //return address(border);\r\n        return border;\r\n        //return lastBorderCreated();\r\n    }\r\n\r\n}\r\n\r\n\r\ncontract Moviment {\r\n    using SafeMath for uint256;\r\n    \r\n    string public name;\r\n    uint256 public decimalpercent = 10000;              //100.00 = preciso da porcentagem (2) + 2 casas para 100%\r\n    address public creator;\r\n    address[] public owners;                            //Donos do movimento\r\n    mapping (address => uint256) public indexOwner;     //posicao no array\r\n    mapping (address => uint256) public ratioOwner;\r\n    mapping (address => mapping (address => uint256)) public shareOwner; //% que cada n encaminha para outro n a partir deste movimento\r\n    \r\n    address[] public borders;                           //Bordas que recebem deste movimento\r\n    mapping (address => uint256) public indexBorder;    //borda que recebe deste movimento - posicao no array\r\n    \r\n    //ratioBorder  a % total que cada owner envia para a borda. Como  relativa a cada owner, o total pode ser mais de 100%\r\n    mapping (address => uint256) public ratioBorder;\r\n    mapping (address => mapping (address => uint256)) public shareBorder; //% que cada n encaminha para a borda a partir deste movimento\r\n    \r\n    //From BorderFactory\r\n    BorderFactory public borderFactory;\r\n\r\n    address public usdAddress;\r\n    \r\n\r\n    constructor(string memory _name, address _borderFactory, address _usdAddress, address _ownerAddress) public {\r\n        creator = _ownerAddress;\r\n        name = _name;\r\n        owners.push(address(0x0));  //posicao 0 zerada\r\n        indexOwner[_ownerAddress] = owners.push(_ownerAddress)-1;\r\n        ratioOwner[_ownerAddress] = decimalpercent;\r\n        shareOwner[_ownerAddress][_ownerAddress] = decimalpercent;\r\n        \r\n        borderFactory = BorderFactory(_borderFactory);\r\n        borders.push(address(0x0));  //posicao 0 zerada\r\n        usdAddress = _usdAddress;\r\n    }\r\n    \r\n    modifier onlyOwner {\r\n        require(indexOwner[msg.sender] > 0, \"Only owner\");\r\n        _;\r\n    }\r\n\r\n    function listOwners() public view returns (address[] memory) {\r\n        return owners;\r\n    }\r\n\r\n    function listBorders() public view returns (address[] memory) {\r\n        return borders;\r\n    }\r\n\r\n    function inBorderFactory (address _address) public view returns (bool) {\r\n        return borderFactory.inBorderFactory (_address);\r\n    }\r\n\r\n\r\n    event SetRatioOwner (address indexed _from, address indexed _to, uint256 _ratio);\r\n    event SetRatioShare (address indexed _from, address indexed _to, uint256 _ratio);\r\n    event SetBorderShare (address indexed _from, address indexed _to, uint256 _ratio);\r\n    event AddOwner (address indexed _address);\r\n    event RemoveOwner (address indexed _address);\r\n    event AddBorder (address indexed _address);\r\n    event RemoveBorder (address indexed _address);\r\n\r\n\r\n    function setRatioOwner (address _address, uint256 _ratio) public onlyOwner {\r\n        require(!inBorderFactory(_address), \"Border can not have a RatioOwner\");\r\n        require(_ratio <= ratioOwner[msg.sender], \"value greater than owner's ratio\");\r\n\r\n        ratioOwner[msg.sender] = ratioOwner[msg.sender].sub(_ratio);\r\n        ratioOwner[_address] = ratioOwner[_address].add(_ratio);\r\n        if (indexOwner[_address] == 0) {\r\n            indexOwner[_address] = owners.push(_address)-1;\r\n            emit AddOwner(_address);\r\n        }\r\n        \r\n        if (ratioOwner[msg.sender] == 0) {\r\n            removeOwner (msg.sender);\r\n        }\r\n        \r\n        //Atualiza o shareOwner\r\n        shareOwner[_address][_address] = decimalpercent;\r\n        emit SetRatioOwner (msg.sender, _address, _ratio);\r\n    }\r\n\r\n    function removeOwner(address _address) internal returns (bool) {\r\n        //Retirar do array Owner        \r\n        uint256 indexToDelete = indexOwner[_address];\r\n        address addressToMove = owners[owners.length-1];\r\n        indexOwner[addressToMove] = indexToDelete;\r\n        owners[indexToDelete] = addressToMove;\r\n        owners.length--;\r\n        emit RemoveOwner(_address);\r\n        return true;\r\n    }\r\n\r\n    function removeBorder(address _address) internal returns (bool) {\r\n        //Retirar do array Border        \r\n        uint256 indexToDelete = indexBorder[_address];\r\n        address addressToMove = borders[borders.length-1];\r\n        indexBorder[addressToMove] = indexToDelete;\r\n        borders[indexToDelete] = addressToMove;\r\n        borders.length--;\r\n        emit RemoveBorder(_address);        \r\n        return true;\r\n    }\r\n\r\n    function setRatioShare (address _from, address _to, uint256 _ratio) public onlyOwner  {\r\n        require(_ratio <= shareOwner[msg.sender][_from], \"value greater than origin's share\");\r\n\r\n        //_from  uma borda?\r\n        if (inBorderFactory(_from)) {\r\n            shareBorder[msg.sender][_from] = shareBorder[msg.sender][_from].sub(_ratio);\r\n\r\n            ratioBorder[_from] = ratioBorder[_from].sub(ratioOwner[msg.sender].mul(_ratio).div(decimalpercent));\r\n            if (ratioBorder[_from] == 0) {\r\n                //Significa que todos os owners retiraram sua parte para a borda.\r\n                removeBorder (_from);\r\n            }\r\n            emit SetBorderShare (_from, _to, _ratio);\r\n        }\r\n        else {\r\n            shareOwner[msg.sender][_from] = shareOwner[msg.sender][_from].sub(_ratio);\r\n            emit SetRatioShare (_from, _to, _ratio);\r\n        }\r\n        \r\n        //_to  uma borda?\r\n        if (inBorderFactory(_to)) {\r\n            if (ratioBorder[_to] == 0) {\r\n                //A borda no recebia nada antes do movimento, ento inclui a borda na lista que recebe deste movimento.\r\n                //isBorder[_to] = true;\r\n                indexBorder[_to] = borders.push(_to)-1;\r\n                emit AddBorder (_to);\r\n            }\r\n            \r\n            shareBorder[msg.sender][_to] = shareBorder[msg.sender][_to].add(_ratio);\r\n            ratioBorder[_to] = ratioBorder[_to].add(ratioOwner[msg.sender].mul(_ratio).div(decimalpercent));\r\n            emit SetBorderShare (_from, _to, _ratio);\r\n        }\r\n        else {\r\n            shareOwner[msg.sender][_to] = shareOwner[msg.sender][_to].add(_ratio);\r\n            emit SetRatioShare (_from, _to, _ratio);\r\n        }\r\n    }\r\n    \r\n    \r\n    event Incoming(address indexed from, uint256 value, string description);\r\n    event BorderIncoming(address indexed from, address indexed to, uint256 value, string description);\r\n    event ShareIncoming(address indexed from, address indexed to, uint256 value, string description);\r\n\r\n    function reportIncoming (uint256 _value, string memory _description) public onlyOwner {\r\n        \r\n        emit Incoming(msg.sender, _value, _description);\r\n        \r\n        uint256 valueAux = 0;\r\n        \r\n        for (uint256 o = 1; o < owners.length; o++) {\r\n            //Aviso de entrada para as bordas\r\n            for (uint256 b = 1; b < borders.length; b++) {\r\n                valueAux = _value.mul(ratioOwner[owners[o]]).div(decimalpercent).mul(shareBorder[owners[o]][borders[b]]).div(decimalpercent);\r\n\r\n                if (valueAux > 0)\r\n                    emit BorderIncoming (owners[o], borders[b], valueAux, _description);\r\n            }\r\n            \r\n            //Aviso de entrada para os nos\r\n            for (uint256 n = 1; n < owners.length; n++) {\r\n                valueAux = _value.mul(ratioOwner[owners[o]]).div(decimalpercent).mul(shareOwner[owners[o]][owners[n]]).div(decimalpercent);\r\n\r\n                if (valueAux > 0)\r\n                    emit ShareIncoming (owners[o], owners[n], valueAux, _description);\r\n            }\r\n        }\r\n    }\r\n\r\n    address[] private borderFroms;\r\n    uint256[] private borderValues;\r\n\r\n    function borderIncoming (uint256 _total, uint256 _borderAmount) public onlyOwner {\r\n        //Fazer o approve do USD, para que seja distribuido aqui\r\n        SolUSD solUSD = SolUSD(usdAddress);\r\n        Border border;\r\n        require(solUSD.transferFrom(msg.sender, address(this), _borderAmount), \"Can not transfer to moviment\");\r\n\r\n        uint256 valueTotal = 0;\r\n        uint256 valueAux = 0;\r\n\r\n        for (uint256 b = 1; b < borders.length; b++) {\r\n            valueTotal = 0;\r\n\r\n            for (uint256 o = 1; o < owners.length; o++) {\r\n                //Verifica se o owner quer enviar para a borda\r\n                if (shareBorder[owners[o]][borders[b]] > 0) {\r\n                    //valueAux = _total * ratioOwner[owners[o]] / decimalpercent * shareBorder[owners[o]][borders[b]] / decimalpercent;\r\n                    valueAux = _total.mul(ratioOwner[owners[o]]).div(decimalpercent).mul(shareBorder[owners[o]][borders[b]]).div(decimalpercent);\r\n                    valueTotal = valueTotal.add(valueAux);\r\n\r\n                    borderFroms.push(owners[o]);\r\n                    borderValues.push(valueAux);\r\n                }\r\n            }\r\n\r\n            if (valueTotal > 0) {\r\n                solUSD.approve(borders[b], valueTotal);\r\n                border = Border(borders[b]);\r\n                border.depositUSD (valueTotal, borderFroms, borderValues);\r\n            }\r\n\r\n            for (uint256 i = borderFroms.length-1; i <= 0; i--) {\r\n                delete borderFroms[i];\r\n                delete borderValues[i];\r\n                borderFroms.length--;\r\n                borderValues.length--;\r\n            }\r\n        }\r\n\r\n    }\r\n    \r\n}\r\n\r\n\r\ncontract MovimentFactory {\r\n    address[] public moviments;\r\n    mapping (address => bool) public isMoviment;\r\n    address public usdAddress;\r\n    address public borderFactory;\r\n\r\n    constructor(address _usdAddress, address _borderFactory) public {\r\n        usdAddress = _usdAddress;\r\n        borderFactory = _borderFactory;\r\n    }\r\n\r\n    function inMovimentFactory (address _address) public view returns (bool) {\r\n        return (isMoviment[_address]);\r\n    }\r\n\r\n    function listMoviments() public view returns (address[] memory) {\r\n        return moviments;\r\n    }\r\n\r\n    event CreateMoviment (address indexed _address, string _name);\r\n\r\n    function createMoviment (string memory _name) public returns (address) {\r\n        Moviment moviment = new Moviment (_name, borderFactory, usdAddress, msg.sender);\r\n        moviments.push(address(moviment));\r\n        isMoviment[address(moviment)] = true;\r\n        emit CreateMoviment (address(moviment), _name);\r\n        return address(moviment);\r\n    }\r\n}\r\n\r\n\r\n\r\nlibrary SafeMath {\r\n    /**\r\n     * @dev Multiplies two unsigned integers, reverts on overflow.\r\n     */\r\n    function mul(uint256 a, uint256 b) internal pure returns (uint256) {\r\n        // Gas optimization: this is cheaper than requiring 'a' not being zero, but the\r\n        // benefit is lost if 'b' is also tested.\r\n        // See: https://github.com/OpenZeppelin/openzeppelin-solidity/pull/522\r\n        if (a == 0) {\r\n            return 0;\r\n        }\r\n\r\n        uint256 c = a * b;\r\n        require(c / a == b);\r\n\r\n        return c;\r\n    }\r\n\r\n    /**\r\n     * @dev Integer division of two unsigned integers truncating the quotient, reverts on division by zero.\r\n     */\r\n    function div(uint256 a, uint256 b) internal pure returns (uint256) {\r\n        // Solidity only automatically asserts when dividing by 0\r\n        require(b > 0);\r\n        uint256 c = a / b;\r\n        // assert(a == b * c + a % b); // There is no case in which this doesn't hold\r\n\r\n        return c;\r\n    }\r\n\r\n    /**\r\n     * @dev Subtracts two unsigned integers, reverts on overflow (i.e. if subtrahend is greater than minuend).\r\n     */\r\n    function sub(uint256 a, uint256 b) internal pure returns (uint256) {\r\n        require(b <= a);\r\n        uint256 c = a - b;\r\n\r\n        return c;\r\n    }\r\n\r\n    /**\r\n     * @dev Adds two unsigned integers, reverts on overflow.\r\n     */\r\n    function add(uint256 a, uint256 b) internal pure returns (uint256) {\r\n        uint256 c = a + b;\r\n        require(c >= a);\r\n\r\n        return c;\r\n    }\r\n\r\n    /**\r\n     * @dev Divides two unsigned integers and returns the remainder (unsigned integer modulo),\r\n     * reverts when dividing by zero.\r\n     */\r\n    function mod(uint256 a, uint256 b) internal pure returns (uint256) {\r\n        require(b != 0);\r\n        return a % b;\r\n    }\r\n}\r\n\r\n\r\n",
  "sourcePath": "D:/Blockchain/Projetos/Syntropy-Prosper/syntropy-web/contracts/Moviment.sol",
  "compiler": {
    "name": "solc",
    "version": "0.5.8+commit.23d335f2.Emscripten.clang"
  },
  "schemaVersion": "3.0.16",
  "updatedAt": "2019-09-22T22:42:30.521Z",
  "devdoc": {
    "methods": {}
  },
  "userdoc": {
    "methods": {}
  }
}