{
  "contractName": "Calc",
  "abi": [
    {
      "inputs": [],
      "payable": false,
      "stateMutability": "nonpayable",
      "type": "constructor"
    },
    {
      "constant": false,
      "inputs": [
        {
          "internalType": "uint256",
          "name": "_total",
          "type": "uint256"
        }
      ],
      "name": "calcBorder",
      "outputs": [
        {
          "internalType": "uint256[]",
          "name": "",
          "type": "uint256[]"
        }
      ],
      "payable": false,
      "stateMutability": "nonpayable",
      "type": "function"
    },
    {
      "constant": false,
      "inputs": [],
      "name": "sharePay",
      "outputs": [
        {
          "internalType": "uint256[]",
          "name": "",
          "type": "uint256[]"
        }
      ],
      "payable": false,
      "stateMutability": "nonpayable",
      "type": "function"
    },
    {
      "constant": true,
      "inputs": [],
      "name": "getratioOwner",
      "outputs": [
        {
          "internalType": "uint256[]",
          "name": "",
          "type": "uint256[]"
        }
      ],
      "payable": false,
      "stateMutability": "view",
      "type": "function"
    },
    {
      "constant": true,
      "inputs": [],
      "name": "getRatioShare",
      "outputs": [
        {
          "internalType": "uint256[]",
          "name": "",
          "type": "uint256[]"
        }
      ],
      "payable": false,
      "stateMutability": "view",
      "type": "function"
    },
    {
      "constant": true,
      "inputs": [],
      "name": "getBorderValues",
      "outputs": [
        {
          "internalType": "uint256[]",
          "name": "",
          "type": "uint256[]"
        }
      ],
      "payable": false,
      "stateMutability": "view",
      "type": "function"
    },
    {
      "constant": true,
      "inputs": [],
      "name": "getDolarRatio",
      "outputs": [
        {
          "internalType": "uint256[]",
          "name": "",
          "type": "uint256[]"
        }
      ],
      "payable": false,
      "stateMutability": "view",
      "type": "function"
    },
    {
      "constant": true,
      "inputs": [],
      "name": "getDolarValues",
      "outputs": [
        {
          "internalType": "uint256[]",
          "name": "",
          "type": "uint256[]"
        }
      ],
      "payable": false,
      "stateMutability": "view",
      "type": "function"
    }
  ],
  "bytecode": "0x608060405261271060005534801561001657600080fd5b506001611b5890806001815401808255809150509060018203906000526020600020016000909192909190915055506001610bb890806001815401808255809150509060018203906000526020600020016000909192909190915055506002611388908060018154018082558091505090600182039060005260206000200160009091929091909150555060026107d0908060018154018082558091505090600182039060005260206000200160009091929091909150555060046127109080600181540180825580915050906001820390600052602060002001600090919290919091505550600460009080600181540180825580915050906001820390600052602060002001600090919290919091505550610841806101396000396000f3fe608060405234801561001057600080fd5b506004361061007d5760003560e01c80639a9a901a1161005b5780639a9a901a146101c3578063be7a7a4514610222578063de57c1b114610281578063eac5bfa7146102e05761007d565b8063043a0ca014610082578063230245a3146100e15780633b25f20f14610140575b600080fd5b61008a61033f565b6040518080602001828103825283818151815260200191508051906020019060200280838360005b838110156100cd5780820151818401526020810190506100b2565b505050509050019250505060405180910390f35b6100e9610397565b6040518080602001828103825283818151815260200191508051906020019060200280838360005b8381101561012c578082015181840152602081019050610111565b505050509050019250505060405180910390f35b61016c6004803603602081101561015657600080fd5b81019080803590602001909291905050506103ef565b6040518080602001828103825283818151815260200191508051906020019060200280838360005b838110156101af578082015181840152602081019050610194565b505050509050019250505060405180910390f35b6101cb610519565b6040518080602001828103825283818151815260200191508051906020019060200280838360005b8381101561020e5780820151818401526020810190506101f3565b505050509050019250505060405180910390f35b61022a610571565b6040518080602001828103825283818151815260200191508051906020019060200280838360005b8381101561026d578082015181840152602081019050610252565b505050509050019250505060405180910390f35b6102896105c9565b6040518080602001828103825283818151815260200191508051906020019060200280838360005b838110156102cc5780820151818401526020810190506102b1565b505050509050019250505060405180910390f35b6102e8610621565b6040518080602001828103825283818151815260200191508051906020019060200280838360005b8381101561032b578082015181840152602081019050610310565b505050509050019250505060405180910390f35b6060600380548060200260200160405190810160405280929190818152602001828054801561038d57602002820191906000526020600020905b815481526020019060010190808311610379575b5050505050905090565b606060018054806020026020016040519081016040528092919081815260200182805480156103e557602002820191906000526020600020905b8154815260200190600101908083116103d1575b5050505050905090565b6060600080905060008090505b6001805490508110156104bf576104846000546104766002848154811061041f57fe5b906000526020600020015461046860005461045a6001888154811061044057fe5b90600052602060002001548b6107ac90919063ffffffff16565b6107e690919063ffffffff16565b6107ac90919063ffffffff16565b6107e690919063ffffffff16565b9150600382908060018154018082558091505090600182039060005260206000200160009091929091909150555080806001019150506103fc565b50600380548060200260200160405190810160405280929190818152602001828054801561050c57602002820191906000526020600020905b8154815260200190600101908083116104f8575b5050505050915050919050565b6060600580548060200260200160405190810160405280929190818152602001828054801561056757602002820191906000526020600020905b815481526020019060010190808311610553575b5050505050905090565b606060048054806020026020016040519081016040528092919081815260200182805480156105bf57602002820191906000526020600020905b8154815260200190600101908083116105ab575b5050505050905090565b6060600280548060200260200160405190810160405280929190818152602001828054801561061757602002820191906000526020600020905b815481526020019060010190808311610603575b5050505050905090565b606060008090505b6001805490508110156107555760008090505b6004805490508110156107475760006106776000546003858154811061065e57fe5b90600052602060002001546107e690919063ffffffff16565b9050600081146106b2576106ab6004838154811061069157fe5b9060005260206000200154826107ac90919063ffffffff16565b905061070d565b6106f3600483815481106106c257fe5b9060005260206000200154600385815481106106da57fe5b90600052602060002001546107ac90919063ffffffff16565b905061070a600054826107e690919063ffffffff16565b90505b600581908060018154018082558091505090600182039060005260206000200160009091929091909150555050808060010191505061063c565b508080600101915050610629565b5060058054806020026020016040519081016040528092919081815260200182805480156107a257602002820191906000526020600020905b81548152602001906001019080831161078e575b5050505050905090565b6000808314156107bf57600090506107e0565b60008284029050828482816107d057fe5b04146107db57600080fd5b809150505b92915050565b60008082116107f457600080fd5b60008284816107ff57fe5b049050809150509291505056fea265627a7a723158209f79db25e6c3ac6fff633dcb3b99bfd6890afb45cf12715764e17504e1426f5c64736f6c634300050b0032",
  "source": "pragma solidity >=0.5.1 <0.6.0;\r\n\r\n\r\ncontract Calc {\r\n    using SafeMath for uint256;\r\n\r\n    uint256 private decimalpercent = 10000;\r\n\r\n    uint256[] private ratioOwner;\r\n    uint256[] private ratioShare;\r\n    uint256[] private borderValues;\r\n    uint256[] private dolarRatio;\r\n    uint256[] private dolarValues;\r\n\r\n    constructor() public {\r\n        ratioOwner.push(7000);\r\n        ratioOwner.push(3000);\r\n\r\n        ratioShare.push(5000);\r\n        ratioShare.push(2000);\r\n\r\n        dolarRatio.push(10000);\r\n        dolarRatio.push(0);\r\n    }\r\n\r\n    function calcBorder (uint256 _total) public returns (uint256[] memory) {\r\n\r\n        uint256 valueAux = 0;\r\n        for (uint256 o = 0; o < ratioOwner.length; o++) {\r\n\r\n            //valueAux = _total * ratioOwner[owners[o]] / decimalpercent * shareBorder[owners[o]][borders[b]] / decimalpercent;\r\n            valueAux = _total.mul(ratioOwner[o]).div(decimalpercent).mul(ratioShare[o]).div(decimalpercent);\r\n            borderValues.push(valueAux);\r\n        }\r\n\r\n        return borderValues;\r\n    }\r\n\r\n    function sharePay() public returns (uint256[] memory) {\r\n\r\n        for (uint256 n = 0; n < ratioOwner.length; n++) {\r\n        \r\n            //Futuros problemas aqui\r\n            for (uint256 i = 0; i < dolarRatio.length; i++) {\r\n                uint256 amountPart = borderValues[n].div(decimalpercent);\r\n                if (amountPart != 0) {\r\n                    amountPart = amountPart.mul(dolarRatio[i]);\r\n                }\r\n                else {\r\n                    amountPart = borderValues[n].mul(dolarRatio[i]);\r\n                    amountPart = amountPart.div(decimalpercent);\r\n                }\r\n\r\n                dolarValues.push(amountPart);\r\n            }\r\n        }\r\n\r\n        return dolarValues;\r\n    }\r\n\r\n    function getratioOwner ()  public view returns (uint256[] memory) {\r\n        return ratioOwner;\r\n    }\r\n\r\n    function getRatioShare ()  public view returns (uint256[] memory) {\r\n        return ratioShare;\r\n    }\r\n\r\n    function getBorderValues ()  public view returns (uint256[] memory) {\r\n        return borderValues;\r\n    }\r\n\r\n    function getDolarRatio ()  public view returns (uint256[] memory) {\r\n        return dolarRatio;\r\n    }\r\n\r\n    function getDolarValues ()  public view returns (uint256[] memory) {\r\n        return dolarValues;\r\n    }\r\n\r\n}\r\n\r\n\r\nlibrary SafeMath {\r\n    /**\r\n     * @dev Multiplies two unsigned integers, reverts on overflow.\r\n     */\r\n    function mul(uint256 a, uint256 b) internal pure returns (uint256) {\r\n        // Gas optimization: this is cheaper than requiring 'a' not being zero, but the\r\n        // benefit is lost if 'b' is also tested.\r\n        // See: https://github.com/OpenZeppelin/openzeppelin-solidity/pull/522\r\n        if (a == 0) {\r\n            return 0;\r\n        }\r\n\r\n        uint256 c = a * b;\r\n        require(c / a == b);\r\n\r\n        return c;\r\n    }\r\n\r\n    /**\r\n     * @dev Integer division of two unsigned integers truncating the quotient, reverts on division by zero.\r\n     */\r\n    function div(uint256 a, uint256 b) internal pure returns (uint256) {\r\n        // Solidity only automatically asserts when dividing by 0\r\n        require(b > 0);\r\n        uint256 c = a / b;\r\n        // assert(a == b * c + a % b); // There is no case in which this doesn't hold\r\n\r\n        return c;\r\n    }\r\n\r\n    /**\r\n     * @dev Subtracts two unsigned integers, reverts on overflow (i.e. if subtrahend is greater than minuend).\r\n     */\r\n    function sub(uint256 a, uint256 b) internal pure returns (uint256) {\r\n        require(b <= a);\r\n        uint256 c = a - b;\r\n\r\n        return c;\r\n    }\r\n\r\n    /**\r\n     * @dev Adds two unsigned integers, reverts on overflow.\r\n     */\r\n    function add(uint256 a, uint256 b) internal pure returns (uint256) {\r\n        uint256 c = a + b;\r\n        require(c >= a);\r\n\r\n        return c;\r\n    }\r\n\r\n    /**\r\n     * @dev Divides two unsigned integers and returns the remainder (unsigned integer modulo),\r\n     * reverts when dividing by zero.\r\n     */\r\n    function mod(uint256 a, uint256 b) internal pure returns (uint256) {\r\n        require(b != 0);\r\n        return a % b;\r\n    }\r\n}",
  "sourcePath": "D:/Blockchain/Projetos/Syntropy-Prosper/syntropy-DEV/contracts/Calc.sol",
  "compiler": {
    "name": "solc",
    "version": "0.5.11+commit.c082d0b4.Emscripten.clang"
  },
  "schemaVersion": "3.0.16",
  "updatedAt": "2019-11-18T18:42:04.117Z",
  "devdoc": {
    "methods": {}
  },
  "userdoc": {
    "methods": {}
  }
}