{
  "contractName": "MovimentFactory",
  "abi": [
    {
      "constant": true,
      "inputs": [
        {
          "name": "",
          "type": "address"
        }
      ],
      "name": "isMoviment",
      "outputs": [
        {
          "name": "",
          "type": "bool"
        }
      ],
      "payable": false,
      "stateMutability": "view",
      "type": "function"
    },
    {
      "constant": true,
      "inputs": [],
      "name": "borderFactory",
      "outputs": [
        {
          "name": "",
          "type": "address"
        }
      ],
      "payable": false,
      "stateMutability": "view",
      "type": "function"
    },
    {
      "constant": true,
      "inputs": [],
      "name": "usdAddress",
      "outputs": [
        {
          "name": "",
          "type": "address"
        }
      ],
      "payable": false,
      "stateMutability": "view",
      "type": "function"
    },
    {
      "constant": true,
      "inputs": [
        {
          "name": "",
          "type": "uint256"
        }
      ],
      "name": "moviments",
      "outputs": [
        {
          "name": "",
          "type": "address"
        }
      ],
      "payable": false,
      "stateMutability": "view",
      "type": "function"
    },
    {
      "inputs": [
        {
          "name": "_usdAddress",
          "type": "address"
        },
        {
          "name": "_borderFactory",
          "type": "address"
        }
      ],
      "payable": false,
      "stateMutability": "nonpayable",
      "type": "constructor"
    },
    {
      "anonymous": false,
      "inputs": [
        {
          "indexed": true,
          "name": "_address",
          "type": "address"
        },
        {
          "indexed": false,
          "name": "_name",
          "type": "string"
        }
      ],
      "name": "CreateMoviment",
      "type": "event"
    },
    {
      "constant": true,
      "inputs": [
        {
          "name": "_address",
          "type": "address"
        }
      ],
      "name": "inMovimentFactory",
      "outputs": [
        {
          "name": "",
          "type": "bool"
        }
      ],
      "payable": false,
      "stateMutability": "view",
      "type": "function"
    },
    {
      "constant": true,
      "inputs": [],
      "name": "listMoviments",
      "outputs": [
        {
          "name": "",
          "type": "address[]"
        }
      ],
      "payable": false,
      "stateMutability": "view",
      "type": "function"
    },
    {
      "constant": false,
      "inputs": [
        {
          "name": "_name",
          "type": "string"
        }
      ],
      "name": "createMoviment",
      "outputs": [
        {
          "name": "",
          "type": "address"
        }
      ],
      "payable": false,
      "stateMutability": "nonpayable",
      "type": "function"
    }
  ],
  "bytecode": "0x608060405234801561001057600080fd5b506040516040806140ba8339810180604052604081101561003057600080fd5b81019080805190602001909291908051906020019092919050505081600260006101000a81548173ffffffffffffffffffffffffffffffffffffffff021916908373ffffffffffffffffffffffffffffffffffffffff16021790555080600360006101000a81548173ffffffffffffffffffffffffffffffffffffffff021916908373ffffffffffffffffffffffffffffffffffffffff1602179055505050613fdc806100de6000396000f3fe608060405234801561001057600080fd5b506004361061007d5760003560e01c806378017f9f1161005b57806378017f9f14610199578063873949b5146101e35780639e1a8613146102de578063b8d40f7d146103285761007d565b806311abcf9f146100825780631bc7e8ac146100e157806356f9caf01461013d575b600080fd5b61008a610396565b6040518080602001828103825283818151815260200191508051906020019060200280838360005b838110156100cd5780820151818401526020810190506100b2565b505050509050019250505060405180910390f35b610123600480360360208110156100f757600080fd5b81019080803573ffffffffffffffffffffffffffffffffffffffff169060200190929190505050610424565b604051808215151515815260200191505060405180910390f35b61017f6004803603602081101561015357600080fd5b81019080803573ffffffffffffffffffffffffffffffffffffffff16906020019092919050505061047a565b604051808215151515815260200191505060405180910390f35b6101a161049a565b604051808273ffffffffffffffffffffffffffffffffffffffff1673ffffffffffffffffffffffffffffffffffffffff16815260200191505060405180910390f35b61029c600480360360208110156101f957600080fd5b810190808035906020019064010000000081111561021657600080fd5b82018360208201111561022857600080fd5b8035906020019184600183028401116401000000008311171561024a57600080fd5b91908080601f016020809104026020016040519081016040528093929190818152602001838380828437600081840152601f19601f8201169050808301925050505050505091929192905050506104c0565b604051808273ffffffffffffffffffffffffffffffffffffffff1673ffffffffffffffffffffffffffffffffffffffff16815260200191505060405180910390f35b6102e66107b7565b604051808273ffffffffffffffffffffffffffffffffffffffff1673ffffffffffffffffffffffffffffffffffffffff16815260200191505060405180910390f35b6103546004803603602081101561033e57600080fd5b81019080803590602001909291905050506107dd565b604051808273ffffffffffffffffffffffffffffffffffffffff1673ffffffffffffffffffffffffffffffffffffffff16815260200191505060405180910390f35b6060600080548060200260200160405190810160405280929190818152602001828054801561041a57602002820191906000526020600020905b8160009054906101000a900473ffffffffffffffffffffffffffffffffffffffff1673ffffffffffffffffffffffffffffffffffffffff16815260200190600101908083116103d0575b5050505050905090565b6000600160008373ffffffffffffffffffffffffffffffffffffffff1673ffffffffffffffffffffffffffffffffffffffff16815260200190815260200160002060009054906101000a900460ff169050919050565b60016020528060005260406000206000915054906101000a900460ff1681565b600360009054906101000a900473ffffffffffffffffffffffffffffffffffffffff1681565b60008082600360009054906101000a900473ffffffffffffffffffffffffffffffffffffffff16600260009054906101000a900473ffffffffffffffffffffffffffffffffffffffff163360405161051790610819565b80806020018573ffffffffffffffffffffffffffffffffffffffff1673ffffffffffffffffffffffffffffffffffffffff1681526020018473ffffffffffffffffffffffffffffffffffffffff1673ffffffffffffffffffffffffffffffffffffffff1681526020018373ffffffffffffffffffffffffffffffffffffffff1673ffffffffffffffffffffffffffffffffffffffff168152602001828103825286818151815260200191508051906020019080838360005b838110156105ea5780820151818401526020810190506105cf565b50505050905090810190601f1680156106175780820380516001836020036101000a031916815260200191505b5095505050505050604051809103906000f08015801561063b573d6000803e3d6000fd5b50905060008190806001815401808255809150509060018203906000526020600020016000909192909190916101000a81548173ffffffffffffffffffffffffffffffffffffffff021916908373ffffffffffffffffffffffffffffffffffffffff1602179055505060018060008373ffffffffffffffffffffffffffffffffffffffff1673ffffffffffffffffffffffffffffffffffffffff16815260200190815260200160002060006101000a81548160ff0219169083151502179055508073ffffffffffffffffffffffffffffffffffffffff167fd712da056d0f798bd05d2a1adce71d88c51cd50b2b625ed1050589d61d3100b0846040518080602001828103825283818151815260200191508051906020019080838360005b83811015610774578082015181840152602081019050610759565b50505050905090810190601f1680156107a15780820380516001836020036101000a031916815260200191505b509250505060405180910390a280915050919050565b600260009054906101000a900473ffffffffffffffffffffffffffffffffffffffff1681565b600081815481106107ea57fe5b906000526020600020016000915054906101000a900473ffffffffffffffffffffffffffffffffffffffff1681565b61378980620008288339019056fe60806040526127106001553480156200001757600080fd5b506040516200378938038062003789833981018060405260808110156200003d57600080fd5b8101908080516401000000008111156200005657600080fd5b828101905060208101848111156200006d57600080fd5b81518560018202830111640100000000821117156200008b57600080fd5b505092919060200180519060200190929190805190602001909291908051906020019092919050505080600260006101000a81548173ffffffffffffffffffffffffffffffffffffffff021916908373ffffffffffffffffffffffffffffffffffffffff16021790555083600090805190602001906200010d929190620003dc565b506003600090806001815401808255809150509060018203906000526020600020016000909192909190916101000a81548173ffffffffffffffffffffffffffffffffffffffff021916908373ffffffffffffffffffffffffffffffffffffffff16021790555050600160038290806001815401808255809150509060018203906000526020600020016000909192909190916101000a81548173ffffffffffffffffffffffffffffffffffffffff021916908373ffffffffffffffffffffffffffffffffffffffff16021790555003600460008373ffffffffffffffffffffffffffffffffffffffff1673ffffffffffffffffffffffffffffffffffffffff16815260200190815260200160002081905550600154600560008373ffffffffffffffffffffffffffffffffffffffff1673ffffffffffffffffffffffffffffffffffffffff16815260200190815260200160002081905550600154600660008373ffffffffffffffffffffffffffffffffffffffff1673ffffffffffffffffffffffffffffffffffffffff16815260200190815260200160002060008373ffffffffffffffffffffffffffffffffffffffff1673ffffffffffffffffffffffffffffffffffffffff1681526020019081526020016000208190555082600b60006101000a81548173ffffffffffffffffffffffffffffffffffffffff021916908373ffffffffffffffffffffffffffffffffffffffff1602179055506007600090806001815401808255809150509060018203906000526020600020016000909192909190916101000a81548173ffffffffffffffffffffffffffffffffffffffff021916908373ffffffffffffffffffffffffffffffffffffffff1602179055505081600c60006101000a81548173ffffffffffffffffffffffffffffffffffffffff021916908373ffffffffffffffffffffffffffffffffffffffff160217905550505050506200048b565b828054600181600116156101000203166002900490600052602060002090601f016020900481019282601f106200041f57805160ff191683800117855562000450565b8280016001018555821562000450579182015b828111156200044f57825182559160200191906001019062000432565b5b5090506200045f919062000463565b5090565b6200048891905b80821115620004845760008160009055506001016200046a565b5090565b90565b6132ee806200049b6000396000f3fe608060405234801561001057600080fd5b506004361061012c5760003560e01c80638c6253b2116100ad578063d0f7d1cc11610071578063d0f7d1cc1461072a578063e10ebf5214610782578063ec990f5b146107a0578063ed60c0fc146107f8578063edb0ab1e146108575761012c565b80638c6253b2146104bd5780639e1a861314610535578063c0e10ac41461057f578063c4ee4f9d14610644578063c7621256146106b25761012c565b80634aa49f14116100f45780634aa49f141461031257806355d16f68146103605780636bd28620146103bc5780636ca929551461041457806378017f9f146104735761012c565b8063025e7c271461013157806302d05d3f1461019f57806306fdde03146101e95780630de27c9e1461026c57806341d977a6146102da575b600080fd5b61015d6004803603602081101561014757600080fd5b81019080803590602001909291905050506108af565b604051808273ffffffffffffffffffffffffffffffffffffffff1673ffffffffffffffffffffffffffffffffffffffff16815260200191505060405180910390f35b6101a76108eb565b604051808273ffffffffffffffffffffffffffffffffffffffff1673ffffffffffffffffffffffffffffffffffffffff16815260200191505060405180910390f35b6101f1610911565b6040518080602001828103825283818151815260200191508051906020019080838360005b83811015610231578082015181840152602081019050610216565b50505050905090810190601f16801561025e5780820380516001836020036101000a031916815260200191505b509250505060405180910390f35b6102986004803603602081101561028257600080fd5b81019080803590602001909291905050506109af565b604051808273ffffffffffffffffffffffffffffffffffffffff1673ffffffffffffffffffffffffffffffffffffffff16815260200191505060405180910390f35b610310600480360360408110156102f057600080fd5b8101908080359060200190929190803590602001909291905050506109eb565b005b61035e6004803603604081101561032857600080fd5b81019080803573ffffffffffffffffffffffffffffffffffffffff1690602001909291908035906020019092919050505061131f565b005b6103a26004803603602081101561037657600080fd5b81019080803573ffffffffffffffffffffffffffffffffffffffff1690602001909291905050506118a5565b604051808215151515815260200191505060405180910390f35b6103fe600480360360208110156103d257600080fd5b81019080803573ffffffffffffffffffffffffffffffffffffffff169060200190929190505050611988565b6040518082815260200191505060405180910390f35b61041c6119a0565b6040518080602001828103825283818151815260200191508051906020019060200280838360005b8381101561045f578082015181840152602081019050610444565b505050509050019250505060405180910390f35b61047b611a2e565b604051808273ffffffffffffffffffffffffffffffffffffffff1673ffffffffffffffffffffffffffffffffffffffff16815260200191505060405180910390f35b61051f600480360360408110156104d357600080fd5b81019080803573ffffffffffffffffffffffffffffffffffffffff169060200190929190803573ffffffffffffffffffffffffffffffffffffffff169060200190929190505050611a54565b6040518082815260200191505060405180910390f35b61053d611a79565b604051808273ffffffffffffffffffffffffffffffffffffffff1673ffffffffffffffffffffffffffffffffffffffff16815260200191505060405180910390f35b6106426004803603604081101561059557600080fd5b8101908080359060200190929190803590602001906401000000008111156105bc57600080fd5b8201836020820111156105ce57600080fd5b803590602001918460018302840111640100000000831117156105f057600080fd5b91908080601f016020809104026020016040519081016040528093929190818152602001838380828437600081840152601f19601f820116905080830192505050505050509192919290505050611a9f565b005b6106b06004803603606081101561065a57600080fd5b81019080803573ffffffffffffffffffffffffffffffffffffffff169060200190929190803573ffffffffffffffffffffffffffffffffffffffff16906020019092919080359060200190929190505050612271565b005b610714600480360360408110156106c857600080fd5b81019080803573ffffffffffffffffffffffffffffffffffffffff169060200190929190803573ffffffffffffffffffffffffffffffffffffffff169060200190929190505050612d76565b6040518082815260200191505060405180910390f35b61076c6004803603602081101561074057600080fd5b81019080803573ffffffffffffffffffffffffffffffffffffffff169060200190929190505050612d9b565b6040518082815260200191505060405180910390f35b61078a612db3565b6040518082815260200191505060405180910390f35b6107e2600480360360208110156107b657600080fd5b81019080803573ffffffffffffffffffffffffffffffffffffffff169060200190929190505050612db9565b6040518082815260200191505060405180910390f35b610800612dd1565b6040518080602001828103825283818151815260200191508051906020019060200280838360005b83811015610843578082015181840152602081019050610828565b505050509050019250505060405180910390f35b6108996004803603602081101561086d57600080fd5b81019080803573ffffffffffffffffffffffffffffffffffffffff169060200190929190505050612e5f565b6040518082815260200191505060405180910390f35b600381815481106108bc57fe5b906000526020600020016000915054906101000a900473ffffffffffffffffffffffffffffffffffffffff1681565b600260009054906101000a900473ffffffffffffffffffffffffffffffffffffffff1681565b60008054600181600116156101000203166002900480601f0160208091040260200160405190810160405280929190818152602001828054600181600116156101000203166002900480156109a75780601f1061097c576101008083540402835291602001916109a7565b820191906000526020600020905b81548152906001019060200180831161098a57829003601f168201915b505050505081565b600781815481106109bc57fe5b906000526020600020016000915054906101000a900473ffffffffffffffffffffffffffffffffffffffff1681565b6000600460003373ffffffffffffffffffffffffffffffffffffffff1673ffffffffffffffffffffffffffffffffffffffff1681526020019081526020016000205411610aa0576040517f08c379a000000000000000000000000000000000000000000000000000000000815260040180806020018281038252600a8152602001807f4f6e6c79206f776e65720000000000000000000000000000000000000000000081525060200191505060405180910390fd5b6000600c60009054906101000a900473ffffffffffffffffffffffffffffffffffffffff16905060008173ffffffffffffffffffffffffffffffffffffffff166323b872dd3330866040518463ffffffff1660e01b8152600401808473ffffffffffffffffffffffffffffffffffffffff1673ffffffffffffffffffffffffffffffffffffffff1681526020018373ffffffffffffffffffffffffffffffffffffffff1673ffffffffffffffffffffffffffffffffffffffff1681526020018281526020019350505050602060405180830381600087803b158015610b8457600080fd5b505af1158015610b98573d6000803e3d6000fd5b505050506040513d6020811015610bae57600080fd5b8101908080519060200190929190505050610c31576040517f08c379a000000000000000000000000000000000000000000000000000000000815260040180806020018281038252601c8152602001807f43616e206e6f74207472616e7366657220746f206d6f76696d656e740000000081525060200191505060405180910390fd5b600080905060008090506000600190505b60078054905081101561131657600092506000600190505b600380549050811015610ff5576000600a600060038481548110610c7a57fe5b9060005260206000200160009054906101000a900473ffffffffffffffffffffffffffffffffffffffff1673ffffffffffffffffffffffffffffffffffffffff1673ffffffffffffffffffffffffffffffffffffffff168152602001908152602001600020600060078581548110610cee57fe5b9060005260206000200160009054906101000a900473ffffffffffffffffffffffffffffffffffffffff1673ffffffffffffffffffffffffffffffffffffffff1673ffffffffffffffffffffffffffffffffffffffff168152602001908152602001600020541115610fe857610f07600154610ef9600a600060038681548110610d7457fe5b9060005260206000200160009054906101000a900473ffffffffffffffffffffffffffffffffffffffff1673ffffffffffffffffffffffffffffffffffffffff1673ffffffffffffffffffffffffffffffffffffffff168152602001908152602001600020600060078781548110610de857fe5b9060005260206000200160009054906101000a900473ffffffffffffffffffffffffffffffffffffffff1673ffffffffffffffffffffffffffffffffffffffff1673ffffffffffffffffffffffffffffffffffffffff16815260200190815260200160002054610eeb600154610edd6005600060038a81548110610e6857fe5b9060005260206000200160009054906101000a900473ffffffffffffffffffffffffffffffffffffffff1673ffffffffffffffffffffffffffffffffffffffff1673ffffffffffffffffffffffffffffffffffffffff168152602001908152602001600020548f612e7790919063ffffffff16565b612eb190919063ffffffff16565b612e7790919063ffffffff16565b612eb190919063ffffffff16565b9250610f1c8385612ed790919063ffffffff16565b9350600d60038281548110610f2d57fe5b9060005260206000200160009054906101000a900473ffffffffffffffffffffffffffffffffffffffff1690806001815401808255809150509060018203906000526020600020016000909192909190916101000a81548173ffffffffffffffffffffffffffffffffffffffff021916908373ffffffffffffffffffffffffffffffffffffffff16021790555050600e8390806001815401808255809150509060018203906000526020600020016000909192909190915055505b8080600101915050610c5a565b506000831115611263578473ffffffffffffffffffffffffffffffffffffffff1663095ea7b36007838154811061102857fe5b9060005260206000200160009054906101000a900473ffffffffffffffffffffffffffffffffffffffff16856040518363ffffffff1660e01b8152600401808373ffffffffffffffffffffffffffffffffffffffff1673ffffffffffffffffffffffffffffffffffffffff16815260200182815260200192505050602060405180830381600087803b1580156110bd57600080fd5b505af11580156110d1573d6000803e3d6000fd5b505050506040513d60208110156110e757600080fd5b8101908080519060200190929190505050506007818154811061110657fe5b9060005260206000200160009054906101000a900473ffffffffffffffffffffffffffffffffffffffff1693508373ffffffffffffffffffffffffffffffffffffffff166320738fdf84600d600e6040518463ffffffff1660e01b815260040180848152602001806020018060200183810383528581815481526020019150805480156111e857602002820191906000526020600020905b8160009054906101000a900473ffffffffffffffffffffffffffffffffffffffff1673ffffffffffffffffffffffffffffffffffffffff168152602001906001019080831161119e575b5050838103825284818154815260200191508054801561122757602002820191906000526020600020905b815481526020019060010190808311611213575b505095505050505050600060405180830381600087803b15801561124a57600080fd5b505af115801561125e573d6000803e3d6000fd5b505050505b60006001600d805490500390505b6000811161130857600d818154811061128657fe5b9060005260206000200160006101000a81549073ffffffffffffffffffffffffffffffffffffffff0219169055600e81815481106112c057fe5b9060005260206000200160009055600d8054809190600190036112e39190613224565b50600e8054809190600190036112f99190613250565b50808060019003915050611271565b508080600101915050610c42565b50505050505050565b6000600460003373ffffffffffffffffffffffffffffffffffffffff1673ffffffffffffffffffffffffffffffffffffffff16815260200190815260200160002054116113d4576040517f08c379a000000000000000000000000000000000000000000000000000000000815260040180806020018281038252600a8152602001807f4f6e6c79206f776e65720000000000000000000000000000000000000000000081525060200191505060405180910390fd5b6113dd826118a5565b15611450576040517f08c379a00000000000000000000000000000000000000000000000000000000081526004018080602001828103825260208152602001807f426f726465722063616e206e6f742068617665206120526174696f4f776e657281525060200191505060405180910390fd5b600560003373ffffffffffffffffffffffffffffffffffffffff1673ffffffffffffffffffffffffffffffffffffffff16815260200190815260200160002054811115611505576040517f08c379a00000000000000000000000000000000000000000000000000000000081526004018080602001828103825260208152602001807f76616c75652067726561746572207468616e206f776e6572277320726174696f81525060200191505060405180910390fd5b61155781600560003373ffffffffffffffffffffffffffffffffffffffff1673ffffffffffffffffffffffffffffffffffffffff16815260200190815260200160002054612ef690919063ffffffff16565b600560003373ffffffffffffffffffffffffffffffffffffffff1673ffffffffffffffffffffffffffffffffffffffff168152602001908152602001600020819055506115ec81600560008573ffffffffffffffffffffffffffffffffffffffff1673ffffffffffffffffffffffffffffffffffffffff16815260200190815260200160002054612ed790919063ffffffff16565b600560008473ffffffffffffffffffffffffffffffffffffffff1673ffffffffffffffffffffffffffffffffffffffff168152602001908152602001600020819055506000600460008473ffffffffffffffffffffffffffffffffffffffff1673ffffffffffffffffffffffffffffffffffffffff16815260200190815260200160002054141561176657600160038390806001815401808255809150509060018203906000526020600020016000909192909190916101000a81548173ffffffffffffffffffffffffffffffffffffffff021916908373ffffffffffffffffffffffffffffffffffffffff16021790555003600460008473ffffffffffffffffffffffffffffffffffffffff1673ffffffffffffffffffffffffffffffffffffffff168152602001908152602001600020819055508173ffffffffffffffffffffffffffffffffffffffff167fac1e9ef41b54c676ccf449d83ae6f2624bcdce8f5b93a6b48ce95874c332693d60405160405180910390a25b6000600560003373ffffffffffffffffffffffffffffffffffffffff1673ffffffffffffffffffffffffffffffffffffffff1681526020019081526020016000205414156117b9576117b733612f16565b505b600154600660008473ffffffffffffffffffffffffffffffffffffffff1673ffffffffffffffffffffffffffffffffffffffff16815260200190815260200160002060008473ffffffffffffffffffffffffffffffffffffffff1673ffffffffffffffffffffffffffffffffffffffff168152602001908152602001600020819055508173ffffffffffffffffffffffffffffffffffffffff163373ffffffffffffffffffffffffffffffffffffffff167fecfb0171145db03b4215bf94472b5f6d5c63e5211ecc795327b9acdb1e1534a2836040518082815260200191505060405180910390a35050565b6000600b60009054906101000a900473ffffffffffffffffffffffffffffffffffffffff1673ffffffffffffffffffffffffffffffffffffffff166355d16f68836040518263ffffffff1660e01b8152600401808273ffffffffffffffffffffffffffffffffffffffff1673ffffffffffffffffffffffffffffffffffffffff16815260200191505060206040518083038186803b15801561194657600080fd5b505afa15801561195a573d6000803e3d6000fd5b505050506040513d602081101561197057600080fd5b81019080805190602001909291905050509050919050565b60086020528060005260406000206000915090505481565b60606007805480602002602001604051908101604052809291908181526020018280548015611a2457602002820191906000526020600020905b8160009054906101000a900473ffffffffffffffffffffffffffffffffffffffff1673ffffffffffffffffffffffffffffffffffffffff16815260200190600101908083116119da575b5050505050905090565b600b60009054906101000a900473ffffffffffffffffffffffffffffffffffffffff1681565b6006602052816000526040600020602052806000526040600020600091509150505481565b600c60009054906101000a900473ffffffffffffffffffffffffffffffffffffffff1681565b6000600460003373ffffffffffffffffffffffffffffffffffffffff1673ffffffffffffffffffffffffffffffffffffffff1681526020019081526020016000205411611b54576040517f08c379a000000000000000000000000000000000000000000000000000000000815260040180806020018281038252600a8152602001807f4f6e6c79206f776e65720000000000000000000000000000000000000000000081525060200191505060405180910390fd5b3373ffffffffffffffffffffffffffffffffffffffff167f9484bc8ccf02ce620c63fbb9aa604252d4d9c7c23919076b8edfeac3d110e55283836040518083815260200180602001828103825283818151815260200191508051906020019080838360005b83811015611bd4578082015181840152602081019050611bb9565b50505050905090810190601f168015611c015780820380516001836020036101000a031916815260200191505b50935050505060405180910390a260008090506000600190505b60038054905081101561226b576000600190505b600780549050811015611f4257611de9600154611ddb600a600060038781548110611c5657fe5b9060005260206000200160009054906101000a900473ffffffffffffffffffffffffffffffffffffffff1673ffffffffffffffffffffffffffffffffffffffff1673ffffffffffffffffffffffffffffffffffffffff168152602001908152602001600020600060078681548110611cca57fe5b9060005260206000200160009054906101000a900473ffffffffffffffffffffffffffffffffffffffff1673ffffffffffffffffffffffffffffffffffffffff1673ffffffffffffffffffffffffffffffffffffffff16815260200190815260200160002054611dcd600154611dbf6005600060038b81548110611d4a57fe5b9060005260206000200160009054906101000a900473ffffffffffffffffffffffffffffffffffffffff1673ffffffffffffffffffffffffffffffffffffffff1673ffffffffffffffffffffffffffffffffffffffff168152602001908152602001600020548c612e7790919063ffffffff16565b612eb190919063ffffffff16565b612e7790919063ffffffff16565b612eb190919063ffffffff16565b92506000831115611f355760078181548110611e0157fe5b9060005260206000200160009054906101000a900473ffffffffffffffffffffffffffffffffffffffff1673ffffffffffffffffffffffffffffffffffffffff1660038381548110611e4f57fe5b9060005260206000200160009054906101000a900473ffffffffffffffffffffffffffffffffffffffff1673ffffffffffffffffffffffffffffffffffffffff167f5bc4fb50884f090a47007b0ff6a47805ca1d7af3e4c4cc2ed127025d3ef6f83d85876040518083815260200180602001828103825283818151815260200191508051906020019080838360005b83811015611ef9578082015181840152602081019050611ede565b50505050905090810190601f168015611f265780820380516001836020036101000a031916815260200191505b50935050505060405180910390a35b8080600101915050611c2f565b506000600190505b60038054905081101561225d576121046001546120f66006600060038781548110611f7157fe5b9060005260206000200160009054906101000a900473ffffffffffffffffffffffffffffffffffffffff1673ffffffffffffffffffffffffffffffffffffffff1673ffffffffffffffffffffffffffffffffffffffff168152602001908152602001600020600060038681548110611fe557fe5b9060005260206000200160009054906101000a900473ffffffffffffffffffffffffffffffffffffffff1673ffffffffffffffffffffffffffffffffffffffff1673ffffffffffffffffffffffffffffffffffffffff168152602001908152602001600020546120e86001546120da6005600060038b8154811061206557fe5b9060005260206000200160009054906101000a900473ffffffffffffffffffffffffffffffffffffffff1673ffffffffffffffffffffffffffffffffffffffff1673ffffffffffffffffffffffffffffffffffffffff168152602001908152602001600020548c612e7790919063ffffffff16565b612eb190919063ffffffff16565b612e7790919063ffffffff16565b612eb190919063ffffffff16565b92506000831115612250576003818154811061211c57fe5b9060005260206000200160009054906101000a900473ffffffffffffffffffffffffffffffffffffffff1673ffffffffffffffffffffffffffffffffffffffff166003838154811061216a57fe5b9060005260206000200160009054906101000a900473ffffffffffffffffffffffffffffffffffffffff1673ffffffffffffffffffffffffffffffffffffffff167fd602ab9ddaa61fb4dda79b7fdf4dae647078847d6fbf8c844132f5a038b415a285876040518083815260200180602001828103825283818151815260200191508051906020019080838360005b838110156122145780820151818401526020810190506121f9565b50505050905090810190601f1680156122415780820380516001836020036101000a031916815260200191505b50935050505060405180910390a35b8080600101915050611f4a565b508080600101915050611c1b565b50505050565b6000600460003373ffffffffffffffffffffffffffffffffffffffff1673ffffffffffffffffffffffffffffffffffffffff1681526020019081526020016000205411612326576040517f08c379a000000000000000000000000000000000000000000000000000000000815260040180806020018281038252600a8152602001807f4f6e6c79206f776e65720000000000000000000000000000000000000000000081525060200191505060405180910390fd5b600660003373ffffffffffffffffffffffffffffffffffffffff1673ffffffffffffffffffffffffffffffffffffffff16815260200190815260200160002060008473ffffffffffffffffffffffffffffffffffffffff1673ffffffffffffffffffffffffffffffffffffffff168152602001908152602001600020548111156123fb576040517f08c379a00000000000000000000000000000000000000000000000000000000081526004018080602001828103825260218152602001806132a26021913960400191505060405180910390fd5b612404836118a5565b156126cf5761249881600a60003373ffffffffffffffffffffffffffffffffffffffff1673ffffffffffffffffffffffffffffffffffffffff16815260200190815260200160002060008673ffffffffffffffffffffffffffffffffffffffff1673ffffffffffffffffffffffffffffffffffffffff16815260200190815260200160002054612ef690919063ffffffff16565b600a60003373ffffffffffffffffffffffffffffffffffffffff1673ffffffffffffffffffffffffffffffffffffffff16815260200190815260200160002060008573ffffffffffffffffffffffffffffffffffffffff1673ffffffffffffffffffffffffffffffffffffffff168152602001908152602001600020819055506125cf61258160015461257384600560003373ffffffffffffffffffffffffffffffffffffffff1673ffffffffffffffffffffffffffffffffffffffff16815260200190815260200160002054612e7790919063ffffffff16565b612eb190919063ffffffff16565b600960008673ffffffffffffffffffffffffffffffffffffffff1673ffffffffffffffffffffffffffffffffffffffff16815260200190815260200160002054612ef690919063ffffffff16565b600960008573ffffffffffffffffffffffffffffffffffffffff1673ffffffffffffffffffffffffffffffffffffffff168152602001908152602001600020819055506000600960008573ffffffffffffffffffffffffffffffffffffffff1673ffffffffffffffffffffffffffffffffffffffff168152602001908152602001600020541415612665576126638361309d565b505b8173ffffffffffffffffffffffffffffffffffffffff168373ffffffffffffffffffffffffffffffffffffffff167f41655d6787237d7ea0b3770c6303c3b29ff1a15c77e22b604e5e1757b5291d6c836040518082815260200191505060405180910390a3612844565b61275e81600660003373ffffffffffffffffffffffffffffffffffffffff1673ffffffffffffffffffffffffffffffffffffffff16815260200190815260200160002060008673ffffffffffffffffffffffffffffffffffffffff1673ffffffffffffffffffffffffffffffffffffffff16815260200190815260200160002054612ef690919063ffffffff16565b600660003373ffffffffffffffffffffffffffffffffffffffff1673ffffffffffffffffffffffffffffffffffffffff16815260200190815260200160002060008573ffffffffffffffffffffffffffffffffffffffff1673ffffffffffffffffffffffffffffffffffffffff168152602001908152602001600020819055508173ffffffffffffffffffffffffffffffffffffffff168373ffffffffffffffffffffffffffffffffffffffff167f8bb80ca63d08ae36976738f20259784a611c42c4613a57003e69fa44f1ae6bd4836040518082815260200191505060405180910390a35b61284d826118a5565b15612bfc576000600960008473ffffffffffffffffffffffffffffffffffffffff1673ffffffffffffffffffffffffffffffffffffffff16815260200190815260200160002054141561298957600160078390806001815401808255809150509060018203906000526020600020016000909192909190916101000a81548173ffffffffffffffffffffffffffffffffffffffff021916908373ffffffffffffffffffffffffffffffffffffffff16021790555003600860008473ffffffffffffffffffffffffffffffffffffffff1673ffffffffffffffffffffffffffffffffffffffff168152602001908152602001600020819055508173ffffffffffffffffffffffffffffffffffffffff167f312b1e00c83e17c7ed6bc713bbf81b82ab0e22b1f8621492816831c14eb277c360405160405180910390a25b612a1881600a60003373ffffffffffffffffffffffffffffffffffffffff1673ffffffffffffffffffffffffffffffffffffffff16815260200190815260200160002060008573ffffffffffffffffffffffffffffffffffffffff1673ffffffffffffffffffffffffffffffffffffffff16815260200190815260200160002054612ed790919063ffffffff16565b600a60003373ffffffffffffffffffffffffffffffffffffffff1673ffffffffffffffffffffffffffffffffffffffff16815260200190815260200160002060008473ffffffffffffffffffffffffffffffffffffffff1673ffffffffffffffffffffffffffffffffffffffff16815260200190815260200160002081905550612b4f612b01600154612af384600560003373ffffffffffffffffffffffffffffffffffffffff1673ffffffffffffffffffffffffffffffffffffffff16815260200190815260200160002054612e7790919063ffffffff16565b612eb190919063ffffffff16565b600960008573ffffffffffffffffffffffffffffffffffffffff1673ffffffffffffffffffffffffffffffffffffffff16815260200190815260200160002054612ed790919063ffffffff16565b600960008473ffffffffffffffffffffffffffffffffffffffff1673ffffffffffffffffffffffffffffffffffffffff168152602001908152602001600020819055508173ffffffffffffffffffffffffffffffffffffffff168373ffffffffffffffffffffffffffffffffffffffff167f41655d6787237d7ea0b3770c6303c3b29ff1a15c77e22b604e5e1757b5291d6c836040518082815260200191505060405180910390a3612d71565b612c8b81600660003373ffffffffffffffffffffffffffffffffffffffff1673ffffffffffffffffffffffffffffffffffffffff16815260200190815260200160002060008573ffffffffffffffffffffffffffffffffffffffff1673ffffffffffffffffffffffffffffffffffffffff16815260200190815260200160002054612ed790919063ffffffff16565b600660003373ffffffffffffffffffffffffffffffffffffffff1673ffffffffffffffffffffffffffffffffffffffff16815260200190815260200160002060008473ffffffffffffffffffffffffffffffffffffffff1673ffffffffffffffffffffffffffffffffffffffff168152602001908152602001600020819055508173ffffffffffffffffffffffffffffffffffffffff168373ffffffffffffffffffffffffffffffffffffffff167f8bb80ca63d08ae36976738f20259784a611c42c4613a57003e69fa44f1ae6bd4836040518082815260200191505060405180910390a35b505050565b600a602052816000526040600020602052806000526040600020600091509150505481565b60046020528060005260406000206000915090505481565b60015481565b60096020528060005260406000206000915090505481565b60606003805480602002602001604051908101604052809291908181526020018280548015612e5557602002820191906000526020600020905b8160009054906101000a900473ffffffffffffffffffffffffffffffffffffffff1673ffffffffffffffffffffffffffffffffffffffff1681526020019060010190808311612e0b575b5050505050905090565b60056020528060005260406000206000915090505481565b600080831415612e8a5760009050612eab565b6000828402905082848281612e9b57fe5b0414612ea657600080fd5b809150505b92915050565b6000808211612ebf57600080fd5b6000828481612eca57fe5b0490508091505092915050565b600080828401905083811015612eec57600080fd5b8091505092915050565b600082821115612f0557600080fd5b600082840390508091505092915050565b600080600460008473ffffffffffffffffffffffffffffffffffffffff1673ffffffffffffffffffffffffffffffffffffffff1681526020019081526020016000205490506000600360016003805490500381548110612f7257fe5b9060005260206000200160009054906101000a900473ffffffffffffffffffffffffffffffffffffffff16905081600460008373ffffffffffffffffffffffffffffffffffffffff1673ffffffffffffffffffffffffffffffffffffffff168152602001908152602001600020819055508060038381548110612ff157fe5b9060005260206000200160006101000a81548173ffffffffffffffffffffffffffffffffffffffff021916908373ffffffffffffffffffffffffffffffffffffffff160217905550600380548091906001900361304e9190613224565b508373ffffffffffffffffffffffffffffffffffffffff167fac6e8398676cf37429d530b81144d7079e99f4fe9d28b0d88c4a749ceccbe8cd60405160405180910390a2600192505050919050565b600080600860008473ffffffffffffffffffffffffffffffffffffffff1673ffffffffffffffffffffffffffffffffffffffff16815260200190815260200160002054905060006007600160078054905003815481106130f957fe5b9060005260206000200160009054906101000a900473ffffffffffffffffffffffffffffffffffffffff16905081600860008373ffffffffffffffffffffffffffffffffffffffff1673ffffffffffffffffffffffffffffffffffffffff16815260200190815260200160002081905550806007838154811061317857fe5b9060005260206000200160006101000a81548173ffffffffffffffffffffffffffffffffffffffff021916908373ffffffffffffffffffffffffffffffffffffffff16021790555060078054809190600190036131d59190613224565b508373ffffffffffffffffffffffffffffffffffffffff167ff1117901e71ba40e97c5248906e8e8a4369131d055b6156967deb363777942e260405160405180910390a2600192505050919050565b81548183558181111561324b5781836000526020600020918201910161324a919061327c565b5b505050565b81548183558181111561327757818360005260206000209182019101613276919061327c565b5b505050565b61329e91905b8082111561329a576000816000905550600101613282565b5090565b9056fe76616c75652067726561746572207468616e206f726967696e2773207368617265a165627a7a72305820b4107b4ffd39741144a7a07272cf23e32e5bef1851fb15f88f13433cebaba82f0029a165627a7a7230582042d23a4c0e9718082fa1515730f2db76d5aa7046f87e910f736b045eb191591a0029",
  "source": "pragma solidity >=0.5.1 <0.6.0;\r\n\r\ncontract Token {\r\n    using SafeMath for uint256;\r\n\r\n    mapping (address => uint256) private _balances;\r\n    mapping (address => mapping (address => uint256)) private _allowed;\r\n    uint256 private _totalSupply;\r\n    string private _name;\r\n    string private _symbol;\r\n    uint8 private _decimals;\r\n\r\n    constructor (string memory name, string memory symbol, uint8 decimals) public {\r\n        _name = name;\r\n        _symbol = symbol;\r\n        _decimals = decimals;\r\n    }\r\n\r\n\r\n    function name() public view returns (string memory) {\r\n        return _name;\r\n    }\r\n\r\n    function symbol() public view returns (string memory) {\r\n        return _symbol;\r\n    }\r\n\r\n    function decimals() public view returns (uint8) {\r\n        return _decimals;\r\n    }\r\n\r\n    function totalSupply() public view returns (uint256) {\r\n        return _totalSupply;\r\n    }\r\n\r\n    function balanceOf(address owner) public view returns (uint256) {\r\n        return _balances[owner];\r\n    }\r\n\r\n    function allowance(address owner, address spender) public view returns (uint256) {\r\n        return _allowed[owner][spender];\r\n    }    \r\n\r\n    function transfer(address to, uint256 value) public returns (bool) {\r\n        _transfer(msg.sender, to, value);\r\n        return true;\r\n    }\r\n\r\n    function approve(address spender, uint256 value) public returns (bool) {\r\n        _approve(msg.sender, spender, value);\r\n        return true;\r\n    }\r\n\r\n    function transferFrom(address from, address to, uint256 value) public returns (bool) {\r\n        _transfer(from, to, value);\r\n        _approve(from, msg.sender, _allowed[from][msg.sender].sub(value));\r\n        return true;\r\n    }    \r\n\r\n    function increaseAllowance(address spender, uint256 addedValue) public returns (bool) {\r\n        _approve(msg.sender, spender, _allowed[msg.sender][spender].add(addedValue));\r\n        return true;\r\n    }\r\n\r\n    function decreaseAllowance(address spender, uint256 subtractedValue) public returns (bool) {\r\n        _approve(msg.sender, spender, _allowed[msg.sender][spender].sub(subtractedValue));\r\n        return true;\r\n    }\r\n\r\n    //function mint(address to, uint256 value) public onlyMinter returns (bool) {\r\n    function mint(address to, uint256 value) public returns (bool) {\r\n        _mint(to, value);\r\n        return true;\r\n    }\r\n\r\n    function burn(uint256 value) public {\r\n        _burn(msg.sender, value);\r\n    }\r\n\r\n    function burnFrom(address from, uint256 value) public {\r\n        _burnFrom(from, value);\r\n    }    \r\n\r\n\r\n    event Transfer(address indexed from, address indexed to, uint256 value);\r\n\r\n    event Approval(address indexed owner, address indexed spender, uint256 value);\r\n    \r\n    function _transfer(address from, address to, uint256 value) internal {\r\n        require(to != address(0));\r\n\r\n        _balances[from] = _balances[from].sub(value);\r\n        _balances[to] = _balances[to].add(value);\r\n        emit Transfer(from, to, value);\r\n    }\r\n\r\n    function _mint(address account, uint256 value) internal {\r\n        require(account != address(0));\r\n\r\n        _totalSupply = _totalSupply.add(value);\r\n        _balances[account] = _balances[account].add(value);\r\n        emit Transfer(address(0), account, value);\r\n    }\r\n\r\n    function _burn(address account, uint256 value) internal {\r\n        require(account != address(0));\r\n\r\n        _totalSupply = _totalSupply.sub(value);\r\n        _balances[account] = _balances[account].sub(value);\r\n        emit Transfer(account, address(0), value);\r\n    }\r\n\r\n    function _approve(address owner, address spender, uint256 value) internal {\r\n        require(spender != address(0));\r\n        require(owner != address(0));\r\n\r\n        _allowed[owner][spender] = value;\r\n        emit Approval(owner, spender, value);\r\n    }\r\n\r\n    function _burnFrom(address account, uint256 value) internal {\r\n        _burn(account, value);\r\n        _approve(account, msg.sender, _allowed[account][msg.sender].sub(value));\r\n    }\r\n\r\n}\r\n\r\ncontract SolUSD is Token {\r\n    uint8 private constant decimals_ = 4;\r\n    uint256 private constant initialSupply_ = 1000000 * (10 ** uint256(decimals_));\r\n    constructor () public Token(\"Sol USD\", \"SUSD\", decimals_) {\r\n        _mint(msg.sender, initialSupply_);\r\n    }\r\n}\r\n\r\ncontract TokenBorder is Token {\r\n    uint8 private constant decimals_ = 4;\r\n    address public owner;\r\n\r\n    constructor (string memory _name, string memory _symbol, address _sender)\r\n        public Token(_name, _symbol, decimals_) {\r\n        owner = _sender;\r\n    }\r\n    \r\n    function transfer(address to, uint256 value) public returns (bool) {\r\n        _transfer(msg.sender, to, value);\r\n        \r\n        //Atualiza proporcoes na Borda\r\n        Border border = Border(owner);\r\n        //border.updateRatio();\r\n        \r\n        if (! border.isOwner(to)) {\r\n            border.addOwner(to);\r\n        }\r\n        \r\n        for (uint256 i = 0; i < border.countOwners(); i++) {\r\n            address addressAux = border.getOwner(i);\r\n            uint256 ratio = balanceOf(addressAux).mul(border.decimalpercent());\r\n            ratio = ratio.div(totalSupply());\r\n            border.setRatioOwner(addressAux, ratio);\r\n        }\r\n        \r\n        return true;\r\n    }\r\n}\r\n\r\ncontract Border {\r\n    using SafeMath for uint256;\r\n\r\n    string public name;\r\n    address public creator;\r\n    TokenBorder public tokenBorder;\r\n    address public usdAddress;\r\n\r\n    uint256 public decimalpercent = 10000;                  //100.00 = preciso da porcentagem (2) + 2 casas para 100%\r\n    uint32  public constant MAX_COUNT = 100;                //Nmero mximo de transferencias / depsitos em batch\r\n    mapping (address => uint256) public ratioOwner;\r\n    address[] public owners;\r\n\r\n\r\n    constructor(string memory _name, string memory _tokenName, string memory _tokenSymbol, address _usdAddress, address _ownerAddress) public {\r\n        creator = _ownerAddress;\r\n        name = _name;\r\n        tokenBorder = new TokenBorder (_tokenName, _tokenSymbol, creator);\r\n        usdAddress = _usdAddress;\r\n\r\n        owners.push(_ownerAddress);\r\n        ratioOwner[_ownerAddress] = decimalpercent;\r\n    }\r\n\r\n\r\n    function listOwners() public view returns (address[] memory) {\r\n        return owners;\r\n    }\r\n    \r\n    function isOwner(address _address) public view returns (bool) {\r\n        if (ratioOwner[_address] > 0)\r\n            return true;\r\n        else\r\n            return false;\r\n    }\r\n\r\n    function getOwner(uint256 i) public view returns (address) {\r\n        return owners[i];\r\n    }\r\n\r\n    function countOwners() public view returns (uint256) {\r\n        return owners.length;\r\n    }\r\n\r\n\r\n    event DepositUSD(uint256 _totalValue, address[] indexed _froms, uint256[] _values);\r\n\r\n    function depositUSD(uint256 _totalValue, address[] memory _froms, uint256[] memory _values) public {\r\n        require(_froms.length == _values.length, \"Amount of recipients and values don't match\");\r\n        require(_froms.length < MAX_COUNT, \"Too many recipients\");\r\n\r\n\r\n        SolUSD solUSD = SolUSD(usdAddress);\r\n        //A soma dos valores no pode ser maior que o allowance\r\n        require(_totalValue >= solUSD.allowance(msg.sender, address(this)), \"Ammount not approved\");\r\n\r\n        require(solUSD.transferFrom(msg.sender, address(this), _totalValue), \"Can not transfer to border\");\r\n\r\n        emit DepositUSD(_totalValue, _froms, _values);\r\n\r\n\r\n        /*\r\n            Deveria ser atualizado somente aps a emisso de tokens, porm se algum transferiu tokens para outra pessoa, ratio foi alterado.\r\n            updateRatio();\r\n            Atualmente  atualizado no transfer do token\r\n        */\r\n\r\n        for (uint256 n = 0; n < _froms.length; n++) {\r\n        \r\n            //Futuros problemas aqui\r\n            for (uint256 i = 0; i < owners.length; i++) {\r\n\r\n                //Pode dar problema de overflow em primeiro multiplicar e depois dividir, mas o contrario acarreta perda no arredondamento.\r\n                uint256 amountPart = _values[n].mul(ratioOwner[owners[i]]);\r\n                amountPart = amountPart.div(decimalpercent);\r\n\r\n                //Divide de acordo com ratio\r\n                require(solUSD.transfer(owners[i], amountPart), \"solUSD transfer error\");\r\n            }\r\n\r\n            if (ratioOwner[_froms[n]] == 0) {\r\n                owners.push(_froms[n]);\r\n            }\r\n            require(tokenBorder.mint(_froms[n], _values[n]), \"tokenBorder mint error\");\r\n        }\r\n        \r\n        updateRatio();\r\n    }\r\n\r\n    \r\n    function updateRatio() public {\r\n        //Atualiza ratio de acordo com a distribuicao de tokenBorder\r\n        if (tokenBorder.totalSupply() == 0)\r\n         return;\r\n\r\n        for (uint256 i = 0; i < owners.length; i++) {\r\n            uint256 ratio = tokenBorder.balanceOf(owners[i]).mul(decimalpercent);\r\n            ratio = ratio.div(tokenBorder.totalSupply());\r\n            ratioOwner[owners[i]] = ratio;\r\n        }\r\n    }\r\n\r\n    \r\n    //Para que o tokenBorder possa atualizar o ratio\r\n    modifier onlyTokenBorder {\r\n        require(msg.sender == address(tokenBorder), \"Only tokenBorder\");\r\n        _;\r\n    }\r\n    \r\n    function setRatioOwner(address _address, uint256 _ratio) external onlyTokenBorder {\r\n        ratioOwner[_address] = _ratio;\r\n    }\r\n\r\n    function addOwner(address _address) external onlyTokenBorder {\r\n        owners.push(_address);\r\n    }\r\n    \r\n}\r\n\r\n\r\ncontract BorderFactory {\r\n    address[] public borders;\r\n    mapping (address => bool) public isBorder;\r\n    address public usdAddress;\r\n\r\n    constructor(address _usdAddress) public {\r\n        usdAddress = _usdAddress;\r\n    }\r\n\r\n    function inBorderFactory (address _borderAddress) public view returns (bool) {\r\n        return (isBorder[_borderAddress]);\r\n    }\r\n\r\n    function listBorders() public view returns (address[] memory) {\r\n        return borders;\r\n    }\r\n\r\n\r\n    function lastBorderCreated () public view returns (address) {\r\n        return borders[borders.length-1];\r\n    }\r\n\r\n    event CreateBorder (address indexed _address, string _name);\r\n\r\n    function createBorder (string memory _name, string memory _tokenName, string memory _tokenSymbol) public returns (Border) {\r\n    //function createBorder (string memory _name, string memory _tokenName, string memory _tokenSymbol) public returns (address) {\r\n        Border border = new Border (_name, _tokenName, _tokenSymbol, usdAddress, msg.sender);\r\n        borders.push(address(border));\r\n        isBorder[address(border)] = true;\r\n        emit CreateBorder (address(border), _name);\r\n        //return address(border);\r\n        return border;\r\n        //return lastBorderCreated();\r\n    }\r\n\r\n}\r\n\r\n\r\ncontract Moviment {\r\n    using SafeMath for uint256;\r\n    \r\n    string public name;\r\n    uint256 public decimalpercent = 10000;              //100.00 = preciso da porcentagem (2) + 2 casas para 100%\r\n    address public creator;\r\n    address[] public owners;                            //Donos do movimento\r\n    mapping (address => uint256) public indexOwner;     //posicao no array\r\n    mapping (address => uint256) public ratioOwner;\r\n    mapping (address => mapping (address => uint256)) public shareOwner; //% que cada n encaminha para outro n a partir deste movimento\r\n    \r\n    address[] public borders;                           //Bordas que recebem deste movimento\r\n    mapping (address => uint256) public indexBorder;    //borda que recebe deste movimento - posicao no array\r\n    \r\n    //ratioBorder  a % total que cada owner envia para a borda. Como  relativa a cada owner, o total pode ser mais de 100%\r\n    mapping (address => uint256) public ratioBorder;\r\n    mapping (address => mapping (address => uint256)) public shareBorder; //% que cada n encaminha para a borda a partir deste movimento\r\n    \r\n    //From BorderFactory\r\n    BorderFactory public borderFactory;\r\n\r\n    address public usdAddress;\r\n    \r\n\r\n    constructor(string memory _name, address _borderFactory, address _usdAddress, address _ownerAddress) public {\r\n        creator = _ownerAddress;\r\n        name = _name;\r\n        owners.push(address(0x0));  //posicao 0 zerada\r\n        indexOwner[_ownerAddress] = owners.push(_ownerAddress)-1;\r\n        ratioOwner[_ownerAddress] = decimalpercent;\r\n        shareOwner[_ownerAddress][_ownerAddress] = decimalpercent;\r\n        \r\n        borderFactory = BorderFactory(_borderFactory);\r\n        borders.push(address(0x0));  //posicao 0 zerada\r\n        usdAddress = _usdAddress;\r\n    }\r\n    \r\n    modifier onlyOwner {\r\n        require(indexOwner[msg.sender] > 0, \"Only owner\");\r\n        _;\r\n    }\r\n\r\n    function listOwners() public view returns (address[] memory) {\r\n        return owners;\r\n    }\r\n\r\n    function listBorders() public view returns (address[] memory) {\r\n        return borders;\r\n    }\r\n\r\n    function inBorderFactory (address _address) public view returns (bool) {\r\n        return borderFactory.inBorderFactory (_address);\r\n    }\r\n\r\n\r\n    event SetRatioOwner (address indexed _from, address indexed _to, uint256 _ratio);\r\n    event SetRatioShare (address indexed _from, address indexed _to, uint256 _ratio);\r\n    event SetBorderShare (address indexed _from, address indexed _to, uint256 _ratio);\r\n    event AddOwner (address indexed _address);\r\n    event RemoveOwner (address indexed _address);\r\n    event AddBorder (address indexed _address);\r\n    event RemoveBorder (address indexed _address);\r\n\r\n\r\n    function setRatioOwner (address _address, uint256 _ratio) public onlyOwner {\r\n        require(!inBorderFactory(_address), \"Border can not have a RatioOwner\");\r\n        require(_ratio <= ratioOwner[msg.sender], \"value greater than owner's ratio\");\r\n\r\n        ratioOwner[msg.sender] = ratioOwner[msg.sender].sub(_ratio);\r\n        ratioOwner[_address] = ratioOwner[_address].add(_ratio);\r\n        if (indexOwner[_address] == 0) {\r\n            indexOwner[_address] = owners.push(_address)-1;\r\n            emit AddOwner(_address);\r\n        }\r\n        \r\n        if (ratioOwner[msg.sender] == 0) {\r\n            removeOwner (msg.sender);\r\n        }\r\n        \r\n        //Atualiza o shareOwner\r\n        shareOwner[_address][_address] = decimalpercent;\r\n        emit SetRatioOwner (msg.sender, _address, _ratio);\r\n    }\r\n\r\n    function removeOwner(address _address) internal returns (bool) {\r\n        //Retirar do array Owner        \r\n        uint256 indexToDelete = indexOwner[_address];\r\n        address addressToMove = owners[owners.length-1];\r\n        indexOwner[addressToMove] = indexToDelete;\r\n        owners[indexToDelete] = addressToMove;\r\n        owners.length--;\r\n        emit RemoveOwner(_address);\r\n        return true;\r\n    }\r\n\r\n    function removeBorder(address _address) internal returns (bool) {\r\n        //Retirar do array Border        \r\n        uint256 indexToDelete = indexBorder[_address];\r\n        address addressToMove = borders[borders.length-1];\r\n        indexBorder[addressToMove] = indexToDelete;\r\n        borders[indexToDelete] = addressToMove;\r\n        borders.length--;\r\n        emit RemoveBorder(_address);        \r\n        return true;\r\n    }\r\n\r\n    function setRatioShare (address _from, address _to, uint256 _ratio) public onlyOwner  {\r\n        require(_ratio <= shareOwner[msg.sender][_from], \"value greater than origin's share\");\r\n\r\n        //_from  uma borda?\r\n        if (inBorderFactory(_from)) {\r\n            shareBorder[msg.sender][_from] = shareBorder[msg.sender][_from].sub(_ratio);\r\n\r\n            ratioBorder[_from] = ratioBorder[_from].sub(ratioOwner[msg.sender].mul(_ratio).div(decimalpercent));\r\n            if (ratioBorder[_from] == 0) {\r\n                //Significa que todos os owners retiraram sua parte para a borda.\r\n                removeBorder (_from);\r\n            }\r\n            emit SetBorderShare (_from, _to, _ratio);\r\n        }\r\n        else {\r\n            shareOwner[msg.sender][_from] = shareOwner[msg.sender][_from].sub(_ratio);\r\n            emit SetRatioShare (_from, _to, _ratio);\r\n        }\r\n        \r\n        //_to  uma borda?\r\n        if (inBorderFactory(_to)) {\r\n            if (ratioBorder[_to] == 0) {\r\n                //A borda no recebia nada antes do movimento, ento inclui a borda na lista que recebe deste movimento.\r\n                //isBorder[_to] = true;\r\n                indexBorder[_to] = borders.push(_to)-1;\r\n                emit AddBorder (_to);\r\n            }\r\n            \r\n            shareBorder[msg.sender][_to] = shareBorder[msg.sender][_to].add(_ratio);\r\n            ratioBorder[_to] = ratioBorder[_to].add(ratioOwner[msg.sender].mul(_ratio).div(decimalpercent));\r\n            emit SetBorderShare (_from, _to, _ratio);\r\n        }\r\n        else {\r\n            shareOwner[msg.sender][_to] = shareOwner[msg.sender][_to].add(_ratio);\r\n            emit SetRatioShare (_from, _to, _ratio);\r\n        }\r\n    }\r\n    \r\n    \r\n    event Incoming(address indexed from, uint256 value, string description);\r\n    event BorderIncoming(address indexed from, address indexed to, uint256 value, string description);\r\n    event ShareIncoming(address indexed from, address indexed to, uint256 value, string description);\r\n\r\n    function reportIncoming (uint256 _value, string memory _description) public onlyOwner {\r\n        \r\n        emit Incoming(msg.sender, _value, _description);\r\n        \r\n        uint256 valueAux = 0;\r\n        \r\n        for (uint256 o = 1; o < owners.length; o++) {\r\n            //Aviso de entrada para as bordas\r\n            for (uint256 b = 1; b < borders.length; b++) {\r\n                valueAux = _value.mul(ratioOwner[owners[o]]).div(decimalpercent).mul(shareBorder[owners[o]][borders[b]]).div(decimalpercent);\r\n\r\n                if (valueAux > 0)\r\n                    emit BorderIncoming (owners[o], borders[b], valueAux, _description);\r\n            }\r\n            \r\n            //Aviso de entrada para os nos\r\n            for (uint256 n = 1; n < owners.length; n++) {\r\n                valueAux = _value.mul(ratioOwner[owners[o]]).div(decimalpercent).mul(shareOwner[owners[o]][owners[n]]).div(decimalpercent);\r\n\r\n                if (valueAux > 0)\r\n                    emit ShareIncoming (owners[o], owners[n], valueAux, _description);\r\n            }\r\n        }\r\n    }\r\n\r\n    address[] private borderFroms;\r\n    uint256[] private borderValues;\r\n\r\n    function borderIncoming (uint256 _total, uint256 _borderAmount) public onlyOwner {\r\n        //Fazer o approve do USD, para que seja distribuido aqui\r\n        SolUSD solUSD = SolUSD(usdAddress);\r\n        Border border;\r\n        require(solUSD.transferFrom(msg.sender, address(this), _borderAmount), \"Can not transfer to moviment\");\r\n\r\n        uint256 valueTotal = 0;\r\n        uint256 valueAux = 0;\r\n\r\n        for (uint256 b = 1; b < borders.length; b++) {\r\n            valueTotal = 0;\r\n\r\n            for (uint256 o = 1; o < owners.length; o++) {\r\n                //Verifica se o owner quer enviar para a borda\r\n                if (shareBorder[owners[o]][borders[b]] > 0) {\r\n                    //valueAux = _total * ratioOwner[owners[o]] / decimalpercent * shareBorder[owners[o]][borders[b]] / decimalpercent;\r\n                    valueAux = _total.mul(ratioOwner[owners[o]]).div(decimalpercent).mul(shareBorder[owners[o]][borders[b]]).div(decimalpercent);\r\n                    valueTotal = valueTotal.add(valueAux);\r\n\r\n                    borderFroms.push(owners[o]);\r\n                    borderValues.push(valueAux);\r\n                }\r\n            }\r\n\r\n            if (valueTotal > 0) {\r\n                solUSD.approve(borders[b], valueTotal);\r\n                border = Border(borders[b]);\r\n                border.depositUSD (valueTotal, borderFroms, borderValues);\r\n            }\r\n\r\n            for (uint256 i = borderFroms.length-1; i <= 0; i--) {\r\n                delete borderFroms[i];\r\n                delete borderValues[i];\r\n                borderFroms.length--;\r\n                borderValues.length--;\r\n            }\r\n        }\r\n\r\n    }\r\n    \r\n}\r\n\r\n\r\ncontract MovimentFactory {\r\n    address[] public moviments;\r\n    mapping (address => bool) public isMoviment;\r\n    address public usdAddress;\r\n    address public borderFactory;\r\n\r\n    constructor(address _usdAddress, address _borderFactory) public {\r\n        usdAddress = _usdAddress;\r\n        borderFactory = _borderFactory;\r\n    }\r\n\r\n    function inMovimentFactory (address _address) public view returns (bool) {\r\n        return (isMoviment[_address]);\r\n    }\r\n\r\n    function listMoviments() public view returns (address[] memory) {\r\n        return moviments;\r\n    }\r\n\r\n    event CreateMoviment (address indexed _address, string _name);\r\n\r\n    function createMoviment (string memory _name) public returns (address) {\r\n        Moviment moviment = new Moviment (_name, borderFactory, usdAddress, msg.sender);\r\n        moviments.push(address(moviment));\r\n        isMoviment[address(moviment)] = true;\r\n        emit CreateMoviment (address(moviment), _name);\r\n        return address(moviment);\r\n    }\r\n}\r\n\r\n\r\n\r\nlibrary SafeMath {\r\n    /**\r\n     * @dev Multiplies two unsigned integers, reverts on overflow.\r\n     */\r\n    function mul(uint256 a, uint256 b) internal pure returns (uint256) {\r\n        // Gas optimization: this is cheaper than requiring 'a' not being zero, but the\r\n        // benefit is lost if 'b' is also tested.\r\n        // See: https://github.com/OpenZeppelin/openzeppelin-solidity/pull/522\r\n        if (a == 0) {\r\n            return 0;\r\n        }\r\n\r\n        uint256 c = a * b;\r\n        require(c / a == b);\r\n\r\n        return c;\r\n    }\r\n\r\n    /**\r\n     * @dev Integer division of two unsigned integers truncating the quotient, reverts on division by zero.\r\n     */\r\n    function div(uint256 a, uint256 b) internal pure returns (uint256) {\r\n        // Solidity only automatically asserts when dividing by 0\r\n        require(b > 0);\r\n        uint256 c = a / b;\r\n        // assert(a == b * c + a % b); // There is no case in which this doesn't hold\r\n\r\n        return c;\r\n    }\r\n\r\n    /**\r\n     * @dev Subtracts two unsigned integers, reverts on overflow (i.e. if subtrahend is greater than minuend).\r\n     */\r\n    function sub(uint256 a, uint256 b) internal pure returns (uint256) {\r\n        require(b <= a);\r\n        uint256 c = a - b;\r\n\r\n        return c;\r\n    }\r\n\r\n    /**\r\n     * @dev Adds two unsigned integers, reverts on overflow.\r\n     */\r\n    function add(uint256 a, uint256 b) internal pure returns (uint256) {\r\n        uint256 c = a + b;\r\n        require(c >= a);\r\n\r\n        return c;\r\n    }\r\n\r\n    /**\r\n     * @dev Divides two unsigned integers and returns the remainder (unsigned integer modulo),\r\n     * reverts when dividing by zero.\r\n     */\r\n    function mod(uint256 a, uint256 b) internal pure returns (uint256) {\r\n        require(b != 0);\r\n        return a % b;\r\n    }\r\n}\r\n\r\n\r\n",
  "sourcePath": "D:/Blockchain/Projetos/Syntropy-Prosper/syntropy-web/contracts/Moviment.sol",
  "compiler": {
    "name": "solc",
    "version": "0.5.8+commit.23d335f2.Emscripten.clang"
  },
  "schemaVersion": "3.0.16",
  "updatedAt": "2019-09-22T22:42:30.646Z",
  "devdoc": {
    "methods": {}
  },
  "userdoc": {
    "methods": {}
  }
}