{
  "contractName": "Moviment",
  "abi": [
    {
      "constant": true,
      "inputs": [
        {
          "name": "",
          "type": "uint256"
        }
      ],
      "name": "owners",
      "outputs": [
        {
          "name": "",
          "type": "address"
        }
      ],
      "payable": false,
      "stateMutability": "view",
      "type": "function"
    },
    {
      "constant": true,
      "inputs": [],
      "name": "creator",
      "outputs": [
        {
          "name": "",
          "type": "address"
        }
      ],
      "payable": false,
      "stateMutability": "view",
      "type": "function"
    },
    {
      "constant": true,
      "inputs": [],
      "name": "name",
      "outputs": [
        {
          "name": "",
          "type": "string"
        }
      ],
      "payable": false,
      "stateMutability": "view",
      "type": "function"
    },
    {
      "constant": true,
      "inputs": [
        {
          "name": "",
          "type": "uint256"
        }
      ],
      "name": "borders",
      "outputs": [
        {
          "name": "",
          "type": "address"
        }
      ],
      "payable": false,
      "stateMutability": "view",
      "type": "function"
    },
    {
      "constant": true,
      "inputs": [
        {
          "name": "",
          "type": "address"
        }
      ],
      "name": "ratioShareOwner",
      "outputs": [
        {
          "name": "",
          "type": "uint256"
        }
      ],
      "payable": false,
      "stateMutability": "view",
      "type": "function"
    },
    {
      "constant": true,
      "inputs": [
        {
          "name": "",
          "type": "uint256"
        }
      ],
      "name": "shareOwners",
      "outputs": [
        {
          "name": "",
          "type": "address"
        }
      ],
      "payable": false,
      "stateMutability": "view",
      "type": "function"
    },
    {
      "constant": true,
      "inputs": [
        {
          "name": "",
          "type": "address"
        }
      ],
      "name": "indexBorder",
      "outputs": [
        {
          "name": "",
          "type": "uint256"
        }
      ],
      "payable": false,
      "stateMutability": "view",
      "type": "function"
    },
    {
      "constant": true,
      "inputs": [],
      "name": "borderFactory",
      "outputs": [
        {
          "name": "",
          "type": "address"
        }
      ],
      "payable": false,
      "stateMutability": "view",
      "type": "function"
    },
    {
      "constant": true,
      "inputs": [
        {
          "name": "",
          "type": "address"
        }
      ],
      "name": "indexShareOwner",
      "outputs": [
        {
          "name": "",
          "type": "uint256"
        }
      ],
      "payable": false,
      "stateMutability": "view",
      "type": "function"
    },
    {
      "constant": true,
      "inputs": [
        {
          "name": "",
          "type": "address"
        },
        {
          "name": "",
          "type": "address"
        }
      ],
      "name": "shareOwner",
      "outputs": [
        {
          "name": "",
          "type": "uint256"
        }
      ],
      "payable": false,
      "stateMutability": "view",
      "type": "function"
    },
    {
      "constant": true,
      "inputs": [],
      "name": "usdAddress",
      "outputs": [
        {
          "name": "",
          "type": "address"
        }
      ],
      "payable": false,
      "stateMutability": "view",
      "type": "function"
    },
    {
      "constant": true,
      "inputs": [
        {
          "name": "",
          "type": "address"
        },
        {
          "name": "",
          "type": "address"
        }
      ],
      "name": "shareBorder",
      "outputs": [
        {
          "name": "",
          "type": "uint256"
        }
      ],
      "payable": false,
      "stateMutability": "view",
      "type": "function"
    },
    {
      "constant": true,
      "inputs": [
        {
          "name": "",
          "type": "address"
        }
      ],
      "name": "indexOwner",
      "outputs": [
        {
          "name": "",
          "type": "uint256"
        }
      ],
      "payable": false,
      "stateMutability": "view",
      "type": "function"
    },
    {
      "constant": true,
      "inputs": [],
      "name": "decimalpercent",
      "outputs": [
        {
          "name": "",
          "type": "uint256"
        }
      ],
      "payable": false,
      "stateMutability": "view",
      "type": "function"
    },
    {
      "constant": true,
      "inputs": [
        {
          "name": "",
          "type": "address"
        }
      ],
      "name": "ratioBorder",
      "outputs": [
        {
          "name": "",
          "type": "uint256"
        }
      ],
      "payable": false,
      "stateMutability": "view",
      "type": "function"
    },
    {
      "constant": true,
      "inputs": [
        {
          "name": "",
          "type": "address"
        }
      ],
      "name": "ratioOwner",
      "outputs": [
        {
          "name": "",
          "type": "uint256"
        }
      ],
      "payable": false,
      "stateMutability": "view",
      "type": "function"
    },
    {
      "inputs": [
        {
          "name": "_name",
          "type": "string"
        },
        {
          "name": "_borderFactory",
          "type": "address"
        },
        {
          "name": "_usdAddress",
          "type": "address"
        },
        {
          "name": "_ownerAddress",
          "type": "address"
        }
      ],
      "payable": false,
      "stateMutability": "nonpayable",
      "type": "constructor"
    },
    {
      "anonymous": false,
      "inputs": [
        {
          "indexed": true,
          "name": "_from",
          "type": "address"
        },
        {
          "indexed": true,
          "name": "_to",
          "type": "address"
        },
        {
          "indexed": false,
          "name": "_ratio",
          "type": "uint256"
        }
      ],
      "name": "SetRatioOwner",
      "type": "event"
    },
    {
      "anonymous": false,
      "inputs": [
        {
          "indexed": true,
          "name": "_from",
          "type": "address"
        },
        {
          "indexed": true,
          "name": "_to",
          "type": "address"
        },
        {
          "indexed": false,
          "name": "_ratio",
          "type": "uint256"
        }
      ],
      "name": "SetRatioShare",
      "type": "event"
    },
    {
      "anonymous": false,
      "inputs": [
        {
          "indexed": true,
          "name": "_from",
          "type": "address"
        },
        {
          "indexed": true,
          "name": "_to",
          "type": "address"
        },
        {
          "indexed": false,
          "name": "_ratio",
          "type": "uint256"
        }
      ],
      "name": "SetBorderShare",
      "type": "event"
    },
    {
      "anonymous": false,
      "inputs": [
        {
          "indexed": true,
          "name": "_address",
          "type": "address"
        }
      ],
      "name": "AddOwner",
      "type": "event"
    },
    {
      "anonymous": false,
      "inputs": [
        {
          "indexed": true,
          "name": "_address",
          "type": "address"
        }
      ],
      "name": "RemoveOwner",
      "type": "event"
    },
    {
      "anonymous": false,
      "inputs": [
        {
          "indexed": true,
          "name": "_address",
          "type": "address"
        }
      ],
      "name": "AddShareOwner",
      "type": "event"
    },
    {
      "anonymous": false,
      "inputs": [
        {
          "indexed": true,
          "name": "_address",
          "type": "address"
        }
      ],
      "name": "RemoveShareOwner",
      "type": "event"
    },
    {
      "anonymous": false,
      "inputs": [
        {
          "indexed": true,
          "name": "_address",
          "type": "address"
        }
      ],
      "name": "AddBorder",
      "type": "event"
    },
    {
      "anonymous": false,
      "inputs": [
        {
          "indexed": true,
          "name": "_address",
          "type": "address"
        }
      ],
      "name": "RemoveBorder",
      "type": "event"
    },
    {
      "anonymous": false,
      "inputs": [
        {
          "indexed": true,
          "name": "from",
          "type": "address"
        },
        {
          "indexed": false,
          "name": "value",
          "type": "uint256"
        },
        {
          "indexed": false,
          "name": "description",
          "type": "string"
        }
      ],
      "name": "Incoming",
      "type": "event"
    },
    {
      "anonymous": false,
      "inputs": [
        {
          "indexed": true,
          "name": "from",
          "type": "address"
        },
        {
          "indexed": true,
          "name": "to",
          "type": "address"
        },
        {
          "indexed": false,
          "name": "value",
          "type": "uint256"
        },
        {
          "indexed": false,
          "name": "description",
          "type": "string"
        }
      ],
      "name": "BorderIncoming",
      "type": "event"
    },
    {
      "anonymous": false,
      "inputs": [
        {
          "indexed": true,
          "name": "from",
          "type": "address"
        },
        {
          "indexed": true,
          "name": "to",
          "type": "address"
        },
        {
          "indexed": false,
          "name": "value",
          "type": "uint256"
        },
        {
          "indexed": false,
          "name": "description",
          "type": "string"
        }
      ],
      "name": "ShareIncoming",
      "type": "event"
    },
    {
      "anonymous": false,
      "inputs": [
        {
          "indexed": true,
          "name": "a1",
          "type": "address"
        },
        {
          "indexed": true,
          "name": "a2",
          "type": "address"
        },
        {
          "indexed": false,
          "name": "value",
          "type": "uint256"
        }
      ],
      "name": "Loop",
      "type": "event"
    },
    {
      "anonymous": false,
      "inputs": [
        {
          "indexed": true,
          "name": "from",
          "type": "address"
        },
        {
          "indexed": true,
          "name": "to",
          "type": "address"
        },
        {
          "indexed": false,
          "name": "value",
          "type": "uint256"
        },
        {
          "indexed": false,
          "name": "description",
          "type": "string"
        }
      ],
      "name": "TransferToBorder",
      "type": "event"
    },
    {
      "anonymous": false,
      "inputs": [
        {
          "indexed": true,
          "name": "from",
          "type": "address"
        },
        {
          "indexed": true,
          "name": "to",
          "type": "address"
        },
        {
          "indexed": false,
          "name": "value",
          "type": "uint256"
        },
        {
          "indexed": false,
          "name": "description",
          "type": "string"
        }
      ],
      "name": "TransferToOwner",
      "type": "event"
    },
    {
      "anonymous": false,
      "inputs": [
        {
          "indexed": true,
          "name": "from",
          "type": "address"
        },
        {
          "indexed": true,
          "name": "to",
          "type": "address"
        },
        {
          "indexed": false,
          "name": "value",
          "type": "uint256"
        },
        {
          "indexed": false,
          "name": "description",
          "type": "string"
        }
      ],
      "name": "TransferToShare",
      "type": "event"
    },
    {
      "constant": true,
      "inputs": [],
      "name": "listOwners",
      "outputs": [
        {
          "name": "",
          "type": "address[]"
        }
      ],
      "payable": false,
      "stateMutability": "view",
      "type": "function"
    },
    {
      "constant": true,
      "inputs": [],
      "name": "listBorders",
      "outputs": [
        {
          "name": "",
          "type": "address[]"
        }
      ],
      "payable": false,
      "stateMutability": "view",
      "type": "function"
    },
    {
      "constant": true,
      "inputs": [],
      "name": "listShareOwners",
      "outputs": [
        {
          "name": "",
          "type": "address[]"
        }
      ],
      "payable": false,
      "stateMutability": "view",
      "type": "function"
    },
    {
      "constant": true,
      "inputs": [
        {
          "name": "_address",
          "type": "address"
        }
      ],
      "name": "inBorderFactory",
      "outputs": [
        {
          "name": "",
          "type": "bool"
        }
      ],
      "payable": false,
      "stateMutability": "view",
      "type": "function"
    },
    {
      "constant": false,
      "inputs": [
        {
          "name": "_address",
          "type": "address"
        },
        {
          "name": "_ratio",
          "type": "uint256"
        }
      ],
      "name": "setRatioOwner",
      "outputs": [],
      "payable": false,
      "stateMutability": "nonpayable",
      "type": "function"
    },
    {
      "constant": false,
      "inputs": [
        {
          "name": "_from",
          "type": "address"
        },
        {
          "name": "_to",
          "type": "address"
        },
        {
          "name": "_ratio",
          "type": "uint256"
        }
      ],
      "name": "setRatioShare",
      "outputs": [],
      "payable": false,
      "stateMutability": "nonpayable",
      "type": "function"
    },
    {
      "constant": false,
      "inputs": [
        {
          "name": "_value",
          "type": "uint256"
        },
        {
          "name": "_description",
          "type": "string"
        }
      ],
      "name": "reportIncoming",
      "outputs": [],
      "payable": false,
      "stateMutability": "nonpayable",
      "type": "function"
    },
    {
      "constant": false,
      "inputs": [
        {
          "name": "_value",
          "type": "uint256"
        },
        {
          "name": "_description",
          "type": "string"
        }
      ],
      "name": "reportToTransfer",
      "outputs": [],
      "payable": false,
      "stateMutability": "nonpayable",
      "type": "function"
    },
    {
      "constant": false,
      "inputs": [
        {
          "name": "_total",
          "type": "uint256"
        },
        {
          "name": "_borderAmount",
          "type": "uint256"
        }
      ],
      "name": "borderIncoming",
      "outputs": [],
      "payable": false,
      "stateMutability": "nonpayable",
      "type": "function"
    }
  ],
  "bytecode": "0x60806040526127106001553480156200001757600080fd5b506040516200566638038062005666833981018060405260808110156200003d57600080fd5b8101908080516401000000008111156200005657600080fd5b828101905060208101848111156200006d57600080fd5b81518560018202830111640100000000821117156200008b57600080fd5b505092919060200180519060200190929190805190602001909291908051906020019092919050505080600260006101000a81548173ffffffffffffffffffffffffffffffffffffffff021916908373ffffffffffffffffffffffffffffffffffffffff16021790555083600090805190602001906200010d92919062000443565b506003600090806001815401808255809150509060018203906000526020600020016000909192909190916101000a81548173ffffffffffffffffffffffffffffffffffffffff021916908373ffffffffffffffffffffffffffffffffffffffff16021790555050600160038290806001815401808255809150509060018203906000526020600020016000909192909190916101000a81548173ffffffffffffffffffffffffffffffffffffffff021916908373ffffffffffffffffffffffffffffffffffffffff16021790555003600560008373ffffffffffffffffffffffffffffffffffffffff1673ffffffffffffffffffffffffffffffffffffffff16815260200190815260200160002081905550600154600660008373ffffffffffffffffffffffffffffffffffffffff1673ffffffffffffffffffffffffffffffffffffffff16815260200190815260200160002081905550600154600760008373ffffffffffffffffffffffffffffffffffffffff1673ffffffffffffffffffffffffffffffffffffffff16815260200190815260200160002060008373ffffffffffffffffffffffffffffffffffffffff1673ffffffffffffffffffffffffffffffffffffffff168152602001908152602001600020819055506004600090806001815401808255809150509060018203906000526020600020016000909192909190916101000a81548173ffffffffffffffffffffffffffffffffffffffff021916908373ffffffffffffffffffffffffffffffffffffffff1602179055505082600e60006101000a81548173ffffffffffffffffffffffffffffffffffffffff021916908373ffffffffffffffffffffffffffffffffffffffff160217905550600a600090806001815401808255809150509060018203906000526020600020016000909192909190916101000a81548173ffffffffffffffffffffffffffffffffffffffff021916908373ffffffffffffffffffffffffffffffffffffffff1602179055505081600f60006101000a81548173ffffffffffffffffffffffffffffffffffffffff021916908373ffffffffffffffffffffffffffffffffffffffff16021790555050505050620004f2565b828054600181600116156101000203166002900490600052602060002090601f016020900481019282601f106200048657805160ff1916838001178555620004b7565b82800160010185558215620004b7579182015b82811115620004b657825182559160200191906001019062000499565b5b509050620004c69190620004ca565b5090565b620004ef91905b80821115620004eb576000816000905550600101620004d1565b5090565b90565b61516480620005026000396000f3fe608060405234801561001057600080fd5b50600436106101735760003560e01c806378017f9f116100de578063c4ee4f9d11610097578063e10ebf5211610071578063e10ebf5214610a0b578063ec990f5b14610a29578063ed60c0fc14610a81578063edb0ab1e14610ae057610173565b8063c4ee4f9d146108cd578063c76212561461093b578063d0f7d1cc146109b357610173565b806378017f9f146105df57806388f345c4146106295780638c6253b2146106815780639e1a8613146106f9578063abaf2c0b14610743578063c0e10ac41461080857610173565b806341d977a61161013057806341d977a6146103d85780634aa49f141461041057806355d16f681461045e5780636ad81e14146104ba5780636bd28620146105285780636ca929551461058057610173565b8063025e7c271461017857806302d05d3f146101e657806306fdde0314610230578063079ce8bc146102b35780630de27c9e1461031257806321629c3114610380575b600080fd5b6101a46004803603602081101561018e57600080fd5b8101908080359060200190929190505050610b38565b604051808273ffffffffffffffffffffffffffffffffffffffff1673ffffffffffffffffffffffffffffffffffffffff16815260200191505060405180910390f35b6101ee610b74565b604051808273ffffffffffffffffffffffffffffffffffffffff1673ffffffffffffffffffffffffffffffffffffffff16815260200191505060405180910390f35b610238610b9a565b6040518080602001828103825283818151815260200191508051906020019080838360005b8381101561027857808201518184015260208101905061025d565b50505050905090810190601f1680156102a55780820380516001836020036101000a031916815260200191505b509250505060405180910390f35b6102bb610c38565b6040518080602001828103825283818151815260200191508051906020019060200280838360005b838110156102fe5780820151818401526020810190506102e3565b505050509050019250505060405180910390f35b61033e6004803603602081101561032857600080fd5b8101908080359060200190929190505050610cc6565b604051808273ffffffffffffffffffffffffffffffffffffffff1673ffffffffffffffffffffffffffffffffffffffff16815260200191505060405180910390f35b6103c26004803603602081101561039657600080fd5b81019080803573ffffffffffffffffffffffffffffffffffffffff169060200190929190505050610d02565b6040518082815260200191505060405180910390f35b61040e600480360360408110156103ee57600080fd5b810190808035906020019092919080359060200190929190505050610d1a565b005b61045c6004803603604081101561042657600080fd5b81019080803573ffffffffffffffffffffffffffffffffffffffff1690602001909291908035906020019092919050505061181f565b005b6104a06004803603602081101561047457600080fd5b81019080803573ffffffffffffffffffffffffffffffffffffffff169060200190929190505050611deb565b604051808215151515815260200191505060405180910390f35b6104e6600480360360208110156104d057600080fd5b8101908080359060200190929190505050611ece565b604051808273ffffffffffffffffffffffffffffffffffffffff1673ffffffffffffffffffffffffffffffffffffffff16815260200191505060405180910390f35b61056a6004803603602081101561053e57600080fd5b81019080803573ffffffffffffffffffffffffffffffffffffffff169060200190929190505050611f0a565b6040518082815260200191505060405180910390f35b610588611f22565b6040518080602001828103825283818151815260200191508051906020019060200280838360005b838110156105cb5780820151818401526020810190506105b0565b505050509050019250505060405180910390f35b6105e7611fb0565b604051808273ffffffffffffffffffffffffffffffffffffffff1673ffffffffffffffffffffffffffffffffffffffff16815260200191505060405180910390f35b61066b6004803603602081101561063f57600080fd5b81019080803573ffffffffffffffffffffffffffffffffffffffff169060200190929190505050611fd6565b6040518082815260200191505060405180910390f35b6106e36004803603604081101561069757600080fd5b81019080803573ffffffffffffffffffffffffffffffffffffffff169060200190929190803573ffffffffffffffffffffffffffffffffffffffff169060200190929190505050611fee565b6040518082815260200191505060405180910390f35b610701612013565b604051808273ffffffffffffffffffffffffffffffffffffffff1673ffffffffffffffffffffffffffffffffffffffff16815260200191505060405180910390f35b6108066004803603604081101561075957600080fd5b81019080803590602001909291908035906020019064010000000081111561078057600080fd5b82018360208201111561079257600080fd5b803590602001918460018302840111640100000000831117156107b457600080fd5b91908080601f016020809104026020016040519081016040528093929190818152602001838380828437600081840152601f19601f820116905080830192505050505050509192919290505050612039565b005b6108cb6004803603604081101561081e57600080fd5b81019080803590602001909291908035906020019064010000000081111561084557600080fd5b82018360208201111561085757600080fd5b8035906020019184600183028401116401000000008311171561087957600080fd5b91908080601f016020809104026020016040519081016040528093929190818152602001838380828437600081840152601f19601f820116905080830192505050505050509192919290505050612fd6565b005b610939600480360360608110156108e357600080fd5b81019080803573ffffffffffffffffffffffffffffffffffffffff169060200190929190803573ffffffffffffffffffffffffffffffffffffffff16906020019092919080359060200190929190505050613aa1565b005b61099d6004803603604081101561095157600080fd5b81019080803573ffffffffffffffffffffffffffffffffffffffff169060200190929190803573ffffffffffffffffffffffffffffffffffffffff169060200190929190505050614a2d565b6040518082815260200191505060405180910390f35b6109f5600480360360208110156109c957600080fd5b81019080803573ffffffffffffffffffffffffffffffffffffffff169060200190929190505050614a52565b6040518082815260200191505060405180910390f35b610a13614a6a565b6040518082815260200191505060405180910390f35b610a6b60048036036020811015610a3f57600080fd5b81019080803573ffffffffffffffffffffffffffffffffffffffff169060200190929190505050614a70565b6040518082815260200191505060405180910390f35b610a89614a88565b6040518080602001828103825283818151815260200191508051906020019060200280838360005b83811015610acc578082015181840152602081019050610ab1565b505050509050019250505060405180910390f35b610b2260048036036020811015610af657600080fd5b81019080803573ffffffffffffffffffffffffffffffffffffffff169060200190929190505050614b16565b6040518082815260200191505060405180910390f35b60038181548110610b4557fe5b906000526020600020016000915054906101000a900473ffffffffffffffffffffffffffffffffffffffff1681565b600260009054906101000a900473ffffffffffffffffffffffffffffffffffffffff1681565b60008054600181600116156101000203166002900480601f016020809104026020016040519081016040528092919081815260200182805460018160011615610100020316600290048015610c305780601f10610c0557610100808354040283529160200191610c30565b820191906000526020600020905b815481529060010190602001808311610c1357829003601f168201915b505050505081565b60606004805480602002602001604051908101604052809291908181526020018280548015610cbc57602002820191906000526020600020905b8160009054906101000a900473ffffffffffffffffffffffffffffffffffffffff1673ffffffffffffffffffffffffffffffffffffffff1681526020019060010190808311610c72575b5050505050905090565b600a8181548110610cd357fe5b906000526020600020016000915054906101000a900473ffffffffffffffffffffffffffffffffffffffff1681565b60096020528060005260406000206000915090505481565b6000600560003373ffffffffffffffffffffffffffffffffffffffff1673ffffffffffffffffffffffffffffffffffffffff1681526020019081526020016000205411610dcf576040517f08c379a000000000000000000000000000000000000000000000000000000000815260040180806020018281038252600a8152602001807f4f6e6c79206f776e65720000000000000000000000000000000000000000000081525060200191505060405180910390fd5b6000600f60009054906101000a900473ffffffffffffffffffffffffffffffffffffffff16905060008173ffffffffffffffffffffffffffffffffffffffff166323b872dd3330866040518463ffffffff1660e01b8152600401808473ffffffffffffffffffffffffffffffffffffffff1673ffffffffffffffffffffffffffffffffffffffff1681526020018373ffffffffffffffffffffffffffffffffffffffff1673ffffffffffffffffffffffffffffffffffffffff1681526020018281526020019350505050602060405180830381600087803b158015610eb357600080fd5b505af1158015610ec7573d6000803e3d6000fd5b505050506040513d6020811015610edd57600080fd5b8101908080519060200190929190505050610f60576040517f08c379a000000000000000000000000000000000000000000000000000000000815260040180806020018281038252601c8152602001807f43616e206e6f74207472616e7366657220746f206d6f76696d656e740000000081525060200191505060405180910390fd5b610f68615062565b600081600060038110610f7757fe5b602002018181525050600081600160038110610f8f57fe5b602002018181525050600081600260038110610fa757fe5b6020020181815250506000600190505b600a805490508110156116ee57600082600160038110610fd357fe5b6020020181815250506000600190505b6003805490508110156113d9576000600d60006003848154811061100357fe5b9060005260206000200160009054906101000a900473ffffffffffffffffffffffffffffffffffffffff1673ffffffffffffffffffffffffffffffffffffffff1673ffffffffffffffffffffffffffffffffffffffff1681526020019081526020016000206000600a858154811061107757fe5b9060005260206000200160009054906101000a900473ffffffffffffffffffffffffffffffffffffffff1673ffffffffffffffffffffffffffffffffffffffff1673ffffffffffffffffffffffffffffffffffffffff1681526020019081526020016000205411156113cc57611290600154611282600d6000600386815481106110fd57fe5b9060005260206000200160009054906101000a900473ffffffffffffffffffffffffffffffffffffffff1673ffffffffffffffffffffffffffffffffffffffff1673ffffffffffffffffffffffffffffffffffffffff1681526020019081526020016000206000600a878154811061117157fe5b9060005260206000200160009054906101000a900473ffffffffffffffffffffffffffffffffffffffff1673ffffffffffffffffffffffffffffffffffffffff1673ffffffffffffffffffffffffffffffffffffffff168152602001908152602001600020546112746001546112666006600060038a815481106111f157fe5b9060005260206000200160009054906101000a900473ffffffffffffffffffffffffffffffffffffffff1673ffffffffffffffffffffffffffffffffffffffff1673ffffffffffffffffffffffffffffffffffffffff168152602001908152602001600020548e614b2e90919063ffffffff16565b614b6890919063ffffffff16565b614b2e90919063ffffffff16565b614b6890919063ffffffff16565b8360026003811061129d57fe5b6020020181815250506112db836002600381106112b657fe5b6020020151846001600381106112c857fe5b6020020151614b8e90919063ffffffff16565b836001600381106112e857fe5b60200201818152505060106003828154811061130057fe5b9060005260206000200160009054906101000a900473ffffffffffffffffffffffffffffffffffffffff1690806001815401808255809150509060018203906000526020600020016000909192909190916101000a81548173ffffffffffffffffffffffffffffffffffffffff021916908373ffffffffffffffffffffffffffffffffffffffff1602179055505060118360026003811061139d57fe5b602002015190806001815401808255809150509060018203906000526020600020016000909192909190915055505b8080600101915050610fe3565b506000826001600381106113e957fe5b602002015111156116c5576114298260016003811061140457fe5b60200201518360006003811061141657fe5b6020020151614b8e90919063ffffffff16565b8260006003811061143657fe5b6020020181815250508373ffffffffffffffffffffffffffffffffffffffff1663095ea7b3600a838154811061146857fe5b9060005260206000200160009054906101000a900473ffffffffffffffffffffffffffffffffffffffff16846001600381106114a057fe5b60200201516040518363ffffffff1660e01b8152600401808373ffffffffffffffffffffffffffffffffffffffff1673ffffffffffffffffffffffffffffffffffffffff16815260200182815260200192505050602060405180830381600087803b15801561150e57600080fd5b505af1158015611522573d6000803e3d6000fd5b505050506040513d602081101561153857600080fd5b810190808051906020019092919050505050600a818154811061155757fe5b9060005260206000200160009054906101000a900473ffffffffffffffffffffffffffffffffffffffff1692508273ffffffffffffffffffffffffffffffffffffffff166320738fdf836001600381106115ad57fe5b6020020151601060116040518463ffffffff1660e01b8152600401808481526020018060200180602001838103835285818154815260200191508054801561164a57602002820191906000526020600020905b8160009054906101000a900473ffffffffffffffffffffffffffffffffffffffff1673ffffffffffffffffffffffffffffffffffffffff1681526020019060010190808311611600575b5050838103825284818154815260200191508054801561168957602002820191906000526020600020905b815481526020019060010190808311611675575b505095505050505050600060405180830381600087803b1580156116ac57600080fd5b505af11580156116c0573d6000803e3d6000fd5b505050505b601060006116d39190615084565b601160006116e191906150a5565b8080600101915050610fb7565b50611713816000600381106116ff57fe5b602002015185614bad90919063ffffffff16565b8160026003811061172057fe5b60200201818152505060008160026003811061173857fe5b60200201511115611818578273ffffffffffffffffffffffffffffffffffffffff1663a9059cbb338360026003811061176d57fe5b60200201516040518363ffffffff1660e01b8152600401808373ffffffffffffffffffffffffffffffffffffffff1673ffffffffffffffffffffffffffffffffffffffff16815260200182815260200192505050602060405180830381600087803b1580156117db57600080fd5b505af11580156117ef573d6000803e3d6000fd5b505050506040513d602081101561180557600080fd5b8101908080519060200190929190505050505b5050505050565b6000600560003373ffffffffffffffffffffffffffffffffffffffff1673ffffffffffffffffffffffffffffffffffffffff16815260200190815260200160002054116118d4576040517f08c379a000000000000000000000000000000000000000000000000000000000815260040180806020018281038252600a8152602001807f4f6e6c79206f776e65720000000000000000000000000000000000000000000081525060200191505060405180910390fd5b6118dd82611deb565b15611950576040517f08c379a00000000000000000000000000000000000000000000000000000000081526004018080602001828103825260208152602001807f426f726465722063616e206e6f742068617665206120526174696f4f776e657281525060200191505060405180910390fd5b600660003373ffffffffffffffffffffffffffffffffffffffff1673ffffffffffffffffffffffffffffffffffffffff16815260200190815260200160002054811115611a05576040517f08c379a00000000000000000000000000000000000000000000000000000000081526004018080602001828103825260208152602001807f76616c75652067726561746572207468616e206f776e6572277320726174696f81525060200191505060405180910390fd5b611a5781600660003373ffffffffffffffffffffffffffffffffffffffff1673ffffffffffffffffffffffffffffffffffffffff16815260200190815260200160002054614bad90919063ffffffff16565b600660003373ffffffffffffffffffffffffffffffffffffffff1673ffffffffffffffffffffffffffffffffffffffff16815260200190815260200160002081905550611aec81600660008573ffffffffffffffffffffffffffffffffffffffff1673ffffffffffffffffffffffffffffffffffffffff16815260200190815260200160002054614b8e90919063ffffffff16565b600660008473ffffffffffffffffffffffffffffffffffffffff1673ffffffffffffffffffffffffffffffffffffffff168152602001908152602001600020819055506000600560008473ffffffffffffffffffffffffffffffffffffffff1673ffffffffffffffffffffffffffffffffffffffff168152602001908152602001600020541415611c6657600160038390806001815401808255809150509060018203906000526020600020016000909192909190916101000a81548173ffffffffffffffffffffffffffffffffffffffff021916908373ffffffffffffffffffffffffffffffffffffffff16021790555003600560008473ffffffffffffffffffffffffffffffffffffffff1673ffffffffffffffffffffffffffffffffffffffff168152602001908152602001600020819055508173ffffffffffffffffffffffffffffffffffffffff167fac1e9ef41b54c676ccf449d83ae6f2624bcdce8f5b93a6b48ce95874c332693d60405160405180910390a25b6000600660003373ffffffffffffffffffffffffffffffffffffffff1673ffffffffffffffffffffffffffffffffffffffff168152602001908152602001600020541415611cb957611cb733614bcd565b505b600154600760008473ffffffffffffffffffffffffffffffffffffffff1673ffffffffffffffffffffffffffffffffffffffff16815260200190815260200160002060008473ffffffffffffffffffffffffffffffffffffffff1673ffffffffffffffffffffffffffffffffffffffff16815260200190815260200160002081905550600154600960008473ffffffffffffffffffffffffffffffffffffffff1673ffffffffffffffffffffffffffffffffffffffff168152602001908152602001600020819055508173ffffffffffffffffffffffffffffffffffffffff163373ffffffffffffffffffffffffffffffffffffffff167fecfb0171145db03b4215bf94472b5f6d5c63e5211ecc795327b9acdb1e1534a2836040518082815260200191505060405180910390a35050565b6000600e60009054906101000a900473ffffffffffffffffffffffffffffffffffffffff1673ffffffffffffffffffffffffffffffffffffffff166355d16f68836040518263ffffffff1660e01b8152600401808273ffffffffffffffffffffffffffffffffffffffff1673ffffffffffffffffffffffffffffffffffffffff16815260200191505060206040518083038186803b158015611e8c57600080fd5b505afa158015611ea0573d6000803e3d6000fd5b505050506040513d6020811015611eb657600080fd5b81019080805190602001909291905050509050919050565b60048181548110611edb57fe5b906000526020600020016000915054906101000a900473ffffffffffffffffffffffffffffffffffffffff1681565b600b6020528060005260406000206000915090505481565b6060600a805480602002602001604051908101604052809291908181526020018280548015611fa657602002820191906000526020600020905b8160009054906101000a900473ffffffffffffffffffffffffffffffffffffffff1673ffffffffffffffffffffffffffffffffffffffff1681526020019060010190808311611f5c575b5050505050905090565b600e60009054906101000a900473ffffffffffffffffffffffffffffffffffffffff1681565b60086020528060005260406000206000915090505481565b6007602052816000526040600020602052806000526040600020600091509150505481565b600f60009054906101000a900473ffffffffffffffffffffffffffffffffffffffff1681565b6000600560003373ffffffffffffffffffffffffffffffffffffffff1673ffffffffffffffffffffffffffffffffffffffff16815260200190815260200160002054116120ee576040517f08c379a000000000000000000000000000000000000000000000000000000000815260040180806020018281038252600a8152602001807f4f6e6c79206f776e65720000000000000000000000000000000000000000000081525060200191505060405180910390fd5b3373ffffffffffffffffffffffffffffffffffffffff167f9484bc8ccf02ce620c63fbb9aa604252d4d9c7c23919076b8edfeac3d110e55283836040518083815260200180602001828103825283818151815260200191508051906020019080838360005b8381101561216e578082015181840152602081019050612153565b50505050905090810190601f16801561219b5780820380516001836020036101000a031916815260200191505b50935050505060405180910390a2600080905060008090506000600190505b600380549050811015612bbc57600092506000600190505b600a805490508110156123b05761238c60015461237e600d6000600387815481106121f957fe5b9060005260206000200160009054906101000a900473ffffffffffffffffffffffffffffffffffffffff1673ffffffffffffffffffffffffffffffffffffffff1673ffffffffffffffffffffffffffffffffffffffff1681526020019081526020016000206000600a868154811061226d57fe5b9060005260206000200160009054906101000a900473ffffffffffffffffffffffffffffffffffffffff1673ffffffffffffffffffffffffffffffffffffffff1673ffffffffffffffffffffffffffffffffffffffff168152602001908152602001600020546123706001546123626006600060038b815481106122ed57fe5b9060005260206000200160009054906101000a900473ffffffffffffffffffffffffffffffffffffffff1673ffffffffffffffffffffffffffffffffffffffff1673ffffffffffffffffffffffffffffffffffffffff168152602001908152602001600020548d614b2e90919063ffffffff16565b614b6890919063ffffffff16565b614b2e90919063ffffffff16565b614b6890919063ffffffff16565b92506123a18385614b8e90919063ffffffff16565b935080806001019150506121d2565b503373ffffffffffffffffffffffffffffffffffffffff16600382815481106123d557fe5b9060005260206000200160009054906101000a900473ffffffffffffffffffffffffffffffffffffffff1673ffffffffffffffffffffffffffffffffffffffff1614156129f4576125c96001546125bb600760006003868154811061243657fe5b9060005260206000200160009054906101000a900473ffffffffffffffffffffffffffffffffffffffff1673ffffffffffffffffffffffffffffffffffffffff1673ffffffffffffffffffffffffffffffffffffffff1681526020019081526020016000206000600386815481106124aa57fe5b9060005260206000200160009054906101000a900473ffffffffffffffffffffffffffffffffffffffff1673ffffffffffffffffffffffffffffffffffffffff1673ffffffffffffffffffffffffffffffffffffffff168152602001908152602001600020546125ad60015461259f6006600060038a8154811061252a57fe5b9060005260206000200160009054906101000a900473ffffffffffffffffffffffffffffffffffffffff1673ffffffffffffffffffffffffffffffffffffffff1673ffffffffffffffffffffffffffffffffffffffff168152602001908152602001600020548c614b2e90919063ffffffff16565b614b6890919063ffffffff16565b614b2e90919063ffffffff16565b614b6890919063ffffffff16565b9150600381815481106125d857fe5b9060005260206000200160009054906101000a900473ffffffffffffffffffffffffffffffffffffffff1673ffffffffffffffffffffffffffffffffffffffff163373ffffffffffffffffffffffffffffffffffffffff167f3e53a432cb7410077fccb59ba004f004e917819a68aa50c18f635915f8ab13fc84876040518083815260200180602001828103825283818151815260200191508051906020019080838360005b8381101561269957808201518184015260208101905061267e565b50505050905090810190601f1680156126c65780820380516001836020036101000a031916815260200191505b50935050505060405180910390a36000600190505b6004805490508110156129ee57612895600154612887600760006003878154811061270257fe5b9060005260206000200160009054906101000a900473ffffffffffffffffffffffffffffffffffffffff1673ffffffffffffffffffffffffffffffffffffffff1673ffffffffffffffffffffffffffffffffffffffff16815260200190815260200160002060006004868154811061277657fe5b9060005260206000200160009054906101000a900473ffffffffffffffffffffffffffffffffffffffff1673ffffffffffffffffffffffffffffffffffffffff1673ffffffffffffffffffffffffffffffffffffffff1681526020019081526020016000205461287960015461286b6006600060038b815481106127f657fe5b9060005260206000200160009054906101000a900473ffffffffffffffffffffffffffffffffffffffff1673ffffffffffffffffffffffffffffffffffffffff1673ffffffffffffffffffffffffffffffffffffffff168152602001908152602001600020548d614b2e90919063ffffffff16565b614b6890919063ffffffff16565b614b2e90919063ffffffff16565b614b6890919063ffffffff16565b925060008311156129e157600481815481106128ad57fe5b9060005260206000200160009054906101000a900473ffffffffffffffffffffffffffffffffffffffff1673ffffffffffffffffffffffffffffffffffffffff16600383815481106128fb57fe5b9060005260206000200160009054906101000a900473ffffffffffffffffffffffffffffffffffffffff1673ffffffffffffffffffffffffffffffffffffffff167f7492ad6231b1d065b01fb379bfd20dc22be7a14b2a2a8025fa163ce27c41aae385886040518083815260200180602001828103825283818151815260200191508051906020019080838360005b838110156129a557808201518184015260208101905061298a565b50505050905090810190601f1680156129d25780820380516001836020036101000a031916815260200191505b50935050505060405180910390a35b80806001019150506126db565b50612baf565b612aa383612a95600154612a876006600060038881548110612a1257fe5b9060005260206000200160009054906101000a900473ffffffffffffffffffffffffffffffffffffffff1673ffffffffffffffffffffffffffffffffffffffff1673ffffffffffffffffffffffffffffffffffffffff168152602001908152602001600020548a614b2e90919063ffffffff16565b614b6890919063ffffffff16565b614bad90919063ffffffff16565b915060038181548110612ab257fe5b9060005260206000200160009054906101000a900473ffffffffffffffffffffffffffffffffffffffff1673ffffffffffffffffffffffffffffffffffffffff163373ffffffffffffffffffffffffffffffffffffffff167f3e53a432cb7410077fccb59ba004f004e917819a68aa50c18f635915f8ab13fc84876040518083815260200180602001828103825283818151815260200191508051906020019080838360005b83811015612b73578082015181840152602081019050612b58565b50505050905090810190601f168015612ba05780820380516001836020036101000a031916815260200191505b50935050505060405180910390a35b80806001019150506121ba565b506000600190505b600a80549050811015612fcf57600092506000600190505b600380549050811015612eae576000600d600060038481548110612bfc57fe5b9060005260206000200160009054906101000a900473ffffffffffffffffffffffffffffffffffffffff1673ffffffffffffffffffffffffffffffffffffffff1673ffffffffffffffffffffffffffffffffffffffff1681526020019081526020016000206000600a8581548110612c7057fe5b9060005260206000200160009054906101000a900473ffffffffffffffffffffffffffffffffffffffff1673ffffffffffffffffffffffffffffffffffffffff1673ffffffffffffffffffffffffffffffffffffffff168152602001908152602001600020541115612ea157612e89600154612e7b600d600060038681548110612cf657fe5b9060005260206000200160009054906101000a900473ffffffffffffffffffffffffffffffffffffffff1673ffffffffffffffffffffffffffffffffffffffff1673ffffffffffffffffffffffffffffffffffffffff1681526020019081526020016000206000600a8781548110612d6a57fe5b9060005260206000200160009054906101000a900473ffffffffffffffffffffffffffffffffffffffff1673ffffffffffffffffffffffffffffffffffffffff1673ffffffffffffffffffffffffffffffffffffffff16815260200190815260200160002054612e6d600154612e5f6006600060038a81548110612dea57fe5b9060005260206000200160009054906101000a900473ffffffffffffffffffffffffffffffffffffffff1673ffffffffffffffffffffffffffffffffffffffff1673ffffffffffffffffffffffffffffffffffffffff168152602001908152602001600020548d614b2e90919063ffffffff16565b614b6890919063ffffffff16565b614b2e90919063ffffffff16565b614b6890919063ffffffff16565b9250612e9e8385614b8e90919063ffffffff16565b93505b8080600101915050612bdc565b506000831115612fc257600a8181548110612ec557fe5b9060005260206000200160009054906101000a900473ffffffffffffffffffffffffffffffffffffffff1673ffffffffffffffffffffffffffffffffffffffff163373ffffffffffffffffffffffffffffffffffffffff167f557ba1707460b13f27b1d789b8cdea031b8aeef49c0f1d171fc9692307f21ed385876040518083815260200180602001828103825283818151815260200191508051906020019080838360005b83811015612f86578082015181840152602081019050612f6b565b50505050905090810190601f168015612fb35780820380516001836020036101000a031916815260200191505b50935050505060405180910390a35b8080600101915050612bc4565b5050505050565b6000600560003373ffffffffffffffffffffffffffffffffffffffff1673ffffffffffffffffffffffffffffffffffffffff168152602001908152602001600020541161308b576040517f08c379a000000000000000000000000000000000000000000000000000000000815260040180806020018281038252600a8152602001807f4f6e6c79206f776e65720000000000000000000000000000000000000000000081525060200191505060405180910390fd5b3373ffffffffffffffffffffffffffffffffffffffff167f9484bc8ccf02ce620c63fbb9aa604252d4d9c7c23919076b8edfeac3d110e55283836040518083815260200180602001828103825283818151815260200191508051906020019080838360005b8381101561310b5780820151818401526020810190506130f0565b50505050905090810190601f1680156131385780820380516001836020036101000a031916815260200191505b50935050505060405180910390a260008090506000600190505b600380549050811015613a9b576000600190505b600a8054905081101561347957613320600154613312600d60006003878154811061318d57fe5b9060005260206000200160009054906101000a900473ffffffffffffffffffffffffffffffffffffffff1673ffffffffffffffffffffffffffffffffffffffff1673ffffffffffffffffffffffffffffffffffffffff1681526020019081526020016000206000600a868154811061320157fe5b9060005260206000200160009054906101000a900473ffffffffffffffffffffffffffffffffffffffff1673ffffffffffffffffffffffffffffffffffffffff1673ffffffffffffffffffffffffffffffffffffffff168152602001908152602001600020546133046001546132f66006600060038b8154811061328157fe5b9060005260206000200160009054906101000a900473ffffffffffffffffffffffffffffffffffffffff1673ffffffffffffffffffffffffffffffffffffffff1673ffffffffffffffffffffffffffffffffffffffff168152602001908152602001600020548c614b2e90919063ffffffff16565b614b6890919063ffffffff16565b614b2e90919063ffffffff16565b614b6890919063ffffffff16565b9250600083111561346c57600a818154811061333857fe5b9060005260206000200160009054906101000a900473ffffffffffffffffffffffffffffffffffffffff1673ffffffffffffffffffffffffffffffffffffffff166003838154811061338657fe5b9060005260206000200160009054906101000a900473ffffffffffffffffffffffffffffffffffffffff1673ffffffffffffffffffffffffffffffffffffffff167f5bc4fb50884f090a47007b0ff6a47805ca1d7af3e4c4cc2ed127025d3ef6f83d85876040518083815260200180602001828103825283818151815260200191508051906020019080838360005b83811015613430578082015181840152602081019050613415565b50505050905090810190601f16801561345d5780820380516001836020036101000a031916815260200191505b50935050505060405180910390a35b8080600101915050613166565b50613627600154613619600760006003868154811061349457fe5b9060005260206000200160009054906101000a900473ffffffffffffffffffffffffffffffffffffffff1673ffffffffffffffffffffffffffffffffffffffff1673ffffffffffffffffffffffffffffffffffffffff16815260200190815260200160002060006003868154811061350857fe5b9060005260206000200160009054906101000a900473ffffffffffffffffffffffffffffffffffffffff1673ffffffffffffffffffffffffffffffffffffffff1673ffffffffffffffffffffffffffffffffffffffff1681526020019081526020016000205461360b6001546135fd6006600060038a8154811061358857fe5b9060005260206000200160009054906101000a900473ffffffffffffffffffffffffffffffffffffffff1673ffffffffffffffffffffffffffffffffffffffff1673ffffffffffffffffffffffffffffffffffffffff168152602001908152602001600020548b614b2e90919063ffffffff16565b614b6890919063ffffffff16565b614b2e90919063ffffffff16565b614b6890919063ffffffff16565b91506000821115613773576003818154811061363f57fe5b9060005260206000200160009054906101000a900473ffffffffffffffffffffffffffffffffffffffff1673ffffffffffffffffffffffffffffffffffffffff166003828154811061368d57fe5b9060005260206000200160009054906101000a900473ffffffffffffffffffffffffffffffffffffffff1673ffffffffffffffffffffffffffffffffffffffff167fd602ab9ddaa61fb4dda79b7fdf4dae647078847d6fbf8c844132f5a038b415a284866040518083815260200180602001828103825283818151815260200191508051906020019080838360005b8381101561373757808201518184015260208101905061371c565b50505050905090810190601f1680156137645780820380516001836020036101000a031916815260200191505b50935050505060405180910390a35b6000600190505b600480549050811015613a8d5761393460015461392660076000600387815481106137a157fe5b9060005260206000200160009054906101000a900473ffffffffffffffffffffffffffffffffffffffff1673ffffffffffffffffffffffffffffffffffffffff1673ffffffffffffffffffffffffffffffffffffffff16815260200190815260200160002060006004868154811061381557fe5b9060005260206000200160009054906101000a900473ffffffffffffffffffffffffffffffffffffffff1673ffffffffffffffffffffffffffffffffffffffff1673ffffffffffffffffffffffffffffffffffffffff1681526020019081526020016000205461391860015461390a6006600060038b8154811061389557fe5b9060005260206000200160009054906101000a900473ffffffffffffffffffffffffffffffffffffffff1673ffffffffffffffffffffffffffffffffffffffff1673ffffffffffffffffffffffffffffffffffffffff168152602001908152602001600020548c614b2e90919063ffffffff16565b614b6890919063ffffffff16565b614b2e90919063ffffffff16565b614b6890919063ffffffff16565b92506000831115613a80576004818154811061394c57fe5b9060005260206000200160009054906101000a900473ffffffffffffffffffffffffffffffffffffffff1673ffffffffffffffffffffffffffffffffffffffff166003838154811061399a57fe5b9060005260206000200160009054906101000a900473ffffffffffffffffffffffffffffffffffffffff1673ffffffffffffffffffffffffffffffffffffffff167fd602ab9ddaa61fb4dda79b7fdf4dae647078847d6fbf8c844132f5a038b415a285876040518083815260200180602001828103825283818151815260200191508051906020019080838360005b83811015613a44578082015181840152602081019050613a29565b50505050905090810190601f168015613a715780820380516001836020036101000a031916815260200191505b50935050505060405180910390a35b808060010191505061377a565b508080600101915050613152565b50505050565b6000600560003373ffffffffffffffffffffffffffffffffffffffff1673ffffffffffffffffffffffffffffffffffffffff1681526020019081526020016000205411613b56576040517f08c379a000000000000000000000000000000000000000000000000000000000815260040180806020018281038252600a8152602001807f4f6e6c79206f776e65720000000000000000000000000000000000000000000081525060200191505060405180910390fd5b613b5f83611deb565b15613eff57600d60003373ffffffffffffffffffffffffffffffffffffffff1673ffffffffffffffffffffffffffffffffffffffff16815260200190815260200160002060008473ffffffffffffffffffffffffffffffffffffffff1673ffffffffffffffffffffffffffffffffffffffff16815260200190815260200160002054811115613c39576040517f08c379a00000000000000000000000000000000000000000000000000000000081526004018080602001828103825260218152602001806151186021913960400191505060405180910390fd5b613cc881600d60003373ffffffffffffffffffffffffffffffffffffffff1673ffffffffffffffffffffffffffffffffffffffff16815260200190815260200160002060008673ffffffffffffffffffffffffffffffffffffffff1673ffffffffffffffffffffffffffffffffffffffff16815260200190815260200160002054614bad90919063ffffffff16565b600d60003373ffffffffffffffffffffffffffffffffffffffff1673ffffffffffffffffffffffffffffffffffffffff16815260200190815260200160002060008573ffffffffffffffffffffffffffffffffffffffff1673ffffffffffffffffffffffffffffffffffffffff16815260200190815260200160002081905550613dff613db1600154613da384600660003373ffffffffffffffffffffffffffffffffffffffff1673ffffffffffffffffffffffffffffffffffffffff16815260200190815260200160002054614b2e90919063ffffffff16565b614b6890919063ffffffff16565b600c60008673ffffffffffffffffffffffffffffffffffffffff1673ffffffffffffffffffffffffffffffffffffffff16815260200190815260200160002054614bad90919063ffffffff16565b600c60008573ffffffffffffffffffffffffffffffffffffffff1673ffffffffffffffffffffffffffffffffffffffff168152602001908152602001600020819055506000600c60008573ffffffffffffffffffffffffffffffffffffffff1673ffffffffffffffffffffffffffffffffffffffff168152602001908152602001600020541415613e9557613e9383614d54565b505b8173ffffffffffffffffffffffffffffffffffffffff168373ffffffffffffffffffffffffffffffffffffffff167f41655d6787237d7ea0b3770c6303c3b29ff1a15c77e22b604e5e1757b5291d6c836040518082815260200191505060405180910390a36142ca565b600760003373ffffffffffffffffffffffffffffffffffffffff1673ffffffffffffffffffffffffffffffffffffffff16815260200190815260200160002060008473ffffffffffffffffffffffffffffffffffffffff1673ffffffffffffffffffffffffffffffffffffffff16815260200190815260200160002054811115613fd4576040517f08c379a00000000000000000000000000000000000000000000000000000000081526004018080602001828103825260218152602001806151186021913960400191505060405180910390fd5b61406381600760003373ffffffffffffffffffffffffffffffffffffffff1673ffffffffffffffffffffffffffffffffffffffff16815260200190815260200160002060008673ffffffffffffffffffffffffffffffffffffffff1673ffffffffffffffffffffffffffffffffffffffff16815260200190815260200160002054614bad90919063ffffffff16565b600760003373ffffffffffffffffffffffffffffffffffffffff1673ffffffffffffffffffffffffffffffffffffffff16815260200190815260200160002060008573ffffffffffffffffffffffffffffffffffffffff1673ffffffffffffffffffffffffffffffffffffffff168152602001908152602001600020819055508273ffffffffffffffffffffffffffffffffffffffff163373ffffffffffffffffffffffffffffffffffffffff1614614264576141cd61417f60015461417184600660003373ffffffffffffffffffffffffffffffffffffffff1673ffffffffffffffffffffffffffffffffffffffff16815260200190815260200160002054614b2e90919063ffffffff16565b614b6890919063ffffffff16565b600960008673ffffffffffffffffffffffffffffffffffffffff1673ffffffffffffffffffffffffffffffffffffffff16815260200190815260200160002054614bad90919063ffffffff16565b600960008573ffffffffffffffffffffffffffffffffffffffff1673ffffffffffffffffffffffffffffffffffffffff168152602001908152602001600020819055506000600960008573ffffffffffffffffffffffffffffffffffffffff1673ffffffffffffffffffffffffffffffffffffffff1681526020019081526020016000205414156142635761426183614edb565b505b5b8173ffffffffffffffffffffffffffffffffffffffff168373ffffffffffffffffffffffffffffffffffffffff167f8bb80ca63d08ae36976738f20259784a611c42c4613a57003e69fa44f1ae6bd4836040518082815260200191505060405180910390a35b6142d382611deb565b15614682576000600c60008473ffffffffffffffffffffffffffffffffffffffff1673ffffffffffffffffffffffffffffffffffffffff16815260200190815260200160002054141561440f576001600a8390806001815401808255809150509060018203906000526020600020016000909192909190916101000a81548173ffffffffffffffffffffffffffffffffffffffff021916908373ffffffffffffffffffffffffffffffffffffffff16021790555003600b60008473ffffffffffffffffffffffffffffffffffffffff1673ffffffffffffffffffffffffffffffffffffffff168152602001908152602001600020819055508173ffffffffffffffffffffffffffffffffffffffff167f312b1e00c83e17c7ed6bc713bbf81b82ab0e22b1f8621492816831c14eb277c360405160405180910390a25b61449e81600d60003373ffffffffffffffffffffffffffffffffffffffff1673ffffffffffffffffffffffffffffffffffffffff16815260200190815260200160002060008573ffffffffffffffffffffffffffffffffffffffff1673ffffffffffffffffffffffffffffffffffffffff16815260200190815260200160002054614b8e90919063ffffffff16565b600d60003373ffffffffffffffffffffffffffffffffffffffff1673ffffffffffffffffffffffffffffffffffffffff16815260200190815260200160002060008473ffffffffffffffffffffffffffffffffffffffff1673ffffffffffffffffffffffffffffffffffffffff168152602001908152602001600020819055506145d561458760015461457984600660003373ffffffffffffffffffffffffffffffffffffffff1673ffffffffffffffffffffffffffffffffffffffff16815260200190815260200160002054614b2e90919063ffffffff16565b614b6890919063ffffffff16565b600c60008573ffffffffffffffffffffffffffffffffffffffff1673ffffffffffffffffffffffffffffffffffffffff16815260200190815260200160002054614b8e90919063ffffffff16565b600c60008473ffffffffffffffffffffffffffffffffffffffff1673ffffffffffffffffffffffffffffffffffffffff168152602001908152602001600020819055508173ffffffffffffffffffffffffffffffffffffffff168373ffffffffffffffffffffffffffffffffffffffff167f41655d6787237d7ea0b3770c6303c3b29ff1a15c77e22b604e5e1757b5291d6c836040518082815260200191505060405180910390a3614a28565b6000600960008473ffffffffffffffffffffffffffffffffffffffff1673ffffffffffffffffffffffffffffffffffffffff1681526020019081526020016000205414156147b957600160048390806001815401808255809150509060018203906000526020600020016000909192909190916101000a81548173ffffffffffffffffffffffffffffffffffffffff021916908373ffffffffffffffffffffffffffffffffffffffff16021790555003600860008473ffffffffffffffffffffffffffffffffffffffff1673ffffffffffffffffffffffffffffffffffffffff168152602001908152602001600020819055508173ffffffffffffffffffffffffffffffffffffffff167fa3f9451ebba73640d64528dd274f687810a84934d228ef160ec78a8def0f654e60405160405180910390a25b61484881600760003373ffffffffffffffffffffffffffffffffffffffff1673ffffffffffffffffffffffffffffffffffffffff16815260200190815260200160002060008573ffffffffffffffffffffffffffffffffffffffff1673ffffffffffffffffffffffffffffffffffffffff16815260200190815260200160002054614b8e90919063ffffffff16565b600760003373ffffffffffffffffffffffffffffffffffffffff1673ffffffffffffffffffffffffffffffffffffffff16815260200190815260200160002060008473ffffffffffffffffffffffffffffffffffffffff1673ffffffffffffffffffffffffffffffffffffffff1681526020019081526020016000208190555061497f61493160015461492384600660003373ffffffffffffffffffffffffffffffffffffffff1673ffffffffffffffffffffffffffffffffffffffff16815260200190815260200160002054614b2e90919063ffffffff16565b614b6890919063ffffffff16565b600960008573ffffffffffffffffffffffffffffffffffffffff1673ffffffffffffffffffffffffffffffffffffffff16815260200190815260200160002054614b8e90919063ffffffff16565b600960008473ffffffffffffffffffffffffffffffffffffffff1673ffffffffffffffffffffffffffffffffffffffff168152602001908152602001600020819055508173ffffffffffffffffffffffffffffffffffffffff168373ffffffffffffffffffffffffffffffffffffffff167f8bb80ca63d08ae36976738f20259784a611c42c4613a57003e69fa44f1ae6bd4836040518082815260200191505060405180910390a35b505050565b600d602052816000526040600020602052806000526040600020600091509150505481565b60056020528060005260406000206000915090505481565b60015481565b600c6020528060005260406000206000915090505481565b60606003805480602002602001604051908101604052809291908181526020018280548015614b0c57602002820191906000526020600020905b8160009054906101000a900473ffffffffffffffffffffffffffffffffffffffff1673ffffffffffffffffffffffffffffffffffffffff1681526020019060010190808311614ac2575b5050505050905090565b60066020528060005260406000206000915090505481565b600080831415614b415760009050614b62565b6000828402905082848281614b5257fe5b0414614b5d57600080fd5b809150505b92915050565b6000808211614b7657600080fd5b6000828481614b8157fe5b0490508091505092915050565b600080828401905083811015614ba357600080fd5b8091505092915050565b600082821115614bbc57600080fd5b600082840390508091505092915050565b600080600560008473ffffffffffffffffffffffffffffffffffffffff1673ffffffffffffffffffffffffffffffffffffffff1681526020019081526020016000205490506000600360016003805490500381548110614c2957fe5b9060005260206000200160009054906101000a900473ffffffffffffffffffffffffffffffffffffffff16905081600560008373ffffffffffffffffffffffffffffffffffffffff1673ffffffffffffffffffffffffffffffffffffffff168152602001908152602001600020819055508060038381548110614ca857fe5b9060005260206000200160006101000a81548173ffffffffffffffffffffffffffffffffffffffff021916908373ffffffffffffffffffffffffffffffffffffffff1602179055506003805480919060019003614d0591906150c6565b508373ffffffffffffffffffffffffffffffffffffffff167fac6e8398676cf37429d530b81144d7079e99f4fe9d28b0d88c4a749ceccbe8cd60405160405180910390a2600192505050919050565b600080600b60008473ffffffffffffffffffffffffffffffffffffffff1673ffffffffffffffffffffffffffffffffffffffff1681526020019081526020016000205490506000600a6001600a805490500381548110614db057fe5b9060005260206000200160009054906101000a900473ffffffffffffffffffffffffffffffffffffffff16905081600b60008373ffffffffffffffffffffffffffffffffffffffff1673ffffffffffffffffffffffffffffffffffffffff1681526020019081526020016000208190555080600a8381548110614e2f57fe5b9060005260206000200160006101000a81548173ffffffffffffffffffffffffffffffffffffffff021916908373ffffffffffffffffffffffffffffffffffffffff160217905550600a805480919060019003614e8c91906150c6565b508373ffffffffffffffffffffffffffffffffffffffff167ff1117901e71ba40e97c5248906e8e8a4369131d055b6156967deb363777942e260405160405180910390a2600192505050919050565b600080600860008473ffffffffffffffffffffffffffffffffffffffff1673ffffffffffffffffffffffffffffffffffffffff1681526020019081526020016000205490506000600460016003805490500381548110614f3757fe5b9060005260206000200160009054906101000a900473ffffffffffffffffffffffffffffffffffffffff16905081600860008373ffffffffffffffffffffffffffffffffffffffff1673ffffffffffffffffffffffffffffffffffffffff168152602001908152602001600020819055508060048381548110614fb657fe5b9060005260206000200160006101000a81548173ffffffffffffffffffffffffffffffffffffffff021916908373ffffffffffffffffffffffffffffffffffffffff160217905550600480548091906001900361501391906150c6565b508373ffffffffffffffffffffffffffffffffffffffff167fc02d3bc79f611927c2660f10f15e3406951f13789daf5baf4c68b900b277587760405160405180910390a2600192505050919050565b6040518060600160405280600390602082028038833980820191505090505090565b50805460008255906000526020600020908101906150a291906150f2565b50565b50805460008255906000526020600020908101906150c391906150f2565b50565b8154818355818111156150ed578183600052602060002091820191016150ec91906150f2565b5b505050565b61511491905b808211156151105760008160009055506001016150f8565b5090565b9056fe76616c75652067726561746572207468616e206f726967696e2773207368617265a165627a7a7230582044e9f89dc0bfb4a0b9228e3045d721cd17afcfc6e1a5e54bec221b567218e6fd0029",
  "source": "pragma solidity >=0.5.1 <0.6.0;\r\n\r\n// Syntropy By Solange Gueiros\r\n\r\n\r\ncontract Token {\r\n    using SafeMath for uint256;\r\n    //By OpenZeppelin\r\n\r\n\r\n    mapping (address => uint256) private _balances;\r\n    mapping (address => mapping (address => uint256)) private _allowed;\r\n    uint256 private _totalSupply;\r\n    string private _name;\r\n    string private _symbol;\r\n    uint8 private _decimals;\r\n\r\n    constructor (string memory name, string memory symbol, uint8 decimals) public {\r\n        _name = name;\r\n        _symbol = symbol;\r\n        _decimals = decimals;\r\n    }\r\n\r\n\r\n    function name() public view returns (string memory) {\r\n        return _name;\r\n    }\r\n\r\n    function symbol() public view returns (string memory) {\r\n        return _symbol;\r\n    }\r\n\r\n    function decimals() public view returns (uint8) {\r\n        return _decimals;\r\n    }\r\n\r\n    function totalSupply() public view returns (uint256) {\r\n        return _totalSupply;\r\n    }\r\n\r\n    function balanceOf(address owner) public view returns (uint256) {\r\n        return _balances[owner];\r\n    }\r\n\r\n    function allowance(address owner, address spender) public view returns (uint256) {\r\n        return _allowed[owner][spender];\r\n    }    \r\n\r\n    function transfer(address to, uint256 value) public returns (bool) {\r\n        _transfer(msg.sender, to, value);\r\n        return true;\r\n    }\r\n\r\n    function approve(address spender, uint256 value) public returns (bool) {\r\n        _approve(msg.sender, spender, value);\r\n        return true;\r\n    }\r\n\r\n    function transferFrom(address from, address to, uint256 value) public returns (bool) {\r\n        _transfer(from, to, value);\r\n        _approve(from, msg.sender, _allowed[from][msg.sender].sub(value));\r\n        return true;\r\n    }    \r\n\r\n    function increaseAllowance(address spender, uint256 addedValue) public returns (bool) {\r\n        _approve(msg.sender, spender, _allowed[msg.sender][spender].add(addedValue));\r\n        return true;\r\n    }\r\n\r\n    function decreaseAllowance(address spender, uint256 subtractedValue) public returns (bool) {\r\n        _approve(msg.sender, spender, _allowed[msg.sender][spender].sub(subtractedValue));\r\n        return true;\r\n    }\r\n\r\n    //function mint(address to, uint256 value) public onlyMinter returns (bool) {\r\n    function mint(address to, uint256 value) public returns (bool) {\r\n        _mint(to, value);\r\n        return true;\r\n    }\r\n\r\n    function burn(uint256 value) public {\r\n        _burn(msg.sender, value);\r\n    }\r\n\r\n    function burnFrom(address from, uint256 value) public {\r\n        _burnFrom(from, value);\r\n    }    \r\n\r\n\r\n    event Transfer(address indexed from, address indexed to, uint256 value);\r\n\r\n    event Approval(address indexed owner, address indexed spender, uint256 value);\r\n    \r\n    function _transfer(address from, address to, uint256 value) internal {\r\n        require(to != address(0));\r\n\r\n        _balances[from] = _balances[from].sub(value);\r\n        _balances[to] = _balances[to].add(value);\r\n        emit Transfer(from, to, value);\r\n    }\r\n\r\n    function _mint(address account, uint256 value) internal {\r\n        require(account != address(0));\r\n\r\n        _totalSupply = _totalSupply.add(value);\r\n        _balances[account] = _balances[account].add(value);\r\n        emit Transfer(address(0), account, value);\r\n    }\r\n\r\n    function _burn(address account, uint256 value) internal {\r\n        require(account != address(0));\r\n\r\n        _totalSupply = _totalSupply.sub(value);\r\n        _balances[account] = _balances[account].sub(value);\r\n        emit Transfer(account, address(0), value);\r\n    }\r\n\r\n    function _approve(address owner, address spender, uint256 value) internal {\r\n        require(spender != address(0));\r\n        require(owner != address(0));\r\n\r\n        _allowed[owner][spender] = value;\r\n        emit Approval(owner, spender, value);\r\n    }\r\n\r\n    function _burnFrom(address account, uint256 value) internal {\r\n        _burn(account, value);\r\n        _approve(account, msg.sender, _allowed[account][msg.sender].sub(value));\r\n    }\r\n\r\n}\r\n\r\ncontract SolUSD is Token {\r\n    // Syntropy By Solange Gueiros\r\n    uint8 private constant decimals_ = 4;\r\n    uint256 private constant initialSupply_ = 1000000 * (10 ** uint256(decimals_));\r\n    constructor () public Token(\"Sol USD\", \"SUSD\", decimals_) {\r\n        _mint(msg.sender, initialSupply_);\r\n    }\r\n}\r\n\r\ncontract TokenBorder is Token {\r\n    // Syntropy By Solange Gueiros\r\n    uint8 private constant decimals_ = 4;\r\n    address public owner;\r\n\r\n    constructor (string memory _name, string memory _symbol, address _sender)\r\n        public Token(_name, _symbol, decimals_) {\r\n        owner = _sender;\r\n    }\r\n    \r\n    function transfer(address to, uint256 value) public returns (bool) {\r\n        _transfer(msg.sender, to, value);\r\n        \r\n        //Atualiza proporcoes na Borda\r\n        Border border = Border(owner);\r\n        //border.updateRatio();\r\n        \r\n        if (! border.isOwner(to)) {\r\n            border.addOwner(to);\r\n        }\r\n        \r\n        for (uint256 i = 0; i < border.countOwners(); i++) {\r\n            address addressAux = border.getOwner(i);\r\n            uint256 ratio = balanceOf(addressAux).mul(border.decimalpercent());\r\n            ratio = ratio.div(totalSupply());\r\n            border.setRatioOwner(addressAux, ratio);\r\n        }\r\n        \r\n        return true;\r\n    }\r\n}\r\n\r\ncontract Border {\r\n    using SafeMath for uint256;\r\n    // Syntropy By Solange Gueiros\r\n\r\n    string public name;\r\n    address public creator;\r\n    TokenBorder public tokenBorder;\r\n    address public usdAddress;\r\n\r\n    uint256 public decimalpercent = 10000;                  //100.00 = preciso da porcentagem (2) + 2 casas para 100%\r\n    uint32  public constant MAX_COUNT = 100;                //Nmero mximo de transferencias / depsitos em batch\r\n    mapping (address => uint256) public ratioOwner;\r\n    address[] public owners;\r\n\r\n\r\n    constructor(string memory _name, string memory _tokenName, string memory _tokenSymbol, address _usdAddress, address _ownerAddress) public {\r\n        creator = _ownerAddress;\r\n        name = _name;\r\n        tokenBorder = new TokenBorder (_tokenName, _tokenSymbol, creator);\r\n        usdAddress = _usdAddress;\r\n\r\n        owners.push(_ownerAddress);\r\n        ratioOwner[_ownerAddress] = decimalpercent;\r\n    }\r\n\r\n\r\n    function listOwners() public view returns (address[] memory) {\r\n        return owners;\r\n    }\r\n    \r\n    function isOwner(address _address) public view returns (bool) {\r\n        if (ratioOwner[_address] > 0)\r\n            return true;\r\n        else\r\n            return false;\r\n    }\r\n\r\n    function getOwner(uint256 i) public view returns (address) {\r\n        return owners[i];\r\n    }\r\n\r\n    function countOwners() public view returns (uint256) {\r\n        return owners.length;\r\n    }\r\n\r\n\r\n    event DepositUSD(uint256 _totalValue, address[] indexed _froms, uint256[] _values);\r\n\r\n    function depositUSD(uint256 _totalValue, address[] memory _froms, uint256[] memory _values) public {\r\n        require(_froms.length == _values.length, \"Amount of recipients and values don't match\");\r\n        require(_froms.length < MAX_COUNT, \"Too many recipients\");\r\n\r\n\r\n        SolUSD solUSD = SolUSD(usdAddress);\r\n        //A soma dos valores no pode ser maior que o allowance\r\n        require(_totalValue >= solUSD.allowance(msg.sender, address(this)), \"Ammount not approved\");\r\n\r\n        require(solUSD.transferFrom(msg.sender, address(this), _totalValue), \"Can not transfer to border\");\r\n\r\n        emit DepositUSD(_totalValue, _froms, _values);\r\n\r\n\r\n        /*\r\n            Deveria ser atualizado somente aps a emisso de tokens, porm se algum transferiu tokens para outra pessoa, ratio foi alterado.\r\n            updateRatio();\r\n            Atualmente  atualizado no transfer do token\r\n        */\r\n\r\n        for (uint256 n = 0; n < _froms.length; n++) {\r\n        \r\n            //Futuros problemas aqui\r\n            for (uint256 i = 0; i < owners.length; i++) {\r\n\r\n                //Pode dar problema de overflow em primeiro multiplicar e depois dividir, mas o contrario acarreta perda no arredondamento.\r\n                uint256 amountPart = _values[n].mul(ratioOwner[owners[i]]);\r\n                amountPart = amountPart.div(decimalpercent);\r\n\r\n                //Divide de acordo com ratio\r\n                require(solUSD.transfer(owners[i], amountPart), \"solUSD transfer error\");\r\n            }\r\n\r\n            if (ratioOwner[_froms[n]] == 0) {\r\n                owners.push(_froms[n]);\r\n            }\r\n            require(tokenBorder.mint(_froms[n], _values[n]), \"tokenBorder mint error\");\r\n        }\r\n        \r\n        updateRatio();\r\n    }\r\n\r\n    \r\n    function updateRatio() public {\r\n        //Atualiza ratio de acordo com a distribuicao de tokenBorder\r\n        if (tokenBorder.totalSupply() == 0)\r\n         return;\r\n\r\n        for (uint256 i = 0; i < owners.length; i++) {\r\n            uint256 ratio = tokenBorder.balanceOf(owners[i]).mul(decimalpercent);\r\n            ratio = ratio.div(tokenBorder.totalSupply());\r\n            ratioOwner[owners[i]] = ratio;\r\n        }\r\n    }\r\n\r\n    \r\n    //Para que o tokenBorder possa atualizar o ratio\r\n    modifier onlyTokenBorder {\r\n        require(msg.sender == address(tokenBorder), \"Only tokenBorder\");\r\n        _;\r\n    }\r\n    \r\n    function setRatioOwner(address _address, uint256 _ratio) external onlyTokenBorder {\r\n        ratioOwner[_address] = _ratio;\r\n    }\r\n\r\n    function addOwner(address _address) external onlyTokenBorder {\r\n        owners.push(_address);\r\n    }\r\n    \r\n}\r\n\r\n\r\ncontract BorderFactory {\r\n    // Syntropy By Solange Gueiros\r\n    \r\n    address[] public borders;\r\n    mapping (address => bool) public isBorder;\r\n    address public usdAddress;\r\n\r\n    constructor(address _usdAddress) public {\r\n        usdAddress = _usdAddress;\r\n    }\r\n\r\n    function inBorderFactory (address _borderAddress) public view returns (bool) {\r\n        return (isBorder[_borderAddress]);\r\n    }\r\n\r\n    function listBorders() public view returns (address[] memory) {\r\n        return borders;\r\n    }\r\n\r\n\r\n    function lastBorderCreated () public view returns (address) {\r\n        return borders[borders.length-1];\r\n    }\r\n\r\n    event CreateBorder (address indexed _address, string _name);\r\n\r\n    function createBorder (string memory _name, string memory _tokenName, string memory _tokenSymbol) public returns (Border) {\r\n    //function createBorder (string memory _name, string memory _tokenName, string memory _tokenSymbol) public returns (address) {\r\n        Border border = new Border (_name, _tokenName, _tokenSymbol, usdAddress, msg.sender);\r\n        borders.push(address(border));\r\n        isBorder[address(border)] = true;\r\n        emit CreateBorder (address(border), _name);\r\n        //return address(border);\r\n        return border;\r\n        //return lastBorderCreated();\r\n    }\r\n\r\n}\r\n\r\n\r\ncontract Moviment {\r\n    using SafeMath for uint256;\r\n    // Syntropy By Solange Gueiros\r\n    \r\n    string public name;\r\n    uint256 public decimalpercent = 10000;              //100.00 = preciso da porcentagem (2) + 2 casas para 100%\r\n    address public creator;\r\n    address[] public owners;                            //Donos \"permanentes\" do movimento\r\n    address[] public shareOwners;                       //Donos \"temporarios\" do movimento, quando algum compartilha sua parte temporariamente\r\n    mapping (address => uint256) public indexOwner;     //posicao no array\r\n    mapping (address => uint256) public ratioOwner;     // % total de cada n, permanente\r\n\r\n    mapping (address => mapping (address => uint256)) public shareOwner; //% temporria que cada n encaminha para outro n a partir deste movimento\r\n    mapping (address => uint256) public indexShareOwner;     //posicao no array\r\n    mapping (address => uint256) public ratioShareOwner;     // % total de cada n, temporrio\r\n\r\n    address[] public borders;                           //Bordas que recebem deste movimento\r\n    mapping (address => uint256) public indexBorder;    //borda que recebe deste movimento - posicao no array\r\n    //ratioBorder  a % total que cada owner envia para a borda. Como  relativa a cada owner, o total pode ser mais de 100%\r\n    mapping (address => uint256) public ratioBorder;    // % total de cada borda\r\n    mapping (address => mapping (address => uint256)) public shareBorder; //% que cada n encaminha para a borda a partir deste movimento\r\n    \r\n    //From BorderFactory\r\n    BorderFactory public borderFactory;\r\n\r\n    address public usdAddress;\r\n    \r\n\r\n    constructor(string memory _name, address _borderFactory, address _usdAddress, address _ownerAddress) public {\r\n        creator = _ownerAddress;\r\n        name = _name;\r\n        owners.push(address(0x0));  //posicao 0 zerada\r\n        indexOwner[_ownerAddress] = owners.push(_ownerAddress)-1;\r\n        ratioOwner[_ownerAddress] = decimalpercent;\r\n        shareOwner[_ownerAddress][_ownerAddress] = decimalpercent;\r\n\r\n        shareOwners.push(address(0x0));  //posicao 0 zerada\r\n        /*\r\n        indexShareOwner[_ownerAddress] = shareOwners.push(_ownerAddress)-1;\r\n        ratioShareOwner[_ownerAddress] = decimalpercent;\r\n        */\r\n\r\n        borderFactory = BorderFactory(_borderFactory);\r\n        borders.push(address(0x0));  //posicao 0 zerada\r\n        usdAddress = _usdAddress;\r\n    }\r\n    \r\n    modifier onlyOwner {\r\n        require(indexOwner[msg.sender] > 0, \"Only owner\");\r\n        _;\r\n    }\r\n\r\n    function listOwners() public view returns (address[] memory) {\r\n        return owners;\r\n    }\r\n\r\n    function listBorders() public view returns (address[] memory) {\r\n        return borders;\r\n    }\r\n    \r\n    function listShareOwners() public view returns (address[] memory) {\r\n        return shareOwners;\r\n    }\r\n\r\n    function inBorderFactory (address _address) public view returns (bool) {\r\n        return borderFactory.inBorderFactory (_address);\r\n    }\r\n\r\n\r\n    event SetRatioOwner (address indexed _from, address indexed _to, uint256 _ratio);\r\n    event SetRatioShare (address indexed _from, address indexed _to, uint256 _ratio);\r\n    event SetBorderShare (address indexed _from, address indexed _to, uint256 _ratio);\r\n    event AddOwner (address indexed _address);\r\n    event RemoveOwner (address indexed _address);\r\n    event AddShareOwner (address indexed _address);\r\n    event RemoveShareOwner (address indexed _address);\r\n    event AddBorder (address indexed _address);\r\n    event RemoveBorder (address indexed _address);\r\n\r\n\r\n    function setRatioOwner (address _address, uint256 _ratio) public onlyOwner {\r\n        require(!inBorderFactory(_address), \"Border can not have a RatioOwner\");\r\n        require(_ratio <= ratioOwner[msg.sender], \"value greater than owner's ratio\");\r\n\r\n        ratioOwner[msg.sender] = ratioOwner[msg.sender].sub(_ratio);\r\n        ratioOwner[_address] = ratioOwner[_address].add(_ratio);\r\n        if (indexOwner[_address] == 0) {\r\n            indexOwner[_address] = owners.push(_address)-1;\r\n            emit AddOwner(_address);\r\n        }\r\n        /*\r\n        if (indexShareOwner[_address] == 0) {\r\n            indexShareOwner[_address] = shareOwners.push(_address)-1;\r\n            emit AddShareOwner(_address);\r\n        }\r\n        */\r\n\r\n        if (ratioOwner[msg.sender] == 0) {\r\n            removeOwner (msg.sender);\r\n        }\r\n        \r\n        //Atualiza o shareOwner\r\n        shareOwner[_address][_address] = decimalpercent;\r\n        ratioShareOwner[_address] = decimalpercent;\r\n        emit SetRatioOwner (msg.sender, _address, _ratio);\r\n    }\r\n\r\n    function removeOwner(address _address) internal returns (bool) {\r\n        //Retirar do array Owner        \r\n        uint256 indexToDelete = indexOwner[_address];\r\n        address addressToMove = owners[owners.length-1];\r\n        indexOwner[addressToMove] = indexToDelete;\r\n        owners[indexToDelete] = addressToMove;\r\n        owners.length--;\r\n        emit RemoveOwner(_address);\r\n        return true;\r\n    }\r\n\r\n    function removeShareOwner(address _address) internal returns (bool) {\r\n        //Retirar do array ShareOwner\r\n        uint256 indexToDelete = indexShareOwner[_address];\r\n        address addressToMove = shareOwners[owners.length-1];\r\n        indexShareOwner[addressToMove] = indexToDelete;\r\n        shareOwners[indexToDelete] = addressToMove;\r\n        shareOwners.length--;\r\n        emit RemoveShareOwner(_address);\r\n        return true;\r\n    }\r\n\r\n    function removeBorder(address _address) internal returns (bool) {\r\n        //Retirar do array Border\r\n        uint256 indexToDelete = indexBorder[_address];\r\n        address addressToMove = borders[borders.length-1];\r\n        indexBorder[addressToMove] = indexToDelete;\r\n        borders[indexToDelete] = addressToMove;\r\n        borders.length--;\r\n        emit RemoveBorder(_address);\r\n        return true;\r\n    }\r\n\r\n    function setRatioShare (address _from, address _to, uint256 _ratio) public onlyOwner  {\r\n\r\n        //_from  uma borda?\r\n        if (inBorderFactory(_from)) {\r\n            require(_ratio <= shareBorder[msg.sender][_from], \"value greater than origin's share\");\r\n\r\n            shareBorder[msg.sender][_from] = shareBorder[msg.sender][_from].sub(_ratio);\r\n            ratioBorder[_from] = ratioBorder[_from].sub(ratioOwner[msg.sender].mul(_ratio).div(decimalpercent));\r\n            if (ratioBorder[_from] == 0) {\r\n                //Significa que todos os owners retiraram sua parte para a borda.\r\n                removeBorder (_from);\r\n            }\r\n            emit SetBorderShare (_from, _to, _ratio);\r\n        }\r\n        else {\r\n            require(_ratio <= shareOwner[msg.sender][_from], \"value greater than origin's share\");\r\n\r\n            shareOwner[msg.sender][_from] = shareOwner[msg.sender][_from].sub(_ratio);\r\n            if (msg.sender != _from) {\r\n                ratioShareOwner[_from] = ratioShareOwner[_from].sub(ratioOwner[msg.sender].mul(_ratio).div(decimalpercent));\r\n                if (ratioShareOwner[_from] == 0) {\r\n                    //Significa que todos os owners retiraram sua parte para a borda.\r\n                    removeShareOwner (_from);\r\n                }\r\n            }\r\n            emit SetRatioShare (_from, _to, _ratio);\r\n        }\r\n\r\n        //_to  uma borda?\r\n        if (inBorderFactory(_to)) {\r\n            if (ratioBorder[_to] == 0) {\r\n                //A borda no recebia nada antes do movimento, ento inclui a borda na lista que recebe deste movimento.\r\n                //isBorder[_to] = true;\r\n                indexBorder[_to] = borders.push(_to)-1;\r\n                emit AddBorder (_to);\r\n            }\r\n            \r\n            shareBorder[msg.sender][_to] = shareBorder[msg.sender][_to].add(_ratio);\r\n            ratioBorder[_to] = ratioBorder[_to].add(ratioOwner[msg.sender].mul(_ratio).div(decimalpercent));\r\n            emit SetBorderShare (_from, _to, _ratio);\r\n        }\r\n        else {\r\n            if (ratioShareOwner[_to] == 0) {\r\n                //O n no recebia nada antes do movimento, ento inclui o n na lista que recebe deste movimento.\r\n                indexShareOwner[_to] = shareOwners.push(_to)-1;\r\n                emit AddShareOwner (_to);\r\n            }\r\n\r\n            shareOwner[msg.sender][_to] = shareOwner[msg.sender][_to].add(_ratio);\r\n            ratioShareOwner[_to] = ratioShareOwner[_to].add(ratioOwner[msg.sender].mul(_ratio).div(decimalpercent));\r\n            emit SetRatioShare (_from, _to, _ratio);\r\n        }\r\n    }\r\n    \r\n    \r\n    event Incoming(address indexed from, uint256 value, string description);\r\n    event BorderIncoming(address indexed from, address indexed to, uint256 value, string description);\r\n    event ShareIncoming(address indexed from, address indexed to, uint256 value, string description);\r\n\r\n    event Loop(address indexed a1, address indexed a2, uint256 value);\r\n                //emit Loop(owners[o], borders[b], valueAux);\r\n                //emit Loop(owners[o], owners[n], valueAux);\r\n\r\n    function reportIncoming (uint256 _value, string memory _description) public onlyOwner {\r\n        \r\n        emit Incoming(msg.sender, _value, _description);\r\n        \r\n        uint256 valueAux = 0;\r\n        \r\n        for (uint256 o = 1; o < owners.length; o++) {\r\n            //Aviso de entrada para as bordas\r\n            for (uint256 b = 1; b < borders.length; b++) {\r\n                valueAux = _value.mul(ratioOwner[owners[o]]).div(decimalpercent).mul(shareBorder[owners[o]][borders[b]]).div(decimalpercent);\r\n                //emit Loop(owners[o], borders[b], valueAux);\r\n                if (valueAux > 0)\r\n                    emit BorderIncoming (owners[o], borders[b], valueAux, _description);\r\n            }\r\n\r\n            valueAux = _value.mul(ratioOwner[owners[o]]).div(decimalpercent).mul(shareOwner[owners[o]][owners[o]]).div(decimalpercent);\r\n            if (valueAux > 0)\r\n                emit ShareIncoming (owners[o], owners[o], valueAux, _description);\r\n\r\n            //Aviso de entrada para os nos\r\n            for (uint256 n = 1; n < shareOwners.length; n++) {\r\n                valueAux = _value.mul(ratioOwner[owners[o]]).div(decimalpercent).mul(shareOwner[owners[o]][shareOwners[n]]).div(decimalpercent);\r\n                //emit Loop(owners[o], shareOwners[n], valueAux);\r\n                if (valueAux > 0)\r\n                    emit ShareIncoming (owners[o], shareOwners[n], valueAux, _description);\r\n            }\r\n        }\r\n    }\r\n\r\n    function calculateBorderTeansfer (uint256 _value) private {\r\n\r\n    }\r\n\r\n    event TransferToBorder(address indexed from, address indexed to, uint256 value, string description);\r\n    event TransferToOwner(address indexed from, address indexed to, uint256 value, string description);\r\n    event TransferToShare(address indexed from, address indexed to, uint256 value, string description);\r\n\r\n    function reportToTransfer (uint256 _value, string memory _description) public onlyOwner {\r\n        \r\n        emit Incoming(msg.sender, _value, _description);\r\n\r\n        uint256 valueTotal = 0;\r\n        uint256 valueAux = 0;\r\n\r\n        // O que o sender tem que mandar para cada um (permanent owner), j subtraindo as bordas?\r\n        for (uint256 o = 1; o < owners.length; o++) {\r\n            valueTotal = 0;\r\n            for (uint256 b = 1; b < borders.length; b++) {\r\n                valueAux = _value.mul(ratioOwner[owners[o]]).div(decimalpercent).mul(shareBorder[owners[o]][borders[b]]).div(decimalpercent);\r\n                valueTotal = valueTotal.add(valueAux);\r\n            }\r\n\r\n            if (owners[o] == msg.sender) {\r\n                //Entrada para ele mesmo\r\n                valueAux = _value.mul(ratioOwner[owners[o]]).div(decimalpercent).mul(shareOwner[owners[o]][owners[o]]).div(decimalpercent);\r\n                emit TransferToOwner (msg.sender, owners[o], valueAux, _description);\r\n\r\n                //Aviso de entrada para os nos\r\n                for (uint256 n = 1; n < shareOwners.length; n++) {\r\n                    valueAux = _value.mul(ratioOwner[owners[o]]).div(decimalpercent).mul(shareOwner[owners[o]][shareOwners[n]]).div(decimalpercent);\r\n                    if (valueAux > 0)\r\n                        emit TransferToShare (owners[o], shareOwners[n], valueAux, _description);\r\n                }\r\n            }\r\n            else {\r\n                //Quando o sender no  o owner\r\n                valueAux = _value.mul(ratioOwner[owners[o]]).div(decimalpercent).sub(valueTotal);\r\n                emit TransferToOwner (msg.sender, owners[o], valueAux, _description);\r\n            }\r\n        }\r\n\r\n\r\n        //A partir do sender, verificar tudo o que ele tem que mandar para as bordas, mesmo em nome dos outros.\r\n        for (uint256 b = 1; b < borders.length; b++) {\r\n            valueTotal = 0;\r\n\r\n            for (uint256 o = 1; o < owners.length; o++) {\r\n                //Verifica se o owner quer enviar para a borda\r\n                if (shareBorder[owners[o]][borders[b]] > 0) {\r\n                    valueAux = _value.mul(ratioOwner[owners[o]]).div(decimalpercent).mul(shareBorder[owners[o]][borders[b]]).div(decimalpercent);\r\n                    valueTotal = valueTotal.add(valueAux);\r\n                }\r\n            }\r\n            if (valueTotal > 0){\r\n                emit TransferToBorder (msg.sender, borders[b], valueTotal, _description);\r\n            }\r\n        }\r\n\r\n    }\r\n    \r\n\r\n    address[] private borderFroms;\r\n    uint256[] private borderValues;\r\n\r\n    function borderIncoming (uint256 _total, uint256 _borderAmount) public onlyOwner {\r\n        //Fazer o approve do USD, para que seja distribuido aqui\r\n        SolUSD solUSD = SolUSD(usdAddress);\r\n        Border border;\r\n        require(solUSD.transferFrom(msg.sender, address(this), _borderAmount), \"Can not transfer to moviment\");\r\n\r\n        //valueTotal, valueBorder, valueAux;\r\n        uint256[3] memory valuesAux;\r\n        valuesAux[0] = 0;\r\n        valuesAux[1] = 0;\r\n        valuesAux[2] = 0;\r\n\r\n        for (uint256 b = 1; b < borders.length; b++) {\r\n            valuesAux[1] = 0;\r\n\r\n            for (uint256 o = 1; o < owners.length; o++) {\r\n                //Verifica se o owner quer enviar para a borda\r\n                if (shareBorder[owners[o]][borders[b]] > 0) {\r\n                    //valueAux = _total * ratioOwner[owners[o]] / decimalpercent * shareBorder[owners[o]][borders[b]] / decimalpercent;\r\n                    valuesAux[2] = _total.mul(ratioOwner[owners[o]]).div(decimalpercent).mul(shareBorder[owners[o]][borders[b]]).div(decimalpercent);\r\n                    valuesAux[1] = valuesAux[1].add(valuesAux[2]);\r\n\r\n                    borderFroms.push(owners[o]);\r\n                    borderValues.push(valuesAux[2]);\r\n                }\r\n            }\r\n\r\n            if (valuesAux[1] > 0) {\r\n                valuesAux[0] = valuesAux[0].add(valuesAux[1]);\r\n                solUSD.approve(borders[b], valuesAux[1]);\r\n                border = Border(borders[b]);\r\n                border.depositUSD (valuesAux[1], borderFroms, borderValues);\r\n            }\r\n\r\n            delete borderFroms;\r\n            delete borderValues;\r\n        }\r\n\r\n        //Sobrou troco? devolve para o sender\r\n        valuesAux[2] = _borderAmount.sub(valuesAux[0]);\r\n        if (valuesAux[2] > 0) {\r\n            solUSD.transfer(msg.sender, valuesAux[2]);\r\n        }\r\n    }\r\n    \r\n}\r\n\r\n\r\ncontract MovimentFactory {\r\n    // Syntropy By Solange Gueiros\r\n\r\n    address[] public moviments;\r\n    mapping (address => bool) public isMoviment;\r\n    address public usdAddress;\r\n    address public borderFactory;\r\n\r\n    constructor(address _usdAddress, address _borderFactory) public {\r\n        usdAddress = _usdAddress;\r\n        borderFactory = _borderFactory;\r\n    }\r\n\r\n    function inMovimentFactory (address _address) public view returns (bool) {\r\n        return (isMoviment[_address]);\r\n    }\r\n\r\n    function listMoviments() public view returns (address[] memory) {\r\n        return moviments;\r\n    }\r\n\r\n    event CreateMoviment (address indexed _address, string _name);\r\n\r\n    function createMoviment (string memory _name) public returns (address) {\r\n        Moviment moviment = new Moviment (_name, borderFactory, usdAddress, msg.sender);\r\n        moviments.push(address(moviment));\r\n        isMoviment[address(moviment)] = true;\r\n        emit CreateMoviment (address(moviment), _name);\r\n        return address(moviment);\r\n    }\r\n}\r\n\r\n\r\n\r\nlibrary SafeMath {\r\n    //By OpenZeppelin\r\n\r\n    /**\r\n     * @dev Multiplies two unsigned integers, reverts on overflow.\r\n     */\r\n    function mul(uint256 a, uint256 b) internal pure returns (uint256) {\r\n        // Gas optimization: this is cheaper than requiring 'a' not being zero, but the\r\n        // benefit is lost if 'b' is also tested.\r\n        // See: https://github.com/OpenZeppelin/openzeppelin-solidity/pull/522\r\n        if (a == 0) {\r\n            return 0;\r\n        }\r\n\r\n        uint256 c = a * b;\r\n        require(c / a == b);\r\n\r\n        return c;\r\n    }\r\n\r\n    /**\r\n     * @dev Integer division of two unsigned integers truncating the quotient, reverts on division by zero.\r\n     */\r\n    function div(uint256 a, uint256 b) internal pure returns (uint256) {\r\n        // Solidity only automatically asserts when dividing by 0\r\n        require(b > 0);\r\n        uint256 c = a / b;\r\n        // assert(a == b * c + a % b); // There is no case in which this doesn't hold\r\n\r\n        return c;\r\n    }\r\n\r\n    /**\r\n     * @dev Subtracts two unsigned integers, reverts on overflow (i.e. if subtrahend is greater than minuend).\r\n     */\r\n    function sub(uint256 a, uint256 b) internal pure returns (uint256) {\r\n        require(b <= a);\r\n        uint256 c = a - b;\r\n\r\n        return c;\r\n    }\r\n\r\n    /**\r\n     * @dev Adds two unsigned integers, reverts on overflow.\r\n     */\r\n    function add(uint256 a, uint256 b) internal pure returns (uint256) {\r\n        uint256 c = a + b;\r\n        require(c >= a);\r\n\r\n        return c;\r\n    }\r\n\r\n    /**\r\n     * @dev Divides two unsigned integers and returns the remainder (unsigned integer modulo),\r\n     * reverts when dividing by zero.\r\n     */\r\n    function mod(uint256 a, uint256 b) internal pure returns (uint256) {\r\n        require(b != 0);\r\n        return a % b;\r\n    }\r\n}",
  "sourcePath": "D:/Blockchain/Projetos/Syntropy-Prosper/syntropy/contracts/Moviment.sol",
  "compiler": {
    "name": "solc",
    "version": "0.5.8+commit.23d335f2.Emscripten.clang"
  },
  "schemaVersion": "3.0.16",
  "updatedAt": "2019-11-17T16:47:03.417Z",
  "devdoc": {
    "methods": {}
  },
  "userdoc": {
    "methods": {}
  }
}